:0400000007EF00F016
:0A000800478239ED0EF03FEF0DF0D6
:10080000003F065B4F666D7C077F67004000000E6F
:10081000236E2350100DF350660FD96EDA6ADF5045
:10082000D8A48BD02350EEEC0DF00009D8B485D0BD
:100830002350100DF3506A0FD96EDA6A0001DFA061
:100840007CD02350100DF3506A0FD96EDA6ADFA204
:100850001FD02350100DF3506A0FD96EDA6ADF8C67
:100860002350100DF3506A0FD96EDA6ADFAA08D050
:100870002350100DF350660FD96EDA6A060E37D08A
:100880002350100DF350660FD96EDA6A010E2FD087
:100890002350100DF3506A0FD96EDA6ADFA408D026
:1008A0002350100DF350660FD96EDA6A050E1FD073
:1008B0002350100DF3506A0FD96EDA6ADFA608D004
:1008C0002350100DF350660FD96EDA6A030E0FD065
:1008D0002350100DF3506A0FD96EDA6ADFA808D0E2
:1008E0002350100DF350660FD96EDA6A040EDF6ED6
:1008F0002350100DF3506B0FD96EDA6ADF8223504C
:10090000100DF350690FD96EDA6ADF50D8B415D0E4
:100910002350100DF350690FD96EDA6ADF501F6E45
:100920001F50B00FD96EDA6A010EDF6E2350100D22
:10093000F3506B0FD96EDA6ADF802350100DF3503D
:10094000660FD96EDA6A050EDF6424D02350100DCD
:10095000F350660FD96EDA6A090EDF601BD02350A0
:10096000100DF3506A0FD96EDA6A0001DFB012D0B1
:100970002350100DF350670FD96EDA6A000EDE6E49
:10098000000EDD6E2350100DF350660FD96EDA6A3B
:10099000020EDF6E2350100DF350660FD96EDA6A27
:1009A000060EDE18D8A427D02350100DF3506C0F7C
:1009B000D96EDA6A2350100DF350670FE16EE26AC8
:1009C000E62A000EE522DE50E65CDE50E658D8A0AE
:1009D00012D02350100DF350670FD96EDA6A000E53
:1009E000DE6E000EDD6E2350100DF350660FD96ED3
:1009F000DA6A070EDF6E2350100DF350660FD96EC2
:100A0000DA6A070EDE18D8A418D02350100DF35060
:100A10006A0FD96EDA6A0001DFBC0FD02350100DC7
:100A2000F3506A0FD96EDA6ADF8C2350100DF35041
:100A3000660FD96EDA6A080EDF6E2350100DF35080
:100A4000660FD96EDA6A080EDE18D8A427D02350B4
:100A5000100DF3506E0FD96EDA6A2350100DF3505B
:100A6000670FE16EE26AE62A000EE522DE50E65CE0
:100A7000DE50E658D8A012D02350100DF350670F67
:100A8000D96EDA6A000EDE6E000EDD6E2350100D98
:100A9000F350660FD96EDA6A070EDF6E2350100D21
:100AA000F350660FD96EDA6A050EDE18D8A418D096
:100AB0002350100DF3506A0FD96EDA6A0001DFB0CF
:100AC0000FD02350100DF3506A0FD96EDA6ADF8C05
:100AD0002350100DF350660FD96EDA6A020EDF6EE6
:100AE0002350100DF350660FD96EDA6A030EDE182C
:100AF000D8A49CD02350100DF350670FD96EDA6A3A
:100B0000DE2A000EDD222350100DF3506A0FD96E3D
:100B1000DA6A0001DFB03DD0000E166E480E176E87
:100B2000430E186E2350100DF350670FD96EDA6A1A
:100B3000DECF13F0DDCF14F0A7EC0FF013C019F0E7
:100B400014C01AF015C01BF005EC0DF0D8A021D090
:100B50002350100DF350670FD96EDA6A000EDE6E67
:100B6000000EDD6E2350100DF3506A0FD96EDA6A55
:100B70000001DF8C2350100DF3506A0FD96EDA6A32
:100B8000DF9E2350100DF350660FD96EDA6A020E05
:100B9000DF6E000E166E480E176E430E186E235051
:100BA000100DF350670FD96EDA6ADECF13F0DDCF88
:100BB00014F0A7EC0FF013C019F014C01AF015C010
:100BC0001BF005EC0DF0D8B031D02350100DF350D0
:100BD000670FD96EDA6A000EDE6E000EDD6E2350EE
:100BE000100DF3506A0FD96EDA6A0001DF8C2350C2
:100BF000100DF3506A0FD96EDA6ADF8E2350100D94
:100C0000F3506A0FD96EDA6ADFBA08D02350100D9C
:100C1000F350660FD96EDA6A010E07D02350100D1B
:100C2000F350660FD96EDA6A080EDF6E2350100D8E
:100C3000F350660FD96EDA6A040EDE18D8A48CD091
:100C40002350100DF350670FD96EDA6ADE2A000EBA
:100C5000DD222350100DF3506A0FD96EDA6A0001BD
:100C6000DFB03DD0000E166E480E176E430E186EA4
:100C70002350100DF350670FD96EDA6ADECF13F0F0
:100C8000DDCF14F0A7EC0FF013C019F014C01AF068
:100C900015C01BF005EC0DF0D8A021D02350100D8D
:100CA000F350670FD96EDA6A000EDE6E000EDD6E4D
:100CB0002350100DF3506A0FD96EDA6A0001DF8CF1
:100CC0002350100DF3506A0FD96EDA6ADF9E23505D
:100CD000100DF350660FD96EDA6A020EDF6E2350E4
:100CE000100DF350670FD96EDA6ADECF13F0DDCF47
:100CF00014F0A7EC0FF013C016F014C017F015C0D5
:100D000018F0000E196E160E1A6E440E1B6E05ECCE
:100D10000DF0D8A021D02350100DF350670FD96EDD
:100D2000DA6A000EDE6E000EDD6E2350100DF350F9
:100D30006A0FD96EDA6A0001DF8C2350100DF35070
:100D40006A0FD96EDA6ADF8E2350100DF350660FEA
:100D5000D96EDA6A010EDF6E2350100DF350660F64
:100D6000D96EDA6ADE04D8A411D02350100DF350E6
:100D70006A0FD96EDA6A0001DFB008D02350100D77
:100D8000F350660FD96EDA6A020EDF6E2350100D33
:100D9000F350660FD96EDA6A020EDE18D8A411D0AD
:100DA0002350100DF3506A0FD96EDA6A0001DFBCD0
:100DB00008D02350100DF350660FD96EDA6A090E71
:100DC000DF6E2350100DF350660FD96EDA6A090EEC
:100DD000DE18D8A42FD02350100DF350690FD96E10
:100DE000DA6ADF50D8B416D02350100DF350690FD3
:100DF000D96EDA6ADF501F6E1F50B00FD96EDA6AF3
:100E0000000EDF6E2350100DF3506B0FD96EDA6AAF
:100E10000001DF902350100DF350660FD96EDA6A8F
:100E2000000EDF6E2350100DF3506B0FD96EDA6A8F
:100E30000001DF92232A040E2364EBD4120031C098
:100E400016F032C017F033C018F0000E196E7A0E8B
:100E50001A6E440E1B6E05EC0DF0D8A006D0C00E25
:100E6000316E790E326E440E336E31C022F032C0D4
:100E700023F033C024F010EC0BF022C0E3F023C0C9
:100E8000E4F031C01FF032C020F033C021F0E3C0E5
:100E900013F0E4C014F003EC0FF013C022F014C000
:100EA00023F015C024F0E3EC0EF01FC0DDF020C0ED
:100EB000DEF021C0DFF0000E166E000E176E000E81
:100EC000186EDDC019F0DEC01AF0DFC01BF005ECB3
:100ED0000DF0D8B02AD031C016F032C017F033C0B0
:100EE00018F0000E196EC80E1A6E420E1B6E05EC3D
:100EF0000DF0D8B01AD0000E166E200E176E410EEF
:100F0000186E31C013F032C014F033C015F096ECF7
:100F10000AF013C022F014C023F015C024F010EC26
:100F20000BF022C0E3F023C0E4F0D30E1A6EE3C04E
:100F30001BF0E4C01CF0000E1E6E0A0E1D6E39EC94
:100F40000FF00B0EF66E080EF76E0800F5CF78F175
:100F50000B0EF66E080EF76E0800F5CF77F10B0E4C
:100F6000F66E080EF76E0800F5CF76F1DDC016F0CC
:100F7000DEC017F0DFC018F0D70E196E230E1A6E00
:100F80003C0E1B6E05EC0DF0D8B037D00001E4BF6D
:100F900008D0E45104E1640EE35DD8A002D0020E53
:100FA0000BD0E4BF08D0E45104E10A0EE35DD8A001
:100FB00002D0010E01D0000EE26F000EE16FE2C020
:100FC000E5F0E5BF1200E551D30FD96EDA6ADF50C4
:100FD000D00FE06FE051010F346E34C0F6FF080E01
:100FE000F76E760EE125D96EDA6A010EDA22080074
:100FF000F5CFDFFFE12BE507E4D731C016F032C0B3
:1010000017F033C018F0000E196EC80E1A6E420E9B
:101010001B6E05EC0DF0D8B041D00001E4BF08D044
:10102000E45104E1640EE35DD8A002D0020E12D0B8
:10103000E4BF08D0E45104E10A0EE35DD8A002D079
:10104000010E08D0010EF66E080EF76E0800F5CFFF
:1010500077F1000EE26F000EE16FE2C0E5F0E5BF50
:101060001AD0E551D30FD96EDA6ADF50D00FE06F96
:10107000E051010F346E34C0F6FF080EF76E760EA5
:10108000E125D96EDA6A010EDA220800F5CFDFFF1A
:10109000E12BE507E4D70101778F1200000E000174
:1010A000E16F020EE56FE551D30FD96EDA6ADF50BA
:1010B000D00FE06FE051010F346E34C0F6FF080E20
:1010C000F76E760EE125D96EDA6A010EDA22080093
:1010D000F5CFDFFFE12BE507E5BF1200E4D715C030
:1010E00019F01A6A1B6A1434193601E31A80195070
:1010F0001E6E18C019F01A6A1B6A1734193601E3FC
:101100001A8019501D6E1E50D8B40AD01D501E5C96
:10111000D8B00DD01E501D5C196E180E196407D082
:1011200016C013F017C014F018C015F012001D50AF
:10113000D8B40AD01E501D5CD8B00DD01D501E5C16
:10114000196E180E196407D013C013F014C014F0F0
:1011500015C015F01200060E1C6E15BE1C8E18BEB2
:101160001C8C148EFF0E1316FF0E1416000E15168F
:10117000178EFF0E1616FF0E1716000E18161D50AE
:101180001E5CD8B01BD0D8901636173618361D0600
:101190001E501D18D8B40DD01C061CC019F0070E27
:1011A0001916D8B406D0EFD7D890153214321332AE
:1011B0001E2A1D501E18D8B41FD0F6D71E501D5C15
:1011C000D8B01AD0D8901336143615361E061E50D5
:1011D0001D18D8B40DD01C061CC019F0070E191626
:1011E000D8B406D0EFD7D8901832173216321D2A4D
:1011F0001D501E18D8A4F7D71CAE0CD0FF0E131A22
:10120000FF0E141AFF0E151A010E1326000E1422DB
:10121000000E15221CAC0CD0FF0E161AFF0E171A6A
:10122000FF0E181A010E1626000E1722000E1822A5
:10123000000E1C6E1350162614501722155018223B
:1012400018AE0ED0FF0E161AFF0E171AFF0E181A40
:10125000010E1626000E1722000E1822010E1C6E1B
:1012600016C00BF017C00CF018C00DF01EC00EF029
:101270001CC00FF0D4EC0BF00BC013F00CC014F03A
:101280000DC015F01200040E0C6E0C50100DF35032
:10129000640FD96EDA6ADF50D8A416D00C50100D46
:1012A000F350600FD96EDA6A01D80AD00500FA6EE1
:1012B000DE50FD6EDE50FE6EF850FF6EFA501200EA
:1012C0000009D8A4ACD041D00C50100DF350640FDD
:1012D000D96EDA6ADE04D8A440D00C50100DF35059
:1012E000650FD96EDA6ADF2A040EDE18D8A497D00B
:1012F0000C50100DF350650FD96EDA6A000EDF6ED8
:101300000C50100DF350600FD96EDA6A01D80AD074
:101310000500FA6EDE50FD6EDE50FE6EF850FF6E78
:10132000FA5012000009D8B408D00C50100DF35038
:10133000640FD96EDA6ADF0672D00C50100DF350CC
:101340006A0FD96EDA6A0001DF800C50100DF3507D
:10135000640FD96EDA6ADF2A62D00C50100DF35098
:10136000640FD96EDA6A020EDE18D8A416D00C50BB
:10137000100DF350600FD96EDA6A01D80AD005005B
:10138000FA6EDE50FD6EDE50FE6EF850FF6EFA50C3
:101390001200E806D8B4D9D742D00C50100DF35043
:1013A000640FD96EDA6A030EDE18D8A438D00C5058
:1013B000100DF350650FD96EDA6ADF2A040EDE18BD
:1013C000D8A42DD00C50100DF350650FD96EDA6AE9
:1013D000000EDF6E0C50100DF350600FD96EDA6AFC
:1013E00001D80AD00500FA6EDE50FD6EDE50FE6EAA
:1013F000F850FF6EFA501200E806D8A496D70C50A9
:10140000100DF3506A0FD96EDA6A0001DF900C50AC
:10141000100DF350640FD96EDA6A000EDF6E0C0601
:101420000CBE120032D7000E356E000E366E000E66
:10143000896E000E8B6E000E8C6E000E8D6E000E8F
:101440008A6E0F0EC16ECF0EB46E000E6D6E080E5A
:101450006F6E870ED56ED768D10ED66EF28A8D80EC
:10146000969095909592959495968B92949296825B
:1014700094809684C6EC0DF079EC0BF0660E316E1C
:101480009B0E326E420E336E1FEC07F0F28EE5ECCF
:101490000FF045A002D04590448044A041D0352AA9
:1014A000140E3518D8A433D0000E356EEEEC0FF0C4
:1014B000000ED7EC0FF00009D8B403D0000E6AEC90
:1014C0000FF0010ED7EC0FF00009D8B403D0010ED5
:1014D0006AEC0FF0020ED7EC0FF00009D8B403D07D
:1014E000020E6AEC0FF0030ED7EC0FF00009D8B42F
:1014F00003D0030E6AEC0FF0040ED7EC0FF00009D6
:10150000D8B405D01FEC0FF00009D8A4FBD7362AB9
:10151000020E3618D8A404D0000E366E94EC0FF0EC
:10152000C5EC0CF044900DEC10F0B3D715C019F0D9
:101530001A6A1B6A1434193601E31A8019501C6E9A
:101540001C50D8A407D0000E136E000E146E000EAF
:10155000156E120018C019F01A6A1B6A1734193672
:1015600001E31A801950216E2150D8A407D0000E33
:10157000136E000E146E000E156E120021507B0FBC
:101580001C2615C021F01850211A800E2116148E29
:10159000178EFF0E1616FF0E1716000E1816000EE9
:1015A0001D6E000E1E6E000E1F6E070E206E13A025
:1015B00006D016501D2617501E2218501F22D890F4
:1015C000153214321332D890163617361836202EAC
:1015D000EED7090E206E13A006D016501D26175008
:1015E0001E2218501F22D890153214321332D89070
:1015F0001F321E321D32202EEED71DC00BF01EC032
:101600000CF01FC00DF01CC00EF021C00FF0D4EC88
:101610000BF00BC013F00CC014F00DC015F012004D
:1016200024C026F0276A286A2334263601E327805F
:101630002650306E3050D8A409D0000E226E000E15
:10164000236E000E246E000E256E1200170E266EFD
:1016500022C027F023C028F024C029F026282A6EB3
:1016600004D0D8902932283227322A2EFAD7275090
:101670002B6E238EFF0E2216FF0E2316000E24164D
:1016800022502C6E23502D6E24502E6E2F6A8E0EFB
:10169000305E30AE0DD03050800A8F0FD8A0CDD73D
:1016A000D8902F322E322D322C32303EF9D70DD039
:1016B000170E306407D0C1D7D8902C362D362E3671
:1016C0002F3630063050D8A4F7D72B50D8B408D0D6
:1016D0002F1E2E1E2D1E2C6C000E2D222E222F2290
:1016E0002CC022F02DC023F02EC024F02FC025F0F6
:1016F00012009488948A948C948E9588040E00012C
:10170000606F200E616FF00E706F1F0E716FE60E2E
:10171000806F1F0E816F140E906F200E916F0C0E54
:10172000A06F200EA16F000E0B6E0B50100DF3502A
:101730006A0FD96EDA6ADF820B50100DF3506A0F10
:10174000D96EDA6ADF940B50100DF3506A0FD96E20
:10175000DA6ADF960B50100DF3506A0FD96EDA6A11
:10176000DF9A0B50100DF350690FD96EDA6A000E34
:10177000DF6E0B50100DF3506C0FD96EDA6A640EE9
:10178000DE6E000EDD6E0B50100DF3506E0FD96E35
:10179000DA6A280EDE6E000EDD6E0B2A0B50800A10
:1017A0007B0FD8B01200C1D70E50D8B405D00B5063
:1017B0000C100D10D8A40CD0000E0B6E000E0C6E89
:1017C000000E0D6E12000E2AD8900D320C320B3224
:1017D000000E0B14106E000E0C14116EFE0E0D1484
:1017E000126E105011101210D8B40CD0ECD70E2A73
:1017F000010E0B26000E0C22000E0D22D8900D3289
:101800000C320B32000E0B14106E000E0C14116E05
:10181000FF0E0D14126E105011101210D8B406D015
:10182000E6D70E06D8900B360C360D360CBE03D01C
:10183000020E0E60F6D70EA00C9ED8900E320E50FF
:101840000D120F50D8A40D8E0BC00BF00CC00CF075
:101850000DC00DF01200116E000E126E11C00BF0D3
:10186000010E0C6E000E0D6E0B2A03D0D8900C36B4
:101870000D360B2EFBD712C00EF0010E0F6E000EB0
:10188000106E0E2A03D0D8900F3610360E2EFBD7CE
:101890000C500F160D5010160F501010D8B412D057
:1018A0001250040DF350B70FD96EDA6A01D81CD06C
:1018B0000500FA6EDE50FD6EDE50FE6EF850FF6ED3
:1018C000FA5012001250040DF350B50FD96EDA6AB7
:1018D00001D80AD00500FA6EDE50FD6EDE50FE6EB5
:1018E000F850FF6EFA501200122A1250800A7B0F35
:1018F000D8B01200B3D713C017F014C018F017C037
:101900000BF018C00CF015C00DF016C00EF09DECD9
:101910000DF00BC017F00CC018F0122A1750181059
:10192000D8A4EDD71250D96EDA6A000EDF6E120617
:1019300013C00BF014C00CF015C00DF016C00EF063
:1019400081EC0EF00B50196E13C00BF014C00CF0AC
:1019500015C00DF016C00EF09DEC0DF00BC013F08D
:101960000CC014F0090E196402D0070E1926300EAF
:1019700019261250D96EDA6A19C0DFFF1206135009
:101980001410D8A4D5D7122A12004150D8A410D0D0
:10199000030E3E18D8B404D0020E3E18D8A402D0CC
:1019A000412A12003E04D8A41200020E416E120019
:1019B0004104D8A412D03B503C10D8A41200020E0F
:1019C0003E18D8A405D0010175A103D0759101D0AE
:1019D0003E50412A000E406E1200020E4118D8A45B
:1019E0000AD044A01200402A0A0E4018D8A41200BF
:1019F000010E3E6ED5D7030E4118D8A412003E50FA
:101A0000D8A41200000E416E120018AE0FD0000EC6
:101A10001C6E000E1D6E800E1E6E16501C5C166E27
:101A200017501D58176E18501E58186E1BAE0FD049
:101A3000000E1C6E000E1D6E800E1E6E19501C5C7A
:101A4000196E1A501D581A6E1B501E581B6E000E30
:101A5000161A000E171A800E181A000E191A000E08
:101A60001A1A800E1B1A1950165C1A5017581B5060
:101A70001858D8B002D0D8901200D8801200720E38
:101A8000F66E1F0EF76E000EF86E00EEB5F010EE5B
:101A90001EF00900F5CFEEFFE550E150FAE1600ECF
:101AA000F66E200EF76E000EF86E0900F5CF46F0C8
:101AB00001EE00F07B0EEE6AE806FDE100EE60F05C
:101AC000550EEE6AE806FDE100EE37F00F0EEE6A05
:101AD000E806FDE147904792000EF86E000113EF13
:101AE0000AF0000E036E3B503C10D8B424D03D5099
:101AF000A2EC0EF03D503926000E3DBEFF0E3A22FC
:101B000084CF02F0D890023202B006D0000E3C6EB4
:101B1000000E3B6E010E036E3B5039180CE13C5039
:101B20003A18D8A408D0000E3C6E000E3B6E010E91
:101B3000036E0101758103501200000E116E000E3C
:101B4000106E0D500E10D8B41CD0010E0F6E04D0C4
:101B5000D8900D360E360F2A0EAEFAD7D890103622
:101B600011360D500B5C0E500C58D8A005D00D50FE
:101B70000B5E0E500C5A1080D8900E320D320F2E84
:101B8000EDD710C00BF011C00CF01200030EF66E72
:101B9000080EF76E0800F5CF77F1010EF66E080E0D
:101BA000F76E0800F5CF76F10C0EF66E080EF76EA4
:101BB0000800F5CF78F10C0EF66E080EF76E0800EF
:101BC000F5CF77F10C0EF66E080EF76E0800F5CF24
:101BD00076F1000E936EC3EC0EF012000D6E0D50F8
:101BE000100DF350690FD96EDA6ADF50D8B41AD0ED
:101BF0000D50100DF350690FD96EDA6ADF500B6E7D
:101C00000B50B00FD96EDA6ADE04D8A40BD00D5099
:101C1000100DF3506B0FD96EDA6A0001DFB002D0FD
:101C2000000E1200010E1200020E3E18D8A403D0BE
:101C300071EC0DF01200030E3E18D8A403D05DEC39
:101C40000EF012003E04D8A41200000E3C6E000EEE
:101C50003B6E01D80BD005000001FA6ED151FD6E2C
:101C6000D251FE6EF850FF6EFA501200000E3E6E1A
:101C700012000600FACF05F0FBCF06F0D9CF07F02F
:101C8000DACF08F0F3CF09F0F4CF0AF0F2A407D0CE
:101C9000458014EC0EF0F294D768D10ED66E0AC0CF
:101CA000F4FF09C0F3FF08C0DAFF07C0D9FF06C080
:101CB000FBFF05C0FAFF47921100000E026E3B5079
:101CC0003C10D8B41CD03D50A2EC0EF03D5039264B
:101CD000000E3DBEFF0E3A223D503726000E3DBE9F
:101CE000FF0E38223B5039180AE13C503A18D8A46C
:101CF00006D0000E3C6E000E3B6E010E026E0250CE
:101D000012000D500E10D8B418D0010E0F6E04D072
:101D1000D8900D360E360F2A0EAEFAD70D500B5C4A
:101D20000E500C58D8A004D00D500B5E0E500C5A1B
:101D3000D8900E320D320F2EF1D70BC00BF00CC025
:101D40000CF01200016E46500124466E4650800A87
:101D50007C0FD8A002D0000E466E46AE02D0030E15
:101D6000466E4650020DF350C90FD96EDA6A01D89B
:101D700012000500FA6EDE50FD6EDE50FE6EF85069
:101D8000FF6EFA501200000E0B6E0B50040DF35054
:101D9000B50FD96EDA6A01D80AD00500FA6EDE50A6
:101DA000FD6EDE50FE6EF850FF6EFA5012000B2AE8
:101DB0000B50800A7B0FD8A0E8D792989296929405
:101DC000929292901200225023102410D8B406D080
:101DD000000E221A000E231A800E241A1FC013F0C0
:101DE00020C014F021C015F022C016F023C017F057
:101DF00024C018F06FEC08F013C01FF014C020F0DE
:101E000015C021F01200000E166E14AE06D0136C31
:101E1000141ED8B0142A010E166E13C00BF014C095
:101E20000CF00D6A8E0E0E6E16C00FF0D4EC0BF097
:101E30000BC013F00CC014F00DC015F01200000E12
:101E40000B6E4350D8A405D08D90000E426E432AED
:101E50000ED04304D8B444A00AD0422A640E4218DB
:101E6000D8A405D0000E426E8D80010E0B6E0B5073
:101E700012001CAE0AD01A50D96EDA6A2D0EDF6E2F
:101E80001A2A1B6C1C1ED8B01C2A1AC012F01BC0C8
:101E900013F01CC014F01DC015F01EC016F07BEC32
:101EA0000CF0120011501210D8B4120012BE05D05E
:101EB000000E146E010E136E02D01368146813C066
:101EC0003DF0000E3A6E000E396E11C03BF012C0AC
:101ED0003CF01200156E15500B6E0C6A0BBE0C0612
:101EE000000E0E6EC80E0D6E81EC0FF037500B5CBD
:101EF000116E38500C58126E52EC0FF0030E3E6EFD
:101F000012000B500D02F3CF0FF0F4CF10F00B5076
:101F10000E02F35010260C500D02F35010260FC085
:101F20000BF010C00CF01200760E3F24D96EDA6A66
:101F3000010EDA22DF508A6E3F502BEC0CF03F2A64
:101F4000050E3F18D8A41200000E3F6E120013C0F9
:101F50000BF014C00CF00D6A8E0E0E6E000E0F6E9C
:101F6000D4EC0BF00BC013F00CC014F00DC015F046
:101F700012005820542050204C204820442040205B
:101F80003C2038205C202C20262020203220FA1FE4
:101F9000000E0B6E0B50100DF3506A0FD96EDA6AFB
:101FA0000001DF9C0B2A040E0B64F4D712000B6EA9
:101FB0000B50100DF3506A0FD96EDA6A0001DFACD6
:101FC00002D0010E1200000E1200F10E126EDC0E95
:101FD000116E52EC0FF0020E3E6E120043EC09F04F
:101FE00007EC04F012008244E846030B010B1200D8
:101FF0008238E842070B010B12008C908C928C9473
:102000008C96120082380F0B010B120083380F0BD5
:10201000010B12008244010B1200C8EC0FF01200F9
:10202000020E8C6E1200040E8C6E1200080E8C6E66
:102030001200010E8C6E120089801200899212002B
:1020400089821200899412008984120089961200F4
:1020500089861200899812008988120089901200DE
:01206000FF80
:020000040020DA
:08000000FFFFFFFFFFFFFFFF00
:020000040030CA
:0E000000240E381EFF8181FF0FC00FE00F405D
:00000001FF
