:0400000007EF00F016
:0A000800538212ED12F001EF11F027
:10080000003F065B4F666D7C077F6716202E440015
:100810004000000E236E2350100DF350660FD96E6A
:10082000DA6ADF50D8A48BD02350ECEC11F0000929
:10083000D8B485D02350100DF3506A0FD96EDA6A00
:100840000001DFA07CD02350100DF3506A0FD96E49
:10085000DA6ADFA21FD02350100DF3506A0FD96E51
:10086000DA6ADF8C2350100DF3506A0FD96EDA6A02
:10087000DFAA08D02350100DF350660FD96EDA6A44
:10088000060E37D02350100DF350660FD96EDA6A7A
:10089000010E2FD02350100DF3506A0FD96EDA6A73
:1008A000DFA408D02350100DF350660FD96EDA6A1A
:1008B000050E1FD02350100DF3506A0FD96EDA6A5F
:1008C000DFA608D02350100DF350660FD96EDA6AF8
:1008D000030E0FD02350100DF3506A0FD96EDA6A51
:1008E000DFA808D02350100DF350660FD96EDA6AD6
:1008F000040EDF6E2350100DF3506B0FD96EDA6AC1
:10090000DF822350100DF350690FD96EDA6ADF5081
:10091000D8B415D02350100DF350690FD96EDA6A90
:10092000DF501F6E1F50B80FD96EDA6A010EDF6EEE
:100930002350100DF3506B0FD96EDA6ADF8023500D
:10094000100DF350660FD96EDA6A050EDF6424D0FD
:100950002350100DF350660FD96EDA6A090EDF606E
:100960001BD02350100DF3506A0FD96EDA6A0001C4
:10097000DFB012D02350100DF350670FD96EDA6A32
:10098000000EDE6E000EDD6E2350100DF350660F6C
:10099000D96EDA6A020EDF6E2350100DF350660F27
:1009A000D96EDA6A060EDE18D8A427D02350100DAF
:1009B000F3506C0FD96EDA6A2350100DF350670FA5
:1009C000E16EE26AE62A000EE522DE50E65CDE50C9
:1009D000E658D8A012D02350100DF350670FD96EEF
:1009E000DA6A000EDE6E000EDD6E2350100DF3503D
:1009F000660FD96EDA6A070EDF6E2350100DF350C2
:100A0000660FD96EDA6A070EDE18D8A418D0235004
:100A1000100DF3506A0FD96EDA6A0001DFBC0FD0F7
:100A20002350100DF3506A0FD96EDA6ADF8C235011
:100A3000100DF350660FD96EDA6A080EDF6E235080
:100A4000100DF350660FD96EDA6A080EDE18D8A4BE
:100A500027D02350100DF3506E0FD96EDA6A235051
:100A6000100DF350670FE16EE26AE62A000EE522F0
:100A7000DE50E65CDE50E658D8A012D02350100DB0
:100A8000F350670FD96EDA6A000EDE6E000EDD6E6F
:100A90002350100DF350660FD96EDA6A070EDF6E21
:100AA0002350100DF350660FD96EDA6A050EDE186A
:100AB000D8A418D02350100DF3506A0FD96EDA6AFB
:100AC0000001DFB00FD02350100DF3506A0FD96E24
:100AD000DA6ADF8C2350100DF350660FD96EDA6A94
:100AE000020EDF6E2350100DF350660FD96EDA6AD6
:100AF000030EDE18D8A49CD02350100DF350670FBE
:100B0000D96EDA6ADE2A000EDD222350100DF35072
:100B10006A0FD96EDA6A0001DFB03DD0000E166EA2
:100B2000480E176E430E186E2350100DF350670FCA
:100B3000D96EDA6ADECF13F0DDCF14F0E6EC13F0F5
:100B400013C019F014C01AF015C01BF093EC10F08C
:100B5000D8A021D02350100DF350670FD96EDA6A58
:100B6000000EDE6E000EDD6E2350100DF3506A0F86
:100B7000D96EDA6A0001DF8C2350100DF3506A0F32
:100B8000D96EDA6ADF9E2350100DF350660FD96ECE
:100B9000DA6A020EDF6E000E166E480E176E430EF6
:100BA000186E2350100DF350670FD96EDA6ADECF3E
:100BB00013F0DDCF14F0E6EC13F013C019F014C0FD
:100BC0001AF015C01BF093EC10F0D8B031D02350C0
:100BD000100DF350670FD96EDA6A000EDE6E000E4C
:100BE000DD6E2350100DF3506A0FD96EDA6A0001E2
:100BF000DF8C2350100DF3506A0FD96EDA6ADF8E46
:100C00002350100DF3506A0FD96EDA6ADFBA08D09C
:100C10002350100DF350660FD96EDA6A010E07D01B
:100C20002350100DF350660FD96EDA6A080EDF6E8E
:100C30002350100DF350660FD96EDA6A040EDE18D9
:100C4000D8A48CD02350100DF350670FD96EDA6AF8
:100C5000DE2A000EDD222350100DF3506A0FD96EEC
:100C6000DA6A0001DFB03DD0000E166E480E176E36
:100C7000430E186E2350100DF350670FD96EDA6AC9
:100C8000DECF13F0DDCF14F0E6EC13F013C019F053
:100C900014C01AF015C01BF093EC10F0D8A021D0AE
:100CA0002350100DF350670FD96EDA6A000EDE6E16
:100CB000000EDD6E2350100DF3506A0FD96EDA6A04
:100CC0000001DF8C2350100DF3506A0FD96EDA6AE1
:100CD000DF9E2350100DF350660FD96EDA6A020EB4
:100CE000DF6E2350100DF350670FD96EDA6ADECF36
:100CF00013F0DDCF14F0E6EC13F013C016F014C0BF
:100D000017F015C018F0000E196E160E1A6E440E6C
:100D10001B6E93EC10F0D8A021D02350100DF3508F
:100D2000670FD96EDA6A000EDE6E000EDD6E23509C
:100D3000100DF3506A0FD96EDA6A0001DF8C235070
:100D4000100DF3506A0FD96EDA6ADF8E2350100D42
:100D5000F350660FD96EDA6A010EDF6E2350100D64
:100D6000F350660FD96EDA6ADE04D8A411D023508E
:100D7000100DF3506A0FD96EDA6A0001DFB008D0A7
:100D80002350100DF350660FD96EDA6A020EDF6E33
:100D90002350100DF350660FD96EDA6A020EDE187A
:100DA000D8A411D02350100DF3506A0FD96EDA6A0F
:100DB0000001DFBC08D02350100DF350660FD96E30
:100DC000DA6A090EDF6E2350100DF350660FD96EEC
:100DD000DA6A090EDE18D8A42FD02350100DF35074
:100DE000690FD96EDA6ADF50D8B416D02350100DCF
:100DF000F350690FD96EDA6ADF501F6E1F50B80FBB
:100E0000D96EDA6A000EDF6E2350100DF3506B0FAF
:100E1000D96EDA6A0001DF902350100DF350660F8F
:100E2000D96EDA6A000EDF6E2350100DF3506B0F8F
:100E3000D96EDA6A0001DF92232A040E2364EBD410
:100E40001200000E286E000E29EC14F00009D8B430
:100E50000DD0000E51EC14F0482A4850800A770F4C
:100E6000D8A002D0000E486E010E476E010E29EC8C
:100E700014F00009D8B40AD0010E51EC14F0480661
:100E800048AE02D0080E486E010E476E020E29ECE5
:100E900014F00009D8B484D04850800A780FD8B034
:100EA00067D04850060D060EF324D96E010EF420CB
:100EB000DA6EDE50DE10DE10D8A40FD04850060DDA
:100EC000060EF324D96E010EF420DA6E9A0EDE6E51
:100ED000990EDE6E3E0EDE6E24D04850060D060ED4
:100EE000F324D96E010EF420DA6EDECF13F0DECFDC
:100EF00014F0DDCF15F0CD0E166ECC0E176E3D0E34
:100F0000186E7FEC09F04850060D060EF324D96EDA
:100F1000010EF420DA6E13C0DEFF14C0DEFF15C030
:100F2000DEFF4850060D060EF324D96E010EF420A4
:100F3000DA6EDECF16F0DECF17F0DDCF18F0000E40
:100F4000196E400E1A6E410E1B6E93EC10F0D8A075
:100F500022D04850060D060EF324D96E010EF4205F
:100F6000DA6E000EDE6E400EDE6E410EDE6E13D0C7
:100F70000101362B3651800A7C0FD8A002D0000E1A
:100F8000366F36510B0F256E25C0F6FF080EF76E33
:100F90000800F5CF37F1010E476E020E51EC14F048
:100FA000030E29EC14F00009D8B48ED04850800A02
:100FB000780FD8B074D04850060D060EF324D96EC1
:100FC000010EF420DA6EDECF1FF0DECF20F0DDCF91
:100FD00021F0CD0E226ECC0E236E3D0E246E06EC5B
:100FE00013F04850060D060EF324D96E010EF420BE
:100FF000DA6E1FC0DEFF20C0DEFF21C0DEFF4850DA
:10100000D8A426D04850060D060EF324D96E010E42
:10101000F420DA6EDECF16F0DECF17F0DDCF18F059
:101020009A0E196E990E1A6E3E0E1B6E93EC10F00E
:10103000D8B045D04850060D060EF324D96E010EE7
:10104000F420DA6E9A0EDE6E990EDE6E3E0E25D01C
:101050004850060D060EF324D96E010EF420DA6E08
:10106000DECF16F0DECF17F0DDCF18F09A0E196E36
:10107000990E1A6E3E0E1B6E93EC10F0D8B01FD076
:101080004850060D060EF324D96E010EF420DA6ED8
:10109000000EDE6E000EDE6E000EDE6E10D0010160
:1010A000360736AF02D0030E366F36510B0F256E62
:1010B00025C0F6FF080EF76E0800F5CF37F1010ED8
:1010C000476E030E51EC14F0040E29EC14F00009E5
:1010D000D8B405D0010E286E040E51EC14F028503F
:1010E0001200000E0001FB6F800EFC6F3F0EFD6FC3
:1010F00033C0FEF014D0FBC013F0FCC014F0FDC0F0
:1011000015F0000E166E200E176E410E186E5BEC79
:101110000CF013C0FBF014C0FCF015C0FDF0000192
:10112000FE07FE29D8A4E7D734C016F035C017F063
:1011300036C018F0FBC019F0FCC01AF0FDC01BF05F
:1011400093EC10F0D8A014D0FBC013F0FCC014F046
:10115000FDC015F0000E166E800E176EBF0E186ED5
:101160007FEC09F013C034F014C035F015C036F030
:1011700031C00BF032C00CF033C00DF026EC13F090
:10118000000E0001FB6F800EFC6F3F0EFD6F000E26
:10119000FE6F74D034C016F035C017F036C018F0AA
:1011A000FBC019F0FCC01AF0FDC01BF093EC10F06E
:1011B000D8B04ED00001FE51800A376E3350800AFD
:1011C000375CD8B036D0000E166E200E176E410E6A
:1011D000186E34C013F035C014F036C015F05BEC57
:1011E0000CF013C022F014C023F015C024F0D5EC8D
:1011F0000CF022C0F8F023C0F9F00001FE51D8A491
:101200000DD0010EF66E080EF76E20EE01F0315093
:10121000D9263250DA220800F5CFDFFF20EE01F0A8
:101220003150D9263250DA22000EDB8EFEC0FAF0A1
:101230002DD034C022F035C023F036C024F0D5ECD8
:101240000CF022C0F8F023C0F9F00001FE05FA6F9F
:10125000FBC013F0FCC014F0FDC015F0000E166EBC
:10126000200E176E410E186E5BEC0CF013C0FBF0F5
:1012700014C0FCF015C0FDF00001FE2B3350800AB5
:10128000376EFE51800A375CD8B084D7EE0E1A6EE6
:10129000F8C01BF0F9C01CF0000E1E6E0A0E1D6E89
:1012A00045EC13F0000E0001FE6F21D0FE51EE0F51
:1012B000D96EDA6ADF50376ED00E37263750010FFD
:1012C000386E38C0F6FF080EF76E0800F5CF39F01B
:1012D000FAC03AF03B6A3ABE3B063A503124D96E26
:1012E0003B503220DA6E3950DF12FA07FE2BFE51E6
:1012F000EE0FD96EDA6ADF50D8B41200D7D715C016
:1013000019F01A6A1B6A1434193601E31A8019504D
:101310001E6E18C019F01A6A1B6A1734193601E3D9
:101320001A8019501D6E1E50D8B40AD01D501E5C74
:10133000D8B00DD01E501D5C196E180E196407D060
:1013400016C013F017C014F018C015F012001D508D
:10135000D8B40AD01E501D5CD8B00DD01D501E5CF4
:10136000196E180E196407D013C013F014C014F0CE
:1013700015C015F01200060E1C6E15BE1C8E18BE90
:101380001C8C148EFF0E1316FF0E1416000E15166D
:10139000178EFF0E1616FF0E1716000E18161D508C
:1013A0001E5CD8B01BD0D8901636173618361D06DE
:1013B0001E501D18D8B40DD01C061CC019F0070E05
:1013C0001916D8B406D0EFD7D8901532143213328C
:1013D0001E2A1D501E18D8B41FD0F6D71E501D5CF3
:1013E000D8B01AD0D8901336143615361E061E50B3
:1013F0001D18D8B40DD01C061CC019F0070E191604
:10140000D8B406D0EFD7D8901832173216321D2A2A
:101410001D501E18D8A4F7D71CAE0CD0FF0E131AFF
:10142000FF0E141AFF0E151A010E1326000E1422B9
:10143000000E15221CAC0CD0FF0E161AFF0E171A48
:10144000FF0E181A010E1626000E1722000E182283
:10145000000E1C6E13501626145017221550182219
:1014600018AE0ED0FF0E161AFF0E171AFF0E181A1E
:10147000010E1626000E1722000E1822010E1C6EF9
:1014800016C00BF017C00CF018C00DF01EC00EF007
:101490001CC00FF099EC0DF00BC013F00CC014F051
:1014A0000DC015F01200040E0C6E0C50100DF35010
:1014B000640FD96EDA6ADF50D8A416D00C50100D24
:1014C000F350600FD96EDA6A01D80AD00500FA6EBF
:1014D000DE50FD6EDE50FE6EF850FF6EFA501200C8
:1014E0000009D8A4ACD041D00C50100DF350640FBB
:1014F000D96EDA6ADE04D8A440D00C50100DF35037
:10150000650FD96EDA6ADF2A040EDE18D8A497D0E8
:101510000C50100DF350650FD96EDA6A000EDF6EB5
:101520000C50100DF350600FD96EDA6A01D80AD052
:101530000500FA6EDE50FD6EDE50FE6EF850FF6E56
:10154000FA5012000009D8B408D00C50100DF35016
:10155000640FD96EDA6ADF0672D00C50100DF350AA
:101560006A0FD96EDA6A0001DF800C50100DF3505B
:10157000640FD96EDA6ADF2A62D00C50100DF35076
:10158000640FD96EDA6A020EDE18D8A416D00C5099
:10159000100DF350600FD96EDA6A01D80AD0050039
:1015A000FA6EDE50FD6EDE50FE6EF850FF6EFA50A1
:1015B0001200E806D8B4D9D742D00C50100DF35021
:1015C000640FD96EDA6A030EDE18D8A438D00C5036
:1015D000100DF350650FD96EDA6ADF2A040EDE189B
:1015E000D8A42DD00C50100DF350650FD96EDA6AC7
:1015F000000EDF6E0C50100DF350600FD96EDA6ADA
:1016000001D80AD00500FA6EDE50FD6EDE50FE6E87
:10161000F850FF6EFA501200E806D8A496D70C5086
:10162000100DF3506A0FD96EDA6A0001DF900C508A
:10163000100DF350640FD96EDA6A000EDF6E0C06DF
:101640000CBE120032D7000E416E000E426E000E2C
:10165000896E000E8B6E000E8C6E000E8D6E000E6D
:101660008A6E0F0EC16ECF0EB46E000E6D6E080E38
:101670006F6E870ED56ED768D10ED66EF28A8D80CA
:10168000969095909592959495968B929492968239
:10169000948096843EEC0DF094EC11F064EC11F023
:1016A0000001CB81CB83CB95000E8EEC13F0000EA6
:1016B000516E010E0001CA6F010EBE6FF28ECCA1F9
:1016C00002D0CC91BD81BDA113D0412A140E411886
:1016D000D8A405D0000E416ECBB196EC14F0422A8E
:1016E000030E4218D8A404D0000E426EE3EC0FF0B3
:1016F0000001CA05D8A43DD0CBA320D040EC0EF009
:10170000436E4304D8A407D0020E0001BE6F010E41
:10171000516ECB8513D0020E4318D8A40FD0010E02
:101720000001B76F020ECA6F030EBE6F020E516E3C
:10173000CB95CB93000E8AEC14F0898A0001CBA5DF
:101740002ED0BDEC13F0436E4304D8A40AD0010E92
:101750000001BE6F000E516ECB95010E8EEC13F0A2
:101760001ED0020E4318D8A41AD0020E0001CA6F70
:1017700016D0020ECA19D8A412D0A6EC13F0000994
:10178000D8B40DD0010E0001BE6F000E516ECB8398
:10179000000E8EEC13F0010E0001CA6F899ACDEC99
:1017A00010F021EC0FF00001BD9189D7000E366ECC
:1017B000010E356E22C037F00ED035C00BF036C0AA
:1017C0000CF0000E0E6E0A0E0D6ED3EC13F00BC073
:1017D00035F00CC036F037063728D8A4EED7355090
:1017E000235C2450800A256E3650800A2558D8A0E4
:1017F00006D0FF0E3524236EFF0E3620246E2A0EEF
:101800001A6E23C01BF024C01CF0000E1E6E0A0EC0
:101810001D6E45EC13F0000E376E13D00F0EF66EF2
:10182000080EF76E37C025F0266A25BE260625501D
:101830002024D96E26502120DA6E0800F5CFDFFF74
:10184000372A3750800A256E2250800A255CD8A09E
:10185000E5D7000E376E2A0E0B6EF8EC13F00B0472
:10186000346E21D037502A0FD96EDA6ADF50256ED8
:10187000D00E25262550010F266E26C0F6FF080E35
:10188000F76E0800F5CF27F034C028F0296A28BE8B
:10189000290628502024D96E29502120DA6E27509D
:1018A000DF123406372A37502A0FD96EDA6ADF5032
:1018B000D8B41200D7D715C019F01A6A1B6A1434AD
:1018C000193601E31A8019501C6E1C50D8A407D099
:1018D000000E136E000E146E000E156E120018C06E
:1018E00019F01A6A1B6A1734193601E31A80195065
:1018F000216E2150D8A407D0000E136E000E146E76
:10190000000E156E120021507B0F1C2615C021F011
:101910001850211A800E2116148E178EFF0E1616DF
:10192000FF0E1716000E1816000E1D6E000E1E6E0E
:10193000000E1F6E070E206E13A006D016501D2637
:1019400017501E2218501F22D8901532143213320D
:10195000D890163617361836202EEED7090E206E80
:1019600013A006D016501D2617501E2218501F22F5
:10197000D890153214321332D8901F321E321D32D5
:10198000202EEED71DC00BF01EC00CF01FC00DF0B6
:101990001CC00EF021C00FF099EC0DF00BC013F03D
:1019A0000CC014F00DC015F0120024C026F0276AF8
:1019B000286A2334263601E327802650306E3050C3
:1019C000D8A409D0000E226E000E236E000E246EE5
:1019D000000E256E1200170E266E22C027F023C0BF
:1019E00028F024C029F026282A6E04D0D890293265
:1019F000283227322A2EFAD727502B6E238EFF0E3D
:101A00002216FF0E2316000E241622502C6E235091
:101A10002D6E24502E6E2F6A8E0E305E30AE0DD09D
:101A20003050800A8F0FD8A0CDD7D8902F322E32C9
:101A30002D322C32303EF9D70DD0170E306407D03E
:101A4000C1D7D8902C362D362E362F363006305052
:101A5000D8A4F7D72B50D8B408D02F1E2E1E2D1E79
:101A60002C6C000E2D222E222F222CC022F02DC0F5
:101A700023F02EC024F02FC025F012009488948A01
:101A8000948C948E9588860E0001606F290E616F8C
:101A9000400E706F290E716F360E806F290E816FA8
:101AA000960E906F290E916F8E0EA06F290EA16F6A
:101AB000000E0B6E0B50100DF3506A0FD96EDA6AE0
:101AC000DF820B50100DF3506A0FD96EDA6ADF9483
:101AD0000B50100DF3506A0FD96EDA6ADF960B5077
:101AE000100DF3506A0FD96EDA6ADF9A0B50100DA1
:101AF000F350690FD96EDA6A000EDF6E0B50100DCD
:101B0000F3506C0FD96EDA6A640EDE6E000EDD6E75
:101B10000B50100DF3506E0FD96EDA6A280EDE6E80
:101B2000000EDD6E0B2A0B50800A7B0FD8B012001E
:101B3000C1D70E50D8B405D00B500C100D10D8A43E
:101B40000CD0000E0B6E000E0C6E000E0D6E12000F
:101B50000E2AD8900D320C320B32000E0B14106E80
:101B6000000E0C14116EFE0E0D14126E105011109A
:101B70001210D8B40CD0ECD70E2A010E0B26000E92
:101B80000C22000E0D22D8900D320C320B32000EBA
:101B90000B14106E000E0C14116EFF0E0D14126E4D
:101BA000105011101210D8B406D0E6D70E06D890F7
:101BB0000B360C360D360CBE03D0020E0E60F6D777
:101BC0000EA00C9ED8900E320E500D120F50D8A4BD
:101BD0000D8E0BC00BF00CC00CF00DC00DF0120000
:101BE000116E000E126E11C00BF0010E0C6E000E85
:101BF0000D6E0B2A03D0D8900C360D360B2EFBD76A
:101C000012C00EF0010E0F6E000E106E0E2A03D0E1
:101C1000D8900F3610360E2EFBD70C500F160D50E5
:101C200010160F501010D8B412D01250040DF350EB
:101C3000CF0FD96EDA6A01D81CD00500FA6EDE50DB
:101C4000FD6EDE50FE6EF850FF6EFA50120012501C
:101C5000040DF350CD0FD96EDA6A01D80AD0050011
:101C6000FA6EDE50FD6EDE50FE6EF850FF6EFA50DA
:101C70001200122A1250800A7B0FD8B01200B3D77C
:101C8000000E216EBE05D8A403D0A6EC0FF0216E85
:101C90004C50D8A404D05BEC14F04C2A3ED04C0439
:101CA000D8A406D07DEC14F00009D8A4F6D735D01E
:101CB000020E4C18D8A416D04B501F6E206A1FBEBF
:101CC00020065CEC12F00009D8B404D04B505EEC56
:101CD00013F04C2A4B2A080E4B18D8A41ED0000E25
:101CE0004B6E1BD0030E4C18D8A40CD07DEC14F016
:101CF0000009D8B412D0000E0C6E010E0B6EA5ECCC
:101D000014F0CBD7040E4C18D8A407D075EC14F0FF
:101D10000009D8B402D0020E4C6E2150120013C03C
:101D200017F014C018F017C00BF018C00CF015C055
:101D30000DF016C00EF0C3EC11F00BC017F00CC084
:101D400018F0122A17501810D8A4EDD71250D96ED7
:101D5000DA6A000EDF6E120613C00BF014C00CF02E
:101D600015C00DF016C00EF0A4EC12F00B50196E59
:101D700013C00BF014C00CF015C00DF016C00EF01F
:101D8000C3EC11F00BC013F00CC014F0090E196471
:101D900002D0070E1926300E19261250D96EDA6AB3
:101DA00019C0DFFF120613501410D8A4D5D7122A79
:101DB0001200000E0C6E000E29EC14F00009D8B4CD
:101DC00010D0000E51EC14F04A2A4A50800A770FC6
:101DD000D8A005D0000E4A6E010E0C6E02D0010E86
:101DE000496E010E29EC14F00009D8B40DD0010E93
:101DF00051EC14F04A064AAE05D0080E4A6E010EA8
:101E00000C6E02D0010E496E020E29EC14F000098E
:101E1000D8B403D0020E51EC14F0030E29EC14F0E8
:101E20000009D8B403D0030E51EC14F0040E29ECD1
:101E300014F00009D8B403D0040E51EC14F00C5087
:101E400012005050D8A411D0030E0001B719D8B415
:101E500004D0020EB719D8A402D0502A1200B70538
:101E6000D8A41200030E506E12005004D8A413D050
:101E70000001B451B511D8A41200020EB719D8A4AC
:101E800005D001013BA103D03B9101D0B751502AAD
:101E9000000E4F6E1200020E5018D8A40DD0000193
:101EA000BDA112004F2A0A0E4F18D8A41200000E2E
:101EB0004F6E010EB76FD1D7030E5018D8A4120081
:101EC0000001B751D8A41200000E506E1200000E8F
:101ED000226E000E236E000E246E000E266E000E83
:101EE000256E22C013F023C014F024C015F025C0C5
:101EF0000BF026C00CF0000E0E6E060E0D6ED3EC2D
:101F000013F0060E0B24D96E010E0C20DA6EDECF14
:101F100016F0DECF17F0DDCF18F07FEC09F013C01C
:101F200022F014C023F015C024F0254A262A26BE2C
:101F3000D8D7265004E1080E255CD8A0D2D722C0FD
:101F40001FF023C020F024C021F01200000E0C6E00
:101F5000000E29EC14F00009D8B408D0000E51ECA2
:101F600014F0000E90EC14F0010E0C6E010E29EC32
:101F700014F00009D8B408D0010E51EC14F0080E8A
:101F800090EC14F0010E0C6E020E29EC14F0000916
:101F9000D8B403D0020E51EC14F0030E29EC14F067
:101FA0000009D8B403D0030E51EC14F0040E29EC50
:101FB00014F00009D8B405D0020E0C6E040E51ECDA
:101FC00014F00C5012004D04156E15AE02D0040E24
:101FD000156E1550040DF350CD0FD96EDA6A01D885
:101FE0000AD00500FA6EDE50FD6EDE50FE6EF8502F
:101FF000FF6EFA5012004D50800A7D0FD8B007D006
:102000003C0E4D24D96EDA6A010EDA220BD04DC097
:1020100013F0146A13BE14063C0E1324D96E010E7D
:102020001420DA6EDF508A6E4D50F0EC0DF04D2A20
:10203000050E4D18D8A41200000E4D6E12003F6E12
:102040003F50800A780FD8B02AD0010E3F24386E56
:10205000E86AD8B0E82A3FBEE806396E44EC14F0CE
:102060003F50060D060EF324D96E010EF420DA6EF1
:10207000DECF3CF0DECF3DF0DDCF3EF03C503D10FA
:102080003E10D8A403D06DEC14F012003CC041F116
:102090003DC042F13EC043F11AEC14F0120084EC52
:1020A00014F03751386E396A38BE390637EC14F0FF
:1020B00012003F6E3F50800A780FD8B02AD0010E30
:1020C0003F24386EE86AD8B0E82A3FBEE806396E89
:1020D00044EC14F03F50060D060EF324D96E010EA9
:1020E000F420DA6EDECF3CF0DECF3DF0DDCF3EF007
:1020F0003C503D103E10D8A403D06DEC14F01200FB
:102100003CC041F13DC042F13EC043F11AEC14F035
:10211000120084EC14F03751386E396A38BE390633
:1021200037EC14F0120018AE0FD0000E1C6E000E2B
:102130001D6E800E1E6E16501C5C166E17501D58BC
:10214000176E18501E58186E1BAE0FD0000E1C6E66
:10215000000E1D6E800E1E6E19501C5C196E1A50FA
:102160001D581A6E1B501E581B6E000E161A000EBC
:10217000171A800E181A000E191A000E1A1A800E5D
:102180001B1A1950165C1A5017581B501858D8B003
:1021900002D0D8901200D880120044504510D8B414
:1021A00012004650D8A405D08D90000E4E6E462ADF
:1021B00012004604D8A40DD00001BDA112004E2A81
:1021C000320E4E18D8A41200000E4E6E462A8D8094
:1021D0001200020E4618D8A412000001BDA1120080
:1021E0004E2A320E4E18D8A41200000E4E6E000E6B
:1021F000466E4406D8A0450644504510D8B4120097
:102200001200120EF66E280EF76E000EF86E00EE3B
:10221000CDF010EE21F00900F5CFEEFFE550E150D2
:10222000FAE1C40EF66E290EF76E000EF86E090084
:10223000F5CF52F001EE00F0410EEE6AE806FDE146
:1022400000EE60F06D0EEE6AE806FDE100EE44F08F
:102250000E0EEE6AE806FDE153905392000EF86E02
:10226000000123EF0BF0000E036EB451B511D8B48A
:1022700029D0B651C5EC12F00001B651B227000EBC
:10228000B6BFFF0EB32384CF02F0D890023202B063
:102290000AD0000EB56F000EB46F000EB16F000EC5
:1022A000B06F010E036EB451B2190CE1B551B31900
:1022B000D8A408D0000EB56F000EB46F010E036EE7
:1022C00001013B8103501200000E0101036F3C0E1F
:1022D000026F000E0B6E0B50060D060EF324D96E26
:1022E000010EF420DA6E9A0EDE6E190EDE6E400ECE
:1022F000DE6E0B2A0B50800A780FD8A0ECD70B0E9D
:10230000F66E080EF76E0800F5CF37F1000E0101EA
:10231000186F000E196F000E1A6F000E246F000E5A
:10232000256F000E266F1200000E0C6E0F0EF66E5B
:10233000080EF76E3F0E0C24D96EDA6A010EDA220F
:102340000800F5CFDFFF0C2A0C50800A7E0FD8A0C2
:10235000EDD7000E0C6E0F0EF66E080EF76E3C0EEB
:102360000C24D96EDA6A010EDA220800F5CFDFFFFD
:102370000C2A0C50800A7D0FD8A0EDD7000E936E6A
:10238000E6EC12F01200000E116E000E106E0D50F1
:102390000E10D8B41CD0010E0F6E04D0D8900D369C
:1023A0000E360F2A0EAEFAD7D890103611360D50D1
:1023B0000B5C0E500C58D8A005D00D500B5E0E5083
:1023C0000C5A1080D8900E320D320F2EEDD710C05F
:1023D0000BF011C00CF012000D6E0D50100DF350EB
:1023E000690FD96EDA6ADF50D8B41AD00D50100DCB
:1023F000F350690FD96EDA6ADF500B6E0B50B80FCD
:10240000D96EDA6ADE04D8A40BD00D50100DF3504B
:102410006B0FD96EDA6A0001DFB002D0000E120035
:10242000010E12000600FACF05F0FBCF06F0D9CF5F
:1024300007F0DACF08F0F3CF09F0F4CF0AF0F2A4F6
:1024400008D00001CC8180EC12F0F294D768D10E54
:10245000D66E0AC0F4FF09C0F3FF08C0DAFF07C058
:10246000D9FF06C0FBFF05C0FAFF53921100000E12
:10247000026EB451B511D8B41DD0B651C5EC12F0EE
:102480000001B651B227000EB6BFFF0EB323B651FE
:10249000B027000EB6BFFF0EB123B451B2190AE146
:1024A000B551B319D8A406D0000EB56F000EB46FA5
:1024B000010E026E02501200000E166E000E176E14
:1024C000000E186E1FC00BF020C00CF0000E0E6E38
:1024D000060E0D6ED3EC13F0060E0B24D96E010E12
:1024E0000C20DA6EDECF19F0DECF1AF0DDCF1BF054
:1024F00093EC10F0D8B002D0010E1200000E1200C2
:10250000020EB719D8A403D033EC11F01200030E59
:10251000B719D8A403D037EC12F01200B705D8A42D
:102520001200000EB56F000EB46F01D80AD005007E
:10253000FA6EEC51FD6EED51FE6EF850FF6EFA50E2
:102540001200000EB76F12000D500E10D8B418D044
:10255000010E0F6E04D0D8900D360E360F2A0EAE37
:10256000FAD70D500B5C0E500C58D8A004D00D506B
:102570000B5E0E500C5AD8900E320D320F2EF1D742
:102580000BC00BF00CC00CF01200016E5250012475
:10259000526E5250800A7C0FD8A002D0000E526EAC
:1025A00052AE02D0030E526E5250020DF350E10FA4
:1025B000D96EDA6A01D812000500FA6EDE50FD6E9F
:1025C000DE50FE6EF850FF6EFA501200000E0B6ED9
:1025D0000B50040DF350CD0FD96EDA6A01D80AD032
:1025E0000500FA6EDE50FD6EDE50FE6EF850FF6E96
:1025F000FA5012000B2A0B50800A7B0FD8A0E8D7A4
:102600009298929692949292929012002250231055
:102610002410D8B406D0000E221A000E231A800E01
:10262000241A1FC013F020C014F021C015F022C0DE
:1026300016F023C017F024C018F07FEC09F013C087
:102640001FF014C020F015C021F01200000E106E13
:1026500013D00F0EF66E080EF76E10C00EF00F6A54
:102660000EBE0F060E500B24D96E0F500C20DA6EE2
:102670000800F5CFDFFF102A1050800A0E6E0D50B3
:10268000800A0E5CD8B01200E4D71CAE0AD01A50F3
:10269000D96EDA6A2D0EDF6E1A2A1B6C1C1ED8B09A
:1026A0001C2A1AC012F01BC013F01CC014F01DC06D
:1026B00015F01EC016F08FEC0EF01200156E1550BE
:1026C0000B6E0C6A0BBE0C06000E0E6EC80E0D6E65
:1026D000D3EC13F00001B0510B5C116EB1510C58EA
:1026E000126E76EC13F0030EB76F12001150121039
:1026F000D8B4120012BE05D0000E146E010E136E77
:1027000002D01368146813C0B6F0000EB36F000E49
:10271000B26F11C0B4F012C0B5F012003C6E51504F
:10272000D8A40CD064EC14F067EC0FF01FC041F19A
:1027300020C042F121C043F11AEC14F03C50D8A45F
:102740001200000E4B6E000E4C6E1200000E406E1A
:10275000030EBE19D8A403D021EC07F0406E470445
:10276000D8A409D0020E5118D8A403D0485059EC6F
:1027700010F0000E476E40501200000E406E020E28
:10278000BE19D8A403D0D9EC0EF0406E4904D8A4E9
:1027900008D05104D8A403D04A501FEC10F0000E0A
:1027A000496E405012000B500D02F3CF0FF0F4CFE2
:1027B00010F00B500E02F35010260C500D02F35087
:1027C00010260FC00BF010C00CF0120013C00BF05D
:1027D00014C00CF00D6A8E0E0E6E000E0F6E99EC8A
:1027E0000DF00BC013F00CC014F00DC015F012006A
:1027F0000BC00DF001D00D2A0D50D96EDA6ADF50F2
:10280000D8A4F9D70B500D5C0B6E0C6A0BBE0C06EE
:102810001200BC29B829B429B029AC29A829A429B7
:10282000A0299C29C02968295E2954297229CDCC68
:032830003D7C29C3
:102834003C0E316E010E326E030E336E41C134F024
:1028440042C135F043C136F071EC08F012000B6E52
:102854000B50100DF3506A0FD96EDA6A0001DFAC29
:1028640002D0010E1200000E12003C0E206E010E6A
:10287400216E030E226E38C023F039C024F0D6EC4A
:102884000BF012003F0E206E010E216E020E226E1E
:1028940038C023F039C024F0D6EC0BF012000B6ED4
:1028A4000B50100DF3506A0FD96EDA6A0001DF9CE9
:1028B4001200F10E126EDC0E116E76EC13F0020EA5
:1028C400B76F12003F0E0B6E010E0C6E020E0D6EF2
:1028D40026EC13F012003F0E01013E6F710E3D6FA6
:1028E400710E3C6F120044504510D8A402D0010E62
:1028F4001200000E1200B751D8A402D0010E12002B
:10290400000E12005C0E0101406F160E3F6F1200A4
:102914000B6E0BC048F0010E476E12000B6E0BC01D
:102924004AF0010E496E120053EC0AF009EC04F06F
:1029340012008244E846030B010B12008238E8427D
:10294400070B010B12000BC044F00CC045F0120041
:102954008C908C828C948C9612008C908C928C84AB
:102964008C9612008C908C928C948C8612008C80A5
:102974008C928C948C9612008C908C928C948C9665
:10298400120082380F0B010B120083380F0B010B5E
:1029940012008244010B12008980120089921200F5
:1029A4008982120089941200898412008996120087
:1029B4008986120089981200898812008990120071
:0129C400FF13
:020000040020DA
:08000000FFFFFFFFFFFFFFFF00
:020000040030CA
:0E000000240E381EFF8181FF0FC00FE00F405D
:00000001FF
