:0400000080EF3FF05E
:107E5000627E6C7E767E587E8C808C928C948C9622
:107E600012008C908C928C948C8612008C908C9248
:107E70008C848C9612008C908C828C948C96120040
:107E800001500302F3CF05F0F4CF06F001500402D5
:107E9000F350062602500302F350062605C001F0F7
:107EA00006C002F012000B6E0B50016E026A01BE9A
:107EB0000206000E046EC80E036E40EC3FF001C0D7
:107EC00007F002C008F066EC3FF012000D50075CAE
:107ED000116E0E500858126E11501210D8B41200C4
:107EE000000E106E000E0F6E12BE05D0000E0A6E50
:107EF000010E096E02D009680A6809C013F0120069
:107F0000500EF66E7E0EF76E000EF86E00EE15F057
:107F100010EE08F00900F5CFEEFFE550E150FAE170
:107F200000EE0DF0080EEE6AE806FDE1000EF86EB8
:107F30000001DBEF3FF011501210D8B412001350C3
:107F4000BAEC3FF013500F26000E13BEFF0E1022A6
:107F500020EE0FF0DE500D26DD500E2211500F18CE
:107F600008E112501018D8A41200000E126E000E74
:107F7000116E1200016E1450020DF350150FD96EE0
:107F8000DA6A01D80AD00500FA6EDE50FD6EDE50C6
:107F9000FE6EF850FF6EFA50120001501426145075
:107FA000800A7C0FD8A002D0000E146E14AE12000E
:107FB000030E146E1200000E936E100E8A6E0F0EDA
:107FC000C16ECF0EB46E000E926EEF0E896E000E73
:107FD0008C6E000E8B6E95909592959495968B92E3
:107FE00094929480000E53EC3FF09BEC3FF0100E07
:107FF0000C6E940EE82EFED70C2EFCD700D0F5D7D1
:020000040020DA
:08000000FFFFFFFFFFFFFFFF00
:020000040030CA
:0E000000240E3E1EFF8181FF0FC00FE00F4057
:00000001FF
