:0400000007EF00F016
:0A000800518260ED10F022EF0FF0BE
:10080000003F065B4F666D7C077F6716202E440015
:100810004000000E236E2350100DF350660FD96E6A
:10082000DA6ADF50D8A48BD023503AEC10F00009DC
:10083000D8B485D02350100DF3506A0FD96EDA6A00
:100840000001DFA07CD02350100DF3506A0FD96E49
:10085000DA6ADFA21FD02350100DF3506A0FD96E51
:10086000DA6ADF8C2350100DF3506A0FD96EDA6A02
:10087000DFAA08D02350100DF350660FD96EDA6A44
:10088000060E37D02350100DF350660FD96EDA6A7A
:10089000010E2FD02350100DF3506A0FD96EDA6A73
:1008A000DFA408D02350100DF350660FD96EDA6A1A
:1008B000050E1FD02350100DF3506A0FD96EDA6A5F
:1008C000DFA608D02350100DF350660FD96EDA6AF8
:1008D000030E0FD02350100DF3506A0FD96EDA6A51
:1008E000DFA808D02350100DF350660FD96EDA6AD6
:1008F000040EDF6E2350100DF3506B0FD96EDA6AC1
:10090000DF822350100DF350690FD96EDA6ADF5081
:10091000D8B415D02350100DF350690FD96EDA6A90
:10092000DF501F6E1F50B00FD96EDA6A010EDF6EF6
:100930002350100DF3506B0FD96EDA6ADF8023500D
:10094000100DF350660FD96EDA6A050EDF6424D0FD
:100950002350100DF350660FD96EDA6A090EDF606E
:100960001BD02350100DF3506A0FD96EDA6A0001C4
:10097000DFB012D02350100DF350670FD96EDA6A32
:10098000000EDE6E000EDD6E2350100DF350660F6C
:10099000D96EDA6A020EDF6E2350100DF350660F27
:1009A000D96EDA6A060EDE18D8A427D02350100DAF
:1009B000F3506C0FD96EDA6A2350100DF350670FA5
:1009C000E16EE26AE62A000EE522DE50E65CDE50C9
:1009D000E658D8A012D02350100DF350670FD96EEF
:1009E000DA6A000EDE6E000EDD6E2350100DF3503D
:1009F000660FD96EDA6A070EDF6E2350100DF350C2
:100A0000660FD96EDA6A070EDE18D8A418D0235004
:100A1000100DF3506A0FD96EDA6A0001DFBC0FD0F7
:100A20002350100DF3506A0FD96EDA6ADF8C235011
:100A3000100DF350660FD96EDA6A080EDF6E235080
:100A4000100DF350660FD96EDA6A080EDE18D8A4BE
:100A500027D02350100DF3506E0FD96EDA6A235051
:100A6000100DF350670FE16EE26AE62A000EE522F0
:100A7000DE50E65CDE50E658D8A012D02350100DB0
:100A8000F350670FD96EDA6A000EDE6E000EDD6E6F
:100A90002350100DF350660FD96EDA6A070EDF6E21
:100AA0002350100DF350660FD96EDA6A050EDE186A
:100AB000D8A418D02350100DF3506A0FD96EDA6AFB
:100AC0000001DFB00FD02350100DF3506A0FD96E24
:100AD000DA6ADF8C2350100DF350660FD96EDA6A94
:100AE000020EDF6E2350100DF350660FD96EDA6AD6
:100AF000030EDE18D8A49CD02350100DF350670FBE
:100B0000D96EDA6ADE2A000EDD222350100DF35072
:100B10006A0FD96EDA6A0001DFB03DD0000E166EA2
:100B2000480E176E430E186E2350100DF350670FCA
:100B3000D96EDA6ADECF13F0DDCF14F002EC12F0DA
:100B400013C019F014C01AF015C01BF0E8EC0EF039
:100B5000D8A021D02350100DF350670FD96EDA6A58
:100B6000000EDE6E000EDD6E2350100DF3506A0F86
:100B7000D96EDA6A0001DF8C2350100DF3506A0F32
:100B8000D96EDA6ADF9E2350100DF350660FD96ECE
:100B9000DA6A020EDF6E000E166E480E176E430EF6
:100BA000186E2350100DF350670FD96EDA6ADECF3E
:100BB00013F0DDCF14F002EC12F013C019F014C0E2
:100BC0001AF015C01BF0E8EC0EF0D8B031D023506D
:100BD000100DF350670FD96EDA6A000EDE6E000E4C
:100BE000DD6E2350100DF3506A0FD96EDA6A0001E2
:100BF000DF8C2350100DF3506A0FD96EDA6ADF8E46
:100C00002350100DF3506A0FD96EDA6ADFBA08D09C
:100C10002350100DF350660FD96EDA6A010E07D01B
:100C20002350100DF350660FD96EDA6A080EDF6E8E
:100C30002350100DF350660FD96EDA6A040EDE18D9
:100C4000D8A48CD02350100DF350670FD96EDA6AF8
:100C5000DE2A000EDD222350100DF3506A0FD96EEC
:100C6000DA6A0001DFB03DD0000E166E480E176E36
:100C7000430E186E2350100DF350670FD96EDA6AC9
:100C8000DECF13F0DDCF14F002EC12F013C019F038
:100C900014C01AF015C01BF0E8EC0EF0D8A021D05B
:100CA0002350100DF350670FD96EDA6A000EDE6E16
:100CB000000EDD6E2350100DF3506A0FD96EDA6A04
:100CC0000001DF8C2350100DF3506A0FD96EDA6AE1
:100CD000DF9E2350100DF350660FD96EDA6A020EB4
:100CE000DF6E2350100DF350670FD96EDA6ADECF36
:100CF00013F0DDCF14F002EC12F013C016F014C0A4
:100D000017F015C018F0000E196E160E1A6E440E6C
:100D10001B6EE8EC0EF0D8A021D02350100DF3503C
:100D2000670FD96EDA6A000EDE6E000EDD6E23509C
:100D3000100DF3506A0FD96EDA6A0001DF8C235070
:100D4000100DF3506A0FD96EDA6ADF8E2350100D42
:100D5000F350660FD96EDA6A010EDF6E2350100D64
:100D6000F350660FD96EDA6ADE04D8A411D023508E
:100D7000100DF3506A0FD96EDA6A0001DFB008D0A7
:100D80002350100DF350660FD96EDA6A020EDF6E33
:100D90002350100DF350660FD96EDA6A020EDE187A
:100DA000D8A411D02350100DF3506A0FD96EDA6A0F
:100DB0000001DFBC08D02350100DF350660FD96E30
:100DC000DA6A090EDF6E2350100DF350660FD96EEC
:100DD000DA6A090EDE18D8A42FD02350100DF35074
:100DE000690FD96EDA6ADF50D8B416D02350100DCF
:100DF000F350690FD96EDA6ADF501F6E1F50B00FC3
:100E0000D96EDA6A000EDF6E2350100DF3506B0FAF
:100E1000D96EDA6A0001DF902350100DF350660F8F
:100E2000D96EDA6A000EDF6E2350100DF3506B0F8F
:100E3000D96EDA6A0001DF92232A040E2364EBD410
:100E40001200000E0001FB6F800EFC6F3F0EFD6F65
:100E500033C0FEF014D0FBC013F0FCC014F0FDC092
:100E600015F0000E166E200E176E410E186EE1EC96
:100E70000AF013C0FBF014C0FCF015C0FDF0000137
:100E8000FE07FE29D8A4E7D734C016F035C017F006
:100E900036C018F0FBC019F0FCC01AF0FDC01BF002
:100EA000E8EC0EF0D8A014D0FBC016F0FCC017F090
:100EB000FDC018F0000E196E800E1A6EBF0E1B6E6C
:100EC0002FEC08F016C034F017C035F018C036F01B
:100ED00031C00BF032C00CF033C00DF074EC11F0E7
:100EE000000E0001FB6F800EFC6F3F0EFD6F000EC9
:100EF000FE6F74D034C016F035C017F036C018F04D
:100F0000FBC019F0FCC01AF0FDC01BF0E8EC0EF0BD
:100F1000D8B04ED00001FE51800A376E3350800A9F
:100F2000375CD8B036D0000E166E200E176E410E0C
:100F3000186E34C013F035C014F036C015F0E1EC73
:100F40000AF013C022F014C023F015C024F05BECAB
:100F50000BF022C0F8F023C0F9F00001FE51D8A434
:100F60000DD0010EF66E080EF76E20EE01F0315036
:100F7000D9263250DA220800F5CFDFFF20EE01F04B
:100F80003150D9263250DA22000EDB8EFEC0FAF044
:100F90002DD034C022F035C023F036C024F05BECF5
:100FA0000BF022C0F8F023C0F9F00001FE05FA6F43
:100FB000FBC013F0FCC014F0FDC015F0000E166E5F
:100FC000200E176E410E186EE1EC0AF013C0FBF014
:100FD00014C0FCF015C0FDF00001FE2B3350800A58
:100FE000376EFE51800A375CD8B084D7EE0E1A6E89
:100FF000F8C01BF0F9C01CF0000E1E6E0A0E1D6E2C
:1010000093EC11F0000E0001FE6F21D0FE51EE0FA7
:10101000D96EDA6ADF50376ED00E37263750010F9F
:10102000386E38C0F6FF080EF76E0800F5CF39F0BD
:10103000FAC03AF03B6A3ABE3B063A503124D96EC8
:101040003B503220DA6E3950DF12FA07FE2BFE5188
:10105000EE0FD96EDA6ADF50D8B41200D7D718C0B5
:101060001CF01D6A1E6A17341C3601E31D801C50DB
:10107000216E1BC01CF01D6A1E6A1A341C3601E367
:101080001D801C50206E2150D8B40AD02050215C05
:10109000D8B00DD02150205C1C6E180E1C6407D0F7
:1010A00019C016F01AC017F01BC018F0120020501B
:1010B000D8B40AD02150205CD8B00DD02050215C8B
:1010C0001C6E180E1C6407D016C016F017C017F05F
:1010D00018C018F01200060E1F6E18BE1F8E1BBE21
:1010E0001F8C178EFF0E1616FF0E1716000E181601
:1010F0001A8EFF0E1916FF0E1A16000E1B16205020
:10110000215CD8B01BD0D89019361A361B36200671
:1011100021502018D8B40DD01F061FC01CF0070E98
:101120001C16D8B406D0EFD7D89018321732163222
:10113000212A20502118D8B41FD0F6D72150205C86
:10114000D8B01AD0D8901636173618362106215046
:101150002018D8B40DD01F061FC01CF0070E1C1697
:10116000D8B406D0EFD7D8901B321A321932202AC1
:1011700020502118D8A4F7D71FAE0CD0FF0E161A96
:10118000FF0E171AFF0E181A010E1626000E172250
:10119000000E18221FAC0CD0FF0E191AFF0E1A1ADF
:1011A000FF0E1B1A010E1926000E1A22000E1B221A
:1011B000000E1F6E1650192617501A2218501B22A7
:1011C0001BAE0ED0FF0E191AFF0E1A1AFF0E1B1AB5
:1011D000010E1926000E1A22000E1B22010E1F6E90
:1011E00019C00BF01AC00CF01BC00DF021C00EF09E
:1011F0001FC00FF01FEC0CF00BC016F00CC017F066
:101200000DC018F01200040E0C6E0C50100DF350AF
:10121000640FD96EDA6ADF50D8A416D00C50100DC6
:10122000F350600FD96EDA6A01D80AD00500FA6E61
:10123000DE50FD6EDE50FE6EF850FF6EFA5012006A
:101240000009D8A4ACD041D00C50100DF350640F5D
:10125000D96EDA6ADE04D8A440D00C50100DF350D9
:10126000650FD96EDA6ADF2A040EDE18D8A497D08B
:101270000C50100DF350650FD96EDA6A000EDF6E58
:101280000C50100DF350600FD96EDA6A01D80AD0F5
:101290000500FA6EDE50FD6EDE50FE6EF850FF6EF9
:1012A000FA5012000009D8B408D00C50100DF350B9
:1012B000640FD96EDA6ADF0672D00C50100DF3504D
:1012C0006A0FD96EDA6A0001DF800C50100DF350FE
:1012D000640FD96EDA6ADF2A62D00C50100DF35019
:1012E000640FD96EDA6A020EDE18D8A416D00C503C
:1012F000100DF350600FD96EDA6A01D80AD00500DC
:10130000FA6EDE50FD6EDE50FE6EF850FF6EFA5043
:101310001200E806D8B4D9D742D00C50100DF350C3
:10132000640FD96EDA6A030EDE18D8A438D00C50D8
:10133000100DF350650FD96EDA6ADF2A040EDE183D
:10134000D8A42DD00C50100DF350650FD96EDA6A69
:10135000000EDF6E0C50100DF350600FD96EDA6A7C
:1013600001D80AD00500FA6EDE50FD6EDE50FE6E2A
:10137000F850FF6EFA501200E806D8A496D70C5029
:10138000100DF3506A0FD96EDA6A0001DF900C502D
:10139000100DF350640FD96EDA6A000EDF6E0C0682
:1013A0000CBE120032D7000E446E000E456E000EC9
:1013B000896E000E8B6E000E8C6E000E8D6E000E10
:1013C0008A6E0F0EC16ECF0EB46E000E6D6E080EDB
:1013D0006F6E870ED56ED768D10ED66EF28A8D806D
:1013E000969095909592959495968B9294929682DC
:1013F00094809684C4EC0BF0B6EC0FF086EC0FF002
:101400000001CE81CE83CE95000EF1EC10F0000EDF
:10141000CC6F010ECD6F010EB96FF28ECFA102D04D
:10142000CF91B881B8A113D0442A140E4418D8A47F
:1014300005D0000E446ECEB1ABEC12F0452A030E7F
:101440004518D8A404D0000E456E71EC0EF00001D2
:10145000CD05D8A42BD0CEA312D076EC0CF0466EDE
:101460004604D8A406D0020EB96F010ECC6FCE850B
:1014700006D0020E4618D8A402D0020ECD6FCEA51B
:1014800015D0DBEC11F0466E4604D8A409D0010E4D
:10149000B96F000ECC6FCE95010EF1EC10F006D0B6
:1014A000020E4618D8A402D0020ECD6F54EC0FF0F5
:1014B000F2EC0DF0B891B2D7000E366E010E356E1B
:1014C00022C037F00ED035C00BF036C00CF0000E45
:1014D0000E6E0A0E0D6EEFEC11F00BC035F00CC065
:1014E00036F037063728D8A4EED73550235C245081
:1014F000800A256E3650800A2558D8A006D0FF0EE7
:101500003524236EFF0E3620246E2A0E1A6E23C059
:101510001BF024C01CF0000E1E6E0A0E1D6E93EC14
:1015200011F0000E376E13D00F0EF66E080EF76E28
:1015300037C025F0266A25BE260625502024D96E00
:1015400026502120DA6E0800F5CFDFFF372A37500A
:10155000800A256E2250800A255CD8A0E5D7000EAF
:10156000376E2A0E0B6E14EC12F00B04346E21D081
:1015700037502A0FD96EDA6ADF50256ED00E252635
:101580002550010F266E26C0F6FF080EF76E0800E4
:10159000F5CF27F034C028F0296A28BE2906285044
:1015A0002024D96E29502120DA6E2750DF1234060C
:1015B000372A37502A0FD96EDA6ADF50D8B41200B2
:1015C000D7D715C019F01A6A1B6A1434193601E30B
:1015D0001A8019501C6E1C50D8A407D0000E136E30
:1015E000000E146E000E156E120018C019F01A6A63
:1015F0001B6A1734193601E31A801950216E2150E5
:10160000D8A407D0000E136E000E146E000E156ED7
:10161000120021507B0F1C2615C021F01850211AF2
:10162000800E2116148E178EFF0E1616FF0E17163B
:10163000000E1816000E1D6E000E1E6E000E1F6EA0
:10164000070E206E13A006D016501D2617501E221E
:1016500018501F22D890153214321332D8901636F3
:1016600017361836202EEED7090E206E13A006D09E
:1016700016501D2617501E2218501F22D8901532C2
:1016800014321332D8901F321E321D32202EEED764
:101690001DC00BF01EC00CF01FC00DF01CC00EF0E2
:1016A00021C00FF01FEC0CF00BC013F00CC014F0B5
:1016B0000DC015F0120024C026F0276A286A2334D2
:1016C000263601E327802650306E3050D8A409D04A
:1016D000000E226E000E236E000E246E000E256E8C
:1016E0001200170E266E22C027F023C028F024C057
:1016F00029F026282A6E04D0D890293228322732A1
:101700002A2EFAD727502B6E238EFF0E2216FF0E9D
:101710002316000E241622502C6E23502D6E2450BA
:101720002E6E2F6A8E0E305E30AE0DD03050800A95
:101730008F0FD8A0CDD7D8902F322E322D322C3209
:10174000303EF9D70DD0170E306407D0C1D7D890EE
:101750002C362D362E362F3630063050D8A4F7D7FB
:101760002B50D8B408D02F1E2E1E2D1E2C6C000E10
:101770002D222E222F222CC022F02DC023F02EC08D
:1017800024F02FC025F012009488948A948C948EB3
:101790009588B00E0001606F250E616F6A0E706F44
:1017A000250E716F600E806F250E816FC00E906FD9
:1017B000250E916FB80EA06F250EA16F000E0B6E57
:1017C0000B50100DF3506A0FD96EDA6ADF820B509E
:1017D000100DF3506A0FD96EDA6ADF940B50100DBA
:1017E000F3506A0FD96EDA6ADF960B50100DF35082
:1017F0006A0FD96EDA6ADF9A0B50100DF350690F39
:10180000D96EDA6A000EDF6E0B50100DF3506C0FBC
:10181000D96EDA6A640EDE6E000EDD6E0B50100DAE
:10182000F3506E0FD96EDA6A280EDE6E000EDD6E92
:101830000B2A0B50800A7B0FD8B01200C1D70E5074
:10184000D8B405D00B500C100D10D8A40CD0000E3D
:101850000B6E000E0C6E000E0D6E12000E2AD8904C
:101860000D320C320B32000E0B14106E000E0C14E5
:10187000116EFE0E0D14126E105011101210D8B40D
:101880000CD0ECD70E2A010E0B26000E0C22000EF7
:101890000D22D8900D320C320B32000E0B14106E4C
:1018A000000E0C14116EFF0E0D14126E105011105C
:1018B0001210D8B406D0E6D70E06D8900B360C36E8
:1018C0000D360CBE03D0020E0E60F6D70EA00C9E95
:1018D000D8900E320E500D120F50D8A40D8E0BC0A2
:1018E0000BF00CC00CF00DC00DF01200000E216EBC
:1018F000B905D8A403D0ADEC0EF0216EBE51D8A42A
:1019000005D075EC12F00001BE2B41D0BE05D8A465
:1019100006D097EC12F00009D8A4F5D738D0020E03
:10192000BE19D8A419D0BD511F6E206A1FBE200653
:1019300085EC10F00009D8B406D00001BD51C4EC0C
:1019400011F00001BE2B0001BD2B080EBD19D8A45B
:101950001ED0000EBD6F1BD0030EBE19D8A40CD034
:1019600097EC12F00009D8B412D0000E0C6E010EE4
:101970000B6EBAEC12F0C7D7040EBE19D8A407D06C
:101980008FEC12F00009D8B402D0020EBE6F2150C5
:101990001200116E000E126E11C00BF0010E0C6ED3
:1019A000000E0D6E0B2A03D0D8900C360D360B2E80
:1019B000FBD712C00EF0010E0F6E000E106E0E2A35
:1019C00003D0D8900F3610360E2EFBD70C500F16C2
:1019D0000D5010160F501010D8B412D01250040D24
:1019E000F350D20FD96EDA6A01D81CD00500FA6E16
:1019F000DE50FD6EDE50FE6EF850FF6EFA501200A3
:101A00001250040DF350D00FD96EDA6A01D80AD003
:101A10000500FA6EDE50FD6EDE50FE6EF850FF6E71
:101A2000FA501200122A1250800A7B0FD8B012000E
:101A3000B3D713C017F014C018F017C00BF018C0BC
:101A40000CF015C00DF016C00EF011EC10F00BC02C
:101A500017F00CC018F0122A17501810D8A4EDD7A0
:101A60001250D96EDA6A000EDF6E120613C00BF048
:101A700014C00CF015C00DF016C00EF012EC11F0F1
:101A80000B50196E13C00BF014C00CF015C00DF004
:101A900016C00EF011EC10F00BC013F00CC014F0D7
:101AA000090E196402D0070E1926300E192612509D
:101AB000D96EDA6A19C0DFFF120613501410D8A4C9
:101AC000D5D7122A1200000E0C6E000E43EC12F055
:101AD0000009D8B410D0000E6BEC12F0BC2BBC5136
:101AE000800A770FD8A005D0000EBC6F010E0C6ED7
:101AF00002D0010EBB6F010E43EC12F00009D8B406
:101B00000DD0010E6BEC12F0BC07BCAF05D0080E77
:101B1000BC6F010E0C6E02D0010EBB6F020E43ECC7
:101B200012F00009D8B403D0020E6BEC12F0030ED1
:101B300043EC12F00009D8B403D0030E6BEC12F0A2
:101B4000040E43EC12F00009D8B403D0040E6BEC81
:101B500012F00C501200000E346E000E336E000EA8
:101B6000366E000E356E35C00BF036C00CF0000E30
:101B70000E6E060E0D6EEFEC11F0060E0B24D96EF4
:101B8000010E0C20DA6EDECF19F0DECF1AF0DDCFB9
:101B90001BF033C013F034C014F002EC12F013C089
:101BA00016F014C017F015C018F02FEC08F016C08E
:101BB00022F017C023F018C024F05BEC0BF022C019
:101BC00033F023C034F0354A362A36BECCD73650EF
:101BD00004E1080E355CD8A0C6D733C031F034C05C
:101BE00032F01200C351D8A410D0030E4E18D8B44E
:101BF00004D0020E4E18D8A402D0C32B12004E04FB
:101C0000D8A41200020EC36F1200C305D8A413D0CB
:101C10004B504C10D8A41200020E4E18D8A405D078
:101C200001013AA103D03A9101D04E500001C32BDB
:101C3000000EC26F1200020EC319D8A40AD0B8A1B8
:101C40001200C22B0A0EC219D8A41200010E4E6E49
:101C5000D4D7030EC319D8A412004E50D8A4120032
:101C6000000EC36F1200426E0001CC05D8A4120012
:101C7000010E4224386EE86AD8B0E82A42BEE8066F
:101C8000396E5EEC12F04250800A780FD8B01FD047
:101C90004250060D060EF324D96E010EF420DA6EC2
:101CA000DECF3FF0DECF40F0DDCF41F03F504010BF
:101CB0004110D8A403D087EC12F012003FC03CF0D2
:101CC00040C03DF041C03EF034EC12F01200A5ECF3
:101CD00012F03651386E396A38BE390651EC12F0BE
:101CE00012004F04156E15AE02D0040E156E15507D
:101CF000040DF350D00FD96EDA6A01D80AD005006E
:101D0000FA6EDE50FD6EDE50FE6EF850FF6EFA5039
:101D100012004F50800A7D0FD8B007D03B0E4F24E1
:101D2000D96EDA6A010EDA220BD04FC013F0146AB2
:101D300013BE14063B0E1324D96E010E1420DA6E66
:101D4000DF508A6E4F50C9EC0CF04F2A050E4F1829
:101D5000D8A41200000E4F6E1200000E0C6E000E82
:101D600043EC12F00009D8B408D0000E6BEC12F06E
:101D7000000E9EEC12F0010E0C6E010E43EC12F000
:101D80000009D8B408D0010E6BEC12F0080E9EECDE
:101D900012F0010E0C6E020E43EC12F00009D8B4E2
:101DA00003D0020E6BEC12F0030E43EC12F00009AC
:101DB000D8B403D0030E6BEC12F0040E43EC12F017
:101DC0000009D8B403D0040E6BEC12F00C501200D2
:101DD00018AE0FD0000E1C6E000E1D6E800E1E6E13
:101DE00016501C5C166E17501D58176E18501E5852
:101DF000186E1BAE0FD0000E1C6E000E1D6E800EF6
:101E00001E6E19501C5C196E1A501D581A6E1B500C
:101E10001E581B6E000E161A000E171A800E181A86
:101E2000000E191A000E1A1A800E1B1A1950165C91
:101E30001A5017581B501858D8B002D0D89012001A
:101E4000D88012004A0EF66E240EF76E000EF86E61
:101E500000EED0F010EE1EF00900F5CFEEFFE550D9
:101E6000E150FAE1EE0EF66E250EF76E000EF86EFA
:101E70000900F5CF50F001EE00F0400EEE6AE806E2
:101E8000FDE100EE60F0700EEE6AE806FDE100EEA6
:101E900047F0090EEE6AE806FDE151905192000EFE
:101EA000F86E0001D3EF09F0B551B611D8B41200A5
:101EB000B751D8A405D08D90000EC16FB72B12007A
:101EC000B705D8A40CD0B8A11200C12B320EC1198D
:101ED000D8A41200000EC16FB72B8D801200020E25
:101EE000B719D8A41200B8A11200C12B320EC11923
:101EF000D8A41200000EC16F000EB76FB507D8A0AE
:101F0000B607B551B611D8B412001200000E010187
:101F1000036F3C0E026F000E0B6E0B50060D060E8B
:101F2000F324D96E010EF420DA6E000EDE6E400E40
:101F3000DE6E410EDE6E0B2A0B50800A780FD8A0A1
:101F4000ECD70B0EF66E080EF76E0800F5CF36F1E3
:101F5000000E0101186F000E196F000E1A6F000EAF
:101F6000246F000E256F000E266F1200000E0C6EFF
:101F70000F0EF66E080EF76E3E0E0C24D96EDA6A5E
:101F8000010EDA220800F5CFDFFF0C2A0C50800A80
:101F90007E0FD8A0EDD7000E0C6E0F0EF66E080E59
:101FA000F76E3B0E0C24D96EDA6A010EDA220800B5
:101FB000F5CFDFFF0C2A0C50800A7D0FD8A0EDD79B
:101FC000000E936E54EC11F01200000E036E4B5095
:101FD0004C10D8B424D04D5033EC11F04D5049265C
:101FE000000E4DBEFF0E4A2284CF02F0D89002327E
:101FF00002B006D0000E4C6E000E4B6E010E036E4A
:102000004B5049180CE14C504A18D8A408D0000E87
:102010004C6E000E4B6E010E036E01013A810350AF
:102020001200000E116E000E106E0D500E10D8B47E
:102030001CD0010E0F6E04D0D8900D360E360F2A2C
:102040000EAEFAD7D890103611360D500B5C0E50EC
:102050000C58D8A005D00D500B5E0E500C5A1080B5
:10206000D8900E320D320F2EEDD710C00BF011C0EC
:102070000CF012000D6E0D50100DF350690FD96E5B
:10208000DA6ADF50D8B41AD00D50100DF350690F32
:10209000D96EDA6ADF500B6E0B50B00FD96EDA6A68
:1020A000DE04D8A40BD00D50100DF3506B0FD96E79
:1020B000DA6A0001DFB002D0000E1200010E120039
:1020C0000600FACF05F0FBCF06F0D9CF07F0DACF44
:1020D00008F0F3CF09F0F4CF0AF0F2A408D0000121
:1020E000CF81A9EC10F0F294D768D10ED66E0AC059
:1020F000F4FF09C0F3FF08C0DAFF07C0D9FF06C02C
:10210000FBFF05C0FAFF51921100000E166E000E83
:10211000176E000E186E1FC00BF020C00CF0000EE2
:102120000E6E060E0D6EEFEC11F0060E0B24D96E3E
:10213000010E0C20DA6EDECF19F0DECF1AF0DDCF03
:102140001BF0E8EC0EF0D8B002D0010E1200000E29
:102150001200020E4E18D8A403D0E5EC0FF01200C6
:10216000030E4E18D8A403D0CDEC10F012004E048C
:10217000D8A41200000E4C6E000E4B6E01D80AD08F
:102180000500FA6EEC51FD6EED51FE6EF850FF6EDB
:10219000FA501200000E4E6E1200000E026E4B50EE
:1021A0004C10D8B41CD04D5033EC11F04D50492692
:1021B000000E4DBEFF0E4A224D504726000E4DBE6A
:1021C000FF0E48224B5049180AE14C504A18D8A437
:1021D00006D0000E4C6E000E4B6E010E026E0250C9
:1021E00012003F6E0001CC51D8A416D07EEC12F044
:1021F000ABEC0DF031C040F032C041F040C013F004
:1022000041C014F002EC12F013C03CF014C03DF0D9
:1022100015C03EF034EC12F03F50D8A41200000E6E
:10222000BD6F12000D500E10D8B418D0010E0F6EF5
:1022300004D0D8900D360E360F2A0EAEFAD70D50B8
:102240000B5C0E500C58D8A004D00D500B5E0E50F5
:102250000C5AD8900E320D320F2EF1D70BC00BF066
:102260000CC00CF01200016E50500124506E505002
:10227000800A7C0FD8A002D0000E506E50AE02D063
:10228000030E506E5050020DF350E40FD96EDA6A0F
:1022900001D812000500FA6EDE50FD6EDE50FE6EB3
:1022A000F850FF6EFA501200000E0B6E0B50040D2A
:1022B000F350D00FD96EDA6A01D80AD00500FA6E51
:1022C000DE50FD6EDE50FE6EF850FF6EFA501200CA
:1022D0000B2A0B50800A7B0FD8A0E8D792989296D1
:1022E0009294929292901200000E106E13D00F0EE4
:1022F000F66E080EF76E10C00EF00F6A0EBE0F06D7
:102300000E500B24D96E0F500C20DA6E0800F5CF5A
:10231000DFFF102A1050800A0E6E0D50800A0E5CEE
:10232000D8B01200E4D71CAE0AD01A50D96EDA6ABF
:102330002D0EDF6E1A2A1B6C1C1ED8B01C2A1AC068
:1023400012F01BC013F01CC014F01DC015F01EC00D
:1023500016F019EC0DF0120011501210D8B4120042
:1023600012BE05D0000E146E010E136E02D013685B
:10237000146813C04DF0000E4A6E000E496E11C075
:102380004BF012C04CF01200156E15500B6E0C6A1B
:102390000BBE0C06000E0E6EC80E0D6EEFEC11F0AB
:1023A00047500B5C116E48500C58126EACEC11F09B
:1023B000030E4E6E1200000E436E020EB919D8A421
:1023C00003D063EC0DF0436EBB05D8A406D0BC511E
:1023D00033EC0EF0000E0001BB6F435012000B50A7
:1023E0000D02F3CF0FF0F4CF10F00B500E02F350AC
:1023F00010260C500D02F35010260FC00BF010C029
:102400000CF0120013C00BF014C00CF00D6A8E0E0D
:102410000E6E000E0F6E1FEC0CF00BC013F00CC014
:1024200014F00DC015F012000BC00DF001D00D2AF4
:102430000D50D96EDA6ADF50D8A4F9D70B500D5C75
:102440000B6E0C6A0BBE0C061200E625E225DE259B
:10245000DA25D625D225CE25CA25C625EA259225F8
:1024600088257E259C25A6253B0E316E010E326EF9
:10247000030E336E3CC034F03DC035F03EC036F044
:1024800021EC07F012000B6E0B50100DF3506A0F89
:10249000D96EDA6A0001DFAC02D0010E1200000E24
:1024A00012003B0E206E010E216E030E226E38C00C
:1024B00023F039C024F05CEC0AF012003E0E206ECE
:1024C000010E216E020E226E38C023F039C024F0B6
:1024D0005CEC0AF012000B6E0B50100DF3506A0FFB
:1024E000D96EDA6A0001DF9C1200F90E126EAC0E92
:1024F000116EACEC11F0020E4E6E12003E0E0B6E21
:10250000010E0C6E020E0D6E74EC11F012003F0EF7
:1025100001013D6F710E3C6F710E3B6F1200B551A2
:10252000B611D8A402D0010E1200000E12004E50B7
:10253000D8A402D0010E1200000E12000B6E0BC0C8
:10254000BCF0010E0001BB6F12005C0E01013F6F79
:10255000160E3E6F120003EC09F009EC04F01200B5
:102560008244E846030B010B12008238E842070B55
:10257000010B12000BC0B5F00CC0B6F012008C902D
:102580008C828C948C9612008C908C928C848C967D
:1025900012008C908C928C948C8612008C808C9281
:1025A0008C948C9612008C908C928C948C96120049
:1025B00082380F0B010B120083380F0B010B120036
:1025C0008244010B120089801200899212008982D4
:1025D000120089941200898412008996120089865B
:0F25E0001200899812008988120089901200FF5A
:020000040020DA
:08000000FFFFFFFFFFFFFFFF00
:020000040030CA
:0E000000240E381EFF8181FF0FC00FE00F405D
:00000001FF
