:0400000007EF00F016
:0A00080051827AED0FF06CEF0EF05C
:10080000003F065B4F666D7C077F67004000000E6F
:10081000236E2350100DF350660FD96EDA6ADF5045
:10082000D8A48BD0235054EC0FF00009D8B485D055
:100830002350100DF3506A0FD96EDA6A0001DFA061
:100840007CD02350100DF3506A0FD96EDA6ADFA204
:100850001FD02350100DF3506A0FD96EDA6ADF8C67
:100860002350100DF3506A0FD96EDA6ADFAA08D050
:100870002350100DF350660FD96EDA6A060E37D08A
:100880002350100DF350660FD96EDA6A010E2FD087
:100890002350100DF3506A0FD96EDA6ADFA408D026
:1008A0002350100DF350660FD96EDA6A050E1FD073
:1008B0002350100DF3506A0FD96EDA6ADFA608D004
:1008C0002350100DF350660FD96EDA6A030E0FD065
:1008D0002350100DF3506A0FD96EDA6ADFA808D0E2
:1008E0002350100DF350660FD96EDA6A040EDF6ED6
:1008F0002350100DF3506B0FD96EDA6ADF8223504C
:10090000100DF350690FD96EDA6ADF50D8B415D0E4
:100910002350100DF350690FD96EDA6ADF501F6E45
:100920001F50B00FD96EDA6A010EDF6E2350100D22
:10093000F3506B0FD96EDA6ADF802350100DF3503D
:10094000660FD96EDA6A050EDF6424D02350100DCD
:10095000F350660FD96EDA6A090EDF601BD02350A0
:10096000100DF3506A0FD96EDA6A0001DFB012D0B1
:100970002350100DF350670FD96EDA6A000EDE6E49
:10098000000EDD6E2350100DF350660FD96EDA6A3B
:10099000020EDF6E2350100DF350660FD96EDA6A27
:1009A000060EDE18D8A427D02350100DF3506C0F7C
:1009B000D96EDA6A2350100DF350670FE16EE26AC8
:1009C000E62A000EE522DE50E65CDE50E658D8A0AE
:1009D00012D02350100DF350670FD96EDA6A000E53
:1009E000DE6E000EDD6E2350100DF350660FD96ED3
:1009F000DA6A070EDF6E2350100DF350660FD96EC2
:100A0000DA6A070EDE18D8A418D02350100DF35060
:100A10006A0FD96EDA6A0001DFBC0FD02350100DC7
:100A2000F3506A0FD96EDA6ADF8C2350100DF35041
:100A3000660FD96EDA6A080EDF6E2350100DF35080
:100A4000660FD96EDA6A080EDE18D8A427D02350B4
:100A5000100DF3506E0FD96EDA6A2350100DF3505B
:100A6000670FE16EE26AE62A000EE522DE50E65CE0
:100A7000DE50E658D8A012D02350100DF350670F67
:100A8000D96EDA6A000EDE6E000EDD6E2350100D98
:100A9000F350660FD96EDA6A070EDF6E2350100D21
:100AA000F350660FD96EDA6A050EDE18D8A418D096
:100AB0002350100DF3506A0FD96EDA6A0001DFB0CF
:100AC0000FD02350100DF3506A0FD96EDA6ADF8C05
:100AD0002350100DF350660FD96EDA6A020EDF6EE6
:100AE0002350100DF350660FD96EDA6A030EDE182C
:100AF000D8A49CD02350100DF350670FD96EDA6A3A
:100B0000DE2A000EDD222350100DF3506A0FD96E3D
:100B1000DA6A0001DFB03DD0000E166E480E176E87
:100B2000430E186E2350100DF350670FD96EDA6A1A
:100B3000DECF13F0DDCF14F0E4EC10F013C019F0A9
:100B400014C01AF015C01BF0C4EC0DF0D8A021D0D1
:100B50002350100DF350670FD96EDA6A000EDE6E67
:100B6000000EDD6E2350100DF3506A0FD96EDA6A55
:100B70000001DF8C2350100DF3506A0FD96EDA6A32
:100B8000DF9E2350100DF350660FD96EDA6A020E05
:100B9000DF6E000E166E480E176E430E186E235051
:100BA000100DF350670FD96EDA6ADECF13F0DDCF88
:100BB00014F0E4EC10F013C019F014C01AF015C0D2
:100BC0001BF0C4EC0DF0D8B031D02350100DF35011
:100BD000670FD96EDA6A000EDE6E000EDD6E2350EE
:100BE000100DF3506A0FD96EDA6A0001DF8C2350C2
:100BF000100DF3506A0FD96EDA6ADF8E2350100D94
:100C0000F3506A0FD96EDA6ADFBA08D02350100D9C
:100C1000F350660FD96EDA6A010E07D02350100D1B
:100C2000F350660FD96EDA6A080EDF6E2350100D8E
:100C3000F350660FD96EDA6A040EDE18D8A48CD091
:100C40002350100DF350670FD96EDA6ADE2A000EBA
:100C5000DD222350100DF3506A0FD96EDA6A0001BD
:100C6000DFB03DD0000E166E480E176E430E186EA4
:100C70002350100DF350670FD96EDA6ADECF13F0F0
:100C8000DDCF14F0E4EC10F013C019F014C01AF02A
:100C900015C01BF0C4EC0DF0D8A021D02350100DCE
:100CA000F350670FD96EDA6A000EDE6E000EDD6E4D
:100CB0002350100DF3506A0FD96EDA6A0001DF8CF1
:100CC0002350100DF3506A0FD96EDA6ADF9E23505D
:100CD000100DF350660FD96EDA6A020EDF6E2350E4
:100CE000100DF350670FD96EDA6ADECF13F0DDCF47
:100CF00014F0E4EC10F013C016F014C017F015C097
:100D000018F0000E196E160E1A6E440E1B6EC4EC0F
:100D10000DF0D8A021D02350100DF350670FD96EDD
:100D2000DA6A000EDE6E000EDD6E2350100DF350F9
:100D30006A0FD96EDA6A0001DF8C2350100DF35070
:100D40006A0FD96EDA6ADF8E2350100DF350660FEA
:100D5000D96EDA6A010EDF6E2350100DF350660F64
:100D6000D96EDA6ADE04D8A411D02350100DF350E6
:100D70006A0FD96EDA6A0001DFB008D02350100D77
:100D8000F350660FD96EDA6A020EDF6E2350100D33
:100D9000F350660FD96EDA6A020EDE18D8A411D0AD
:100DA0002350100DF3506A0FD96EDA6A0001DFBCD0
:100DB00008D02350100DF350660FD96EDA6A090E71
:100DC000DF6E2350100DF350660FD96EDA6A090EEC
:100DD000DE18D8A42FD02350100DF350690FD96E10
:100DE000DA6ADF50D8B416D02350100DF350690FD3
:100DF000D96EDA6ADF501F6E1F50B00FD96EDA6AF3
:100E0000000EDF6E2350100DF3506B0FD96EDA6AAF
:100E10000001DF902350100DF350660FD96EDA6A8F
:100E2000000EDF6E2350100DF3506B0FD96EDA6A8F
:100E30000001DF92232A040E2364EBD41200000E7B
:100E40000001F86F800EF96F3F0EFA6F33C0FBF0B0
:100E500014D0F8C013F0F9C014F0FAC015F0000E69
:100E6000166E200E176E410E186E6CEC0AF013C051
:100E7000F8F014C0F9F015C0FAF00001FB07FB29E7
:100E8000D8A4E7D734C016F035C017F036C018F034
:100E9000F8C019F0F9C01AF0FAC01BF0C4EC0DF05C
:100EA000D8A014D0F8C013F0F9C014F0FAC015F0AF
:100EB000000E166E800E176EBF0E186E43EC08F013
:100EC00013C034F014C035F015C036F0000E000128
:100ED000FB6F13D00B0EF66E080EF76EFBC037F0EB
:100EE000386A37BE380637503124D96E3850322030
:100EF000DA6E0800F5CFDFFFFB2BFB51800A376E5F
:100F00003350800A375CD8A0E5D7000EF86F800E0A
:100F1000F96F3F0EFA6F000EFB6F74D034C016F0FD
:100F200035C017F036C018F0F8C019F0F9C01AF043
:100F3000FAC01BF0C4EC0DF0D8B04ED00001FB514C
:100F4000800A376E3350800A375CD8B036D0000E36
:100F5000166E200E176E410E186E34C013F035C099
:100F600014F036C015F06CEC0AF013C022F014C077
:100F700023F015C024F0E6EC0AF022C0F5F023C0FF
:100F8000F6F00001FB51D8A40DD0010EF66E080E4C
:100F9000F76E20EE01F03150D9263250DA220800E7
:100FA000F5CFDFFF20EE01F03150D9263250DA22A2
:100FB000000EDB8EFBC0F7F02DD034C022F035C020
:100FC00023F036C024F0E6EC0AF022C0F5F023C08E
:100FD000F6F00001FB05F76FF8C013F0F9C014F04C
:100FE000FAC015F0000E166E200E176E410E186E28
:100FF0006CEC0AF013C0F8F014C0F9F015C0FAF068
:101000000001FB2B3350800A376EFB51800A375C9E
:10101000D8B084D7EB0E1A6EF5C01BF0F6C01CF0EA
:10102000000E1E6E0A0E1D6E89EC10F0000E0001FF
:10103000FB6F21D0FB51EB0FD96EDA6ADF50376EB0
:10104000D00E37263750010F386E38C0F6FF080E25
:10105000F76E0800F5CF39F0F7C03AF03B6A3ABEB8
:101060003B063A503124D96E3B503220DA6E39506B
:10107000DF12F707FB2BFB51EB0FD96EDA6ADF505B
:10108000D8B41200D7D715C019F01A6A1B6A1434E5
:10109000193601E31A8019501E6E18C019F01A6A29
:1010A0001B6A1734193601E31A8019501D6E1E5041
:1010B000D8B40AD01D501E5CD8B00DD01E501D5C97
:1010C000196E180E196407D016C013F017C014F06B
:1010D00018C015F012001D50D8B40AD01E501D5C67
:1010E000D8B00DD01D501E5C196E180E196407D0B3
:1010F00013C013F014C014F015C015F01200060E42
:101100001C6E15BE1C8E18BE1C8C148EFF0E131682
:10111000FF0E1416000E1516178EFF0E1616FF0E74
:101120001716000E18161D501E5CD8B01BD0D89094
:101130001636173618361D061E501D18D8B40DD099
:101140001C061CC019F0070E1916D8B406D0EFD72C
:10115000D8901532143213321E2A1D501E18D8B4DE
:101160001FD0F6D71E501D5CD8B01AD0D8901336B9
:10117000143615361E061E501D18D8B40DD01C0688
:101180001CC019F0070E1916D8B406D0EFD7D890A6
:101190001832173216321D2A1D501E18D8A4F7D740
:1011A0001CAE0CD0FF0E131AFF0E141AFF0E151AE8
:1011B000010E1326000E1422000E15221CAC0CD0BA
:1011C000FF0E161AFF0E171AFF0E181A010E16261A
:1011D000000E1722000E1822000E1C6E1350162649
:1011E000145017221550182218AE0ED0FF0E161AE2
:1011F000FF0E171AFF0E181A010E1626000E1722E0
:10120000000E1822010E1C6E16C00BF017C00CF059
:1012100018C00DF01EC00EF01CC00FF00BEC0CF04F
:101220000BC013F00CC014F00DC015F01200040E2A
:101230000C6E0C50100DF350640FD96EDA6ADF504B
:10124000D8A416D00C50100DF350600FD96EDA6A86
:1012500001D80AD00500FA6EDE50FD6EDE50FE6E3B
:10126000F850FF6EFA5012000009D8A4ACD041D05B
:101270000C50100DF350640FD96EDA6ADE04D8A456
:1012800040D00C50100DF350650FD96EDA6ADF2A8A
:10129000040EDE18D8A497D00C50100DF350650F33
:1012A000D96EDA6A000EDF6E0C50100DF350600F2D
:1012B000D96EDA6A01D80AD00500FA6EDE50FD6EEA
:1012C000DE50FE6EF850FF6EFA5012000009D8B4DE
:1012D00008D00C50100DF350640FD96EDA6ADF0697
:1012E00072D00C50100DF3506A0FD96EDA6A0001FB
:1012F000DF800C50100DF350640FD96EDA6ADF2ACC
:1013000062D00C50100DF350640FD96EDA6A020EE1
:10131000DE18D8A416D00C50100DF350600FD96E03
:10132000DA6A01D80AD00500FA6EDE50FD6EDE5092
:10133000FE6EF850FF6EFA501200E806D8B4D9D706
:1013400042D00C50100DF350640FD96EDA6A030EC0
:10135000DE18D8A438D00C50100DF350650FD96E9C
:10136000DA6ADF2A040EDE18D8A42DD00C50100D36
:10137000F350650FD96EDA6A000EDF6E0C50100D57
:10138000F350600FD96EDA6A01D80AD00500FA6E00
:10139000DE50FD6EDE50FE6EF850FF6EFA50120009
:1013A000E806D8A496D70C50100DF3506A0FD96EEA
:1013B000DA6A0001DF900C50100DF350640FD96E03
:1013C000DA6A000EDF6E0C060CBE120032D7000E79
:1013D000366E010E356E22C037F00ED035C00BF0E0
:1013E00036C00CF0000E0E6E0A0E0D6ED1EC10F031
:1013F0000BC035F00CC036F037063728D8A4EED72E
:101400003550235C2450800A256E3650800A2558BA
:10141000D8A006D0FF0E3524236EFF0E3620246E92
:101420002A0E1A6E23C01BF024C01CF0000E1E6E84
:101430000A0E1D6E89EC10F0000E376E13D00B0EE5
:10144000F66E080EF76E37C025F0266A25BE260612
:1014500025502024D96E26502120DA6E0800F5CFC1
:10146000DFFF372A3750800A256E2250800A255C1C
:10147000D8A0E5D7000E376E2A0E0B6EF6EC10F0F2
:101480000B04346E21D037502A0FD96EDA6ADF5040
:10149000256ED00E25262550010F266E26C0F6FF9C
:1014A000080EF76E0800F5CF27F034C028F0296A3F
:1014B00028BE290628502024D96E29502120DA6E12
:1014C0002750DF123406372A37502A0FD96EDA6ACE
:1014D000DF50D8B41200D7D715C019F01A6A1B6AAA
:1014E0001434193601E31A8019501C6E1C50D8A40C
:1014F00007D0000E136E000E146E000E156E120053
:1015000018C019F01A6A1B6A1734193601E31A80D9
:101510001950216E2150D8A407D0000E136E000E72
:10152000146E000E156E120021507B0F1C2615C084
:1015300021F01850211A800E2116148E178EFF0EDE
:101540001616FF0E1716000E1816000E1D6E000E52
:101550001E6E000E1F6E070E206E13A006D01650D2
:101560001D2617501E2218501F22D89015321432F3
:101570001332D890163617361836202EEED7090EAD
:10158000206E13A006D016501D2617501E2218508C
:101590001F22D890153214321332D8901F321E32C7
:1015A0001D32202EEED71DC00BF01EC00CF01FC048
:1015B0000DF01CC00EF021C00FF00BEC0CF00BC0B6
:1015C00013F00CC014F00DC015F0120024C026F06A
:1015D000276A286A2334263601E327802650306E96
:1015E0003050D8A409D0000E226E000E236E000EDB
:1015F000246E000E256E1200170E266E22C027F0F4
:1016000023C028F024C029F026282A6E04D0D890C0
:101610002932283227322A2EFAD727502B6E238ED2
:10162000FF0E2216FF0E2316000E241622502C6EDB
:1016300023502D6E24502E6E2F6A8E0E305E30AEEB
:101640000DD03050800A8F0FD8A0CDD7D8902F3230
:101650002E322D322C32303EF9D70DD0170E306499
:1016600007D0C1D7D8902C362D362E362F363006DF
:101670003050D8A4F7D72B50D8B408D02F1E2E1E28
:101680002D1E2C6C000E2D222E222F222CC022F07B
:101690002DC023F02EC024F02FC025F01200000E24
:1016A000446E000E456E000E896E000E8B6E000EAD
:1016B0008C6E000E8D6E000E8A6E0F0EC16ECF0EF8
:1016C000B46E000E6D6E080E6F6E870ED56ED76805
:1016D000D10ED66EF28A8D809690959095929594C3
:1016E00095968B929492968294809684B0EC0BF0AF
:1016F000D0EC0EF06DEC10F073EC11F0010EC96F30
:10170000F28ECCA102D0CC914F804FA017D0442AAA
:10171000140E4418D8A409D0000E446ECBB105D0E5
:1017200079EC11F0010E0001C96F452A030E45182E
:10173000D8A404D0000E456E88EC0DF00001CA0557
:10174000D8A406D0CBA3B2EC0CF0CBA5FEEC0DF0E8
:101750009EEC0EF047EC0DF04F90B1EC11F0D1D7AC
:101760009488948A948C948E95884C0E0001606FB6
:10177000230E616F060E706F230E716FFC0E806F6B
:10178000220E816F5C0E906F230E916F540EA06F2E
:10179000230EA16F000E0B6E0B50100DF3506A0F4D
:1017A000D96EDA6ADF820B50100DF3506A0FD96ED2
:1017B000DA6ADF940B50100DF3506A0FD96EDA6AB3
:1017C000DF960B50100DF3506A0FD96EDA6ADF9A6C
:1017D0000B50100DF350690FD96EDA6A000EDF6EF0
:1017E0000B50100DF3506C0FD96EDA6A640EDE6E7A
:1017F000000EDD6E0B50100DF3506E0FD96EDA6ACD
:10180000280EDE6E000EDD6E0B2A0B50800A7B0F59
:10181000D8B01200C1D70E50D8B405D00B500C1060
:101820000D10D8A40CD0000E0B6E000E0C6E000E26
:101830000D6E12000E2AD8900D320C320B32000EB3
:101840000B14106E000E0C14116EFE0E0D14126EA1
:10185000105011101210D8B40CD0ECD70E2A010E73
:101860000B26000E0C22000E0D22D8900D320C32E9
:101870000B32000E0B14106E000E0C14116EFF0EC6
:101880000D14126E105011101210D8B406D0E6D7F5
:101890000E06D8900B360C360D360CBE03D0020E59
:1018A0000E60F6D70EA00C9ED8900E320E500D1280
:1018B0000F50D8A40D8E0BC00BF00CC00CF00DC057
:1018C0000DF01200116E000E126E11C00BF0010E21
:1018D0000C6E000E0D6E0B2A03D0D8900C360D3610
:1018E0000B2EFBD712C00EF0010E0F6E000E106E05
:1018F0000E2A03D0D8900F3610360E2EFBD70C5080
:101900000F160D5010160F501010D8B412D01250E0
:10191000040DF350CF0FD96EDA6A01D81CD0050040
:10192000FA6EDE50FD6EDE50FE6EF850FF6EFA501D
:1019300012001250040DF350CD0FD96EDA6A01D89F
:101940000AD00500FA6EDE50FD6EDE50FE6EF850D5
:10195000FF6EFA501200122A1250800A7B0FD8B084
:101960001200B3D7BB51D8A405D05BEC11F0000135
:10197000BB2B41D0BB05D8A406D06CEC11F00009FC
:10198000D8A4F5D738D0020EBB19D8A419D0BA51B3
:101990001F6E206A1FBE20069FEC0FF00009D8B40E
:1019A00006D00001BA51BAEC10F00001BB2B0001C7
:1019B000BA2B080EBA19D8A41ED0000EBA6F1BD0CD
:1019C000030EBB19D8A40CD06CEC11F00009D8B4EC
:1019D00012D0000E0C6E010E0B6E88EC11F0C7D702
:1019E000040EBB19D8A407D064EC11F00009D8B4D8
:1019F00002D0020EBB6F000E120013C017F014C00D
:101A000018F017C00BF018C00CF015C00DF016C080
:101A10000EF02BEC0FF00BC017F00CC018F0122AD0
:101A200017501810D8A4EDD71250D96EDA6A000EEC
:101A3000DF6E120613C00BF014C00CF015C00DF0D1
:101A400016C00EF00BEC10F00B50196E13C00BF01B
:101A500014C00CF015C00DF016C00EF02BEC0FF0FA
:101A60000BC013F00CC014F0090E196402D0070E5D
:101A70001926300E19261250D96EDA6A19C0DFFF06
:101A8000120613501410D8A4D5D7122A1200C05130
:101A9000D8A410D0030E4D18D8B404D0020E4D189F
:101AA000D8A402D0C02B12004D04D8A41200020EFC
:101AB000C06F1200C005D8A413D04A504B10D8A450
:101AC0001200020E4D18D8A405D001013AA103D08E
:101AD0003A9101D04D500001C02B000EBF6F120093
:101AE000020EC019D8A40AD04FA01200BF2B0A0EB4
:101AF000BF19D8A41200010E4D6ED4D7030EC01921
:101B0000D8A412004D50D8A41200000EC06F1200CD
:101B10004E04156E15AE02D0040E156E1550040D50
:101B2000F350CD0FD96EDA6A01D80AD00500FA6EEB
:101B3000DE50FD6EDE50FE6EF850FF6EFA50120061
:101B40004E50800A7D0FD8B007D03B0E4E24D96E80
:101B5000DA6A010EDA220BD04EC013F0146A13BEFB
:101B600014063B0E1324D96E010E1420DA6EDF50DA
:101B70008A6E4E5062EC0CF04E2A050E4E18D8A418
:101B80001200000E4E6E120018AE0FD0000E1C6E2A
:101B9000000E1D6E800E1E6E16501C5C166E1750C9
:101BA0001D58176E18501E58186E1BAE0FD0000E21
:101BB0001C6E000E1D6E800E1E6E19501C5C196E80
:101BC0001A501D581A6E1B501E581B6E000E161A06
:101BD000000E171A800E181A000E191A000E1A1A83
:101BE000800E1B1A1950165C1A5017581B501858A3
:101BF000D8B002D0D8901200D8801200000E436EE8
:101C0000000E25EC11F00009D8B40DD0B92BB95154
:101C1000800A770FD8A005D0000EB96F010E436E71
:101C200002D0010EB86F010E25EC11F00009D8B4F6
:101C30000AD0B907B9AF05D0080EB96F010E436ECF
:101C400002D0010EB86F020E25EC11F0030E25EC48
:101C500011F0040E25EC11F0B805D8A406D0B95146
:101C600037EC0EF0000E0001B86F43501200426EC8
:101C70000001C905D8A41200010E4224386EE86A9A
:101C8000D8B0E82A42BEE806396E4EEC11F0425058
:101C9000800A780FD8B017D04250060D060EF324F4
:101CA000D96E010EF420DA6EDECF3FF0DECF40F0C9
:101CB000DDCF41F03FC03CF040C03DF041C03EF0C0
:101CC00016EC11F0120001013651386E396A38BE37
:101CD000390641EC11F012000E0EF66E220EF76E70
:101CE000000EF86E00EECDF010EE1EF00900F5CFFC
:101CF000EEFFE550E150FAE1900EF66E230EF76E1E
:101D0000000EF86E0900F5CF50F001EE00F0400E25
:101D1000EE6AE806FDE100EE60F06D0EEE6AE806A0
:101D2000FDE100EE46F00A0EEE6AE806FDE1519094
:101D30005192000EF86E00014FEF0BF0B551B61145
:101D4000D8B41200B751D8A405D08D90000EBE6F44
:101D5000B72B1200B705D8A40CD04FA01200BE2B91
:101D6000320EBE19D8A41200000EBE6FB72B8D80A4
:101D70001200020EB719D8A412004FA01200BE2BF9
:101D8000320EBE19D8A41200000EBE6F000EB76F3F
:101D9000B507D8A0B607B551B611D8B412001200D5
:101DA000000E0C6E0B0EF66E080EF76E3E0E0C2437
:101DB000D96EDA6A010EDA220800F5CFDFFF0C2AAD
:101DC0000C50800A7E0FD8A0EDD7000E0C6E0B0EC3
:101DD000F66E080EF76E3B0E0C24D96EDA6A010E11
:101DE000DA220800F5CFDFFF0C2A0C50800A7D0FA5
:101DF000D8A0EDD7000E936E4DEC10F01200000E3F
:101E0000036E4A504B10D8B424D04C502CEC10F038
:101E10004C504826000E4CBEFF0E492284CF02F0E3
:101E2000D890023202B006D0000E4B6E000E4A6E01
:101E3000010E036E4A5048180CE14B504918D8A4C3
:101E400008D0000E4B6E000E4A6E010E036E0101AB
:101E50003A8103501200000E116E000E106E0D50EC
:101E60000E10D8B41CD0010E0F6E04D0D8900D36D1
:101E70000E360F2A0EAEFAD7D890103611360D5006
:101E80000B5C0E500C58D8A005D00D500B5E0E50B8
:101E90000C5A1080D8900E320D320F2EEDD710C094
:101EA0000BF011C00CF012000D6E0D50100DF35020
:101EB000690FD96EDA6ADF50D8B41AD00D50100D00
:101EC000F350690FD96EDA6ADF500B6E0B50B00F0A
:101ED000D96EDA6ADE04D8A40BD00D50100DF35081
:101EE0006B0FD96EDA6A0001DFB002D0000E12006B
:101EF000010E12000600FACF05F0FBCF06F0D9CF95
:101F000007F0DACF08F0F3CF09F0F4CF0AF0F2A42B
:101F100008D00001CC81C3EC0FF0F294D768D10E49
:101F2000D66E0AC0F4FF09C0F3FF08C0DAFF07C08D
:101F3000D9FF06C0FBFF05C0FAFF51921100000E49
:101F4000166E000E176E000E186E1FC00BF020C02C
:101F50000CF0000E0E6E060E0D6ED1EC10F0060E9B
:101F60000B24D96E010E0C20DA6EDECF19F0DECF15
:101F70001AF0DDCF1BF0C4EC0DF0D8B002D0010E8A
:101F80001200000E1200020E4D18D8A403D0FFEC70
:101F90000EF01200030E4D18D8A403D0E7EC0FF09A
:101FA00012004D04D8A41200000E4B6E000E4A6EB3
:101FB00001D80AD00500FA6EE951FD6EEA51FE6EB5
:101FC000F850FF6EFA501200000E4D6E1200000E17
:101FD000026E4A504B10D8B41CD04C502CEC10F070
:101FE0004C504826000E4CBEFF0E49224C5046264F
:101FF000000E4CBEFF0E47224A5048180AE14B50D3
:102000004918D8A406D0000E4B6E000E4A6E010E81
:10201000026E025012000D500E10D8B418D0010EEE
:102020000F6E04D0D8900D360E360F2A0EAEFAD7AA
:102030000D500B5C0E500C58D8A004D00D500B5E08
:102040000E500C5AD8900E320D320F2EF1D70BC015
:102050000BF00CC00CF01200016E50500124506EB9
:102060005050800A7C0FD8A002D0000E506E50AEA7
:1020700002D0030E506E5050020DF350E10FD96E96
:10208000DA6A01D812000500FA6EDE50FD6EDE50ED
:10209000FE6EF850FF6EFA501200000E0B6E0B50E1
:1020A000040DF350CD0FD96EDA6A01D80AD00500BD
:1020B000FA6EDE50FD6EDE50FE6EF850FF6EFA5086
:1020C00012000B2A0B50800A7B0FD8A0E8D79298F9
:1020D00092969294929292901200000E0101036FD8
:1020E0003C0E026F000E0B6E0B50060D060EF32415
:1020F000D96E010EF420DA6E000EDE6E400EDE6E3A
:10210000410EDE6E0B2A0B50800A780FD8B01200F9
:10211000EBD71CAE0AD01A50D96EDA6A2D0EDF6EDC
:102120001A2A1B6C1C1ED8B01C2A1AC012F01BC025
:1021300013F01CC014F01DC015F01EC016F0FDEC0D
:102140000CF0120011501210D8B4120012BE05D0BB
:10215000000E146E010E136E02D01368146813C0C3
:102160004CF0000E496E000E486E11C04AF012C0CD
:102170004BF01200156E15500B6E0C6A0BBE0C0660
:10218000000E0E6EC80E0D6ED1EC10F046500B5CBA
:10219000116E47500C58126EA2EC10F0030E4D6EEB
:1021A00012000B500D02F3CF0FF0F4CF10F00B50D4
:1021B0000E02F35010260C500D02F35010260FC0E3
:1021C0000BF010C00CF0120013C00BF014C00CF098
:1021D0000D6A8E0E0E6E000E0F6E0BEC0CF00BC027
:1021E00013F00CC014F00DC015F012000BC00DF070
:1021F00001D00D2A0D50D96EDA6ADF50D8A4F9D774
:102200000B500D5C0B6E0C6A0BBE0C061200882383
:10221000842380237C237823742370236C236823F6
:102220008C232E2324231A23382342233B0E316E82
:10223000010E326E030E336E3CC034F03DC035F0FB
:102240003EC036F01FEC07F012000B6E0B50100D65
:10225000F3506A0FD96EDA6A0001DFAC02D0010ECA
:102260001200000E1200000E0B6E0B50100DF350FA
:102270006A0FD96EDA6ADF9C0B2A040E0B64F5D75D
:1022800012003B0E206E010E216E030E226E38C02E
:1022900023F039C024F0E7EC09F012003E0E206E66
:1022A000010E216E020E226E38C023F039C024F0D8
:1022B000E7EC09F01200F90E126EAC0E116EA2ECF2
:1022C00010F0020E4D6E1200B551B611D8A402D016
:1022D000010E1200000E12004D50D8A402D0010EC3
:1022E0001200000E1200000E0001B96F010EB86F4F
:1022F000120017EC09F007EC04F012008244E846E3
:10230000030B010B12008238E842070B010B12008D
:102310000BC0B5F00CC0B6F012008C908C828C947F
:102320008C9612008C908C928C848C9612008C90DF
:102330008C928C948C8612008C808C928C948C96CF
:1023400012008C908C928C948C96120082380F0B19
:10235000010B120083380F0B010B12008244010B9A
:10236000120033EC11F012008980120089921200E1
:1023700089821200899412008984120089961200C1
:1023800089861200899812008988120089901200AB
:01239000FF4D
:020000040020DA
:08000000FFFFFFFFFFFFFFFF00
:020000040030CA
:0E000000240E381EFF8181FF0FC00FE00F405D
:00000001FF
