:0400000007EF00F016
:0A00080055825EED10F020EF0FF0BE
:10080000003F065B4F666D7C077F6716202E440015
:100810004000000E236E2350100DF350660FD96E6A
:10082000DA6ADF50D8A48BD0235038EC10F00009DE
:10083000D8B485D02350100DF3506A0FD96EDA6A00
:100840000001DFA07CD02350100DF3506A0FD96E49
:10085000DA6ADFA21FD02350100DF3506A0FD96E51
:10086000DA6ADF8C2350100DF3506A0FD96EDA6A02
:10087000DFAA08D02350100DF350660FD96EDA6A44
:10088000060E37D02350100DF350660FD96EDA6A7A
:10089000010E2FD02350100DF3506A0FD96EDA6A73
:1008A000DFA408D02350100DF350660FD96EDA6A1A
:1008B000050E1FD02350100DF3506A0FD96EDA6A5F
:1008C000DFA608D02350100DF350660FD96EDA6AF8
:1008D000030E0FD02350100DF3506A0FD96EDA6A51
:1008E000DFA808D02350100DF350660FD96EDA6AD6
:1008F000040EDF6E2350100DF3506B0FD96EDA6AC1
:10090000DF822350100DF350690FD96EDA6ADF5081
:10091000D8B415D02350100DF350690FD96EDA6A90
:10092000DF501F6E1F50B00FD96EDA6A010EDF6EF6
:100930002350100DF3506B0FD96EDA6ADF8023500D
:10094000100DF350660FD96EDA6A050EDF6424D0FD
:100950002350100DF350660FD96EDA6A090EDF606E
:100960001BD02350100DF3506A0FD96EDA6A0001C4
:10097000DFB012D02350100DF350670FD96EDA6A32
:10098000000EDE6E000EDD6E2350100DF350660F6C
:10099000D96EDA6A020EDF6E2350100DF350660F27
:1009A000D96EDA6A060EDE18D8A427D02350100DAF
:1009B000F3506C0FD96EDA6A2350100DF350670FA5
:1009C000E16EE26AE62A000EE522DE50E65CDE50C9
:1009D000E658D8A012D02350100DF350670FD96EEF
:1009E000DA6A000EDE6E000EDD6E2350100DF3503D
:1009F000660FD96EDA6A070EDF6E2350100DF350C2
:100A0000660FD96EDA6A070EDE18D8A418D0235004
:100A1000100DF3506A0FD96EDA6A0001DFBC0FD0F7
:100A20002350100DF3506A0FD96EDA6ADF8C235011
:100A3000100DF350660FD96EDA6A080EDF6E235080
:100A4000100DF350660FD96EDA6A080EDE18D8A4BE
:100A500027D02350100DF3506E0FD96EDA6A235051
:100A6000100DF350670FE16EE26AE62A000EE522F0
:100A7000DE50E65CDE50E658D8A012D02350100DB0
:100A8000F350670FD96EDA6A000EDE6E000EDD6E6F
:100A90002350100DF350660FD96EDA6A070EDF6E21
:100AA0002350100DF350660FD96EDA6A050EDE186A
:100AB000D8A418D02350100DF3506A0FD96EDA6AFB
:100AC0000001DFB00FD02350100DF3506A0FD96E24
:100AD000DA6ADF8C2350100DF350660FD96EDA6A94
:100AE000020EDF6E2350100DF350660FD96EDA6AD6
:100AF000030EDE18D8A49CD02350100DF350670FBE
:100B0000D96EDA6ADE2A000EDD222350100DF35072
:100B10006A0FD96EDA6A0001DFB03DD0000E166EA2
:100B2000480E176E430E186E2350100DF350670FCA
:100B3000D96EDA6ADECF13F0DDCF14F0ECEC11F0F1
:100B400013C019F014C01AF015C01BF0E6EC0EF03B
:100B5000D8A021D02350100DF350670FD96EDA6A58
:100B6000000EDE6E000EDD6E2350100DF3506A0F86
:100B7000D96EDA6A0001DF8C2350100DF3506A0F32
:100B8000D96EDA6ADF9E2350100DF350660FD96ECE
:100B9000DA6A020EDF6E000E166E480E176E430EF6
:100BA000186E2350100DF350670FD96EDA6ADECF3E
:100BB00013F0DDCF14F0ECEC11F013C019F014C0F9
:100BC0001AF015C01BF0E6EC0EF0D8B031D023506F
:100BD000100DF350670FD96EDA6A000EDE6E000E4C
:100BE000DD6E2350100DF3506A0FD96EDA6A0001E2
:100BF000DF8C2350100DF3506A0FD96EDA6ADF8E46
:100C00002350100DF3506A0FD96EDA6ADFBA08D09C
:100C10002350100DF350660FD96EDA6A010E07D01B
:100C20002350100DF350660FD96EDA6A080EDF6E8E
:100C30002350100DF350660FD96EDA6A040EDE18D9
:100C4000D8A48CD02350100DF350670FD96EDA6AF8
:100C5000DE2A000EDD222350100DF3506A0FD96EEC
:100C6000DA6A0001DFB03DD0000E166E480E176E36
:100C7000430E186E2350100DF350670FD96EDA6AC9
:100C8000DECF13F0DDCF14F0ECEC11F013C019F04F
:100C900014C01AF015C01BF0E6EC0EF0D8A021D05D
:100CA0002350100DF350670FD96EDA6A000EDE6E16
:100CB000000EDD6E2350100DF3506A0FD96EDA6A04
:100CC0000001DF8C2350100DF3506A0FD96EDA6AE1
:100CD000DF9E2350100DF350660FD96EDA6A020EB4
:100CE000DF6E2350100DF350670FD96EDA6ADECF36
:100CF00013F0DDCF14F0ECEC11F013C016F014C0BB
:100D000017F015C018F0000E196E160E1A6E440E6C
:100D10001B6EE6EC0EF0D8A021D02350100DF3503E
:100D2000670FD96EDA6A000EDE6E000EDD6E23509C
:100D3000100DF3506A0FD96EDA6A0001DF8C235070
:100D4000100DF3506A0FD96EDA6ADF8E2350100D42
:100D5000F350660FD96EDA6A010EDF6E2350100D64
:100D6000F350660FD96EDA6ADE04D8A411D023508E
:100D7000100DF3506A0FD96EDA6A0001DFB008D0A7
:100D80002350100DF350660FD96EDA6A020EDF6E33
:100D90002350100DF350660FD96EDA6A020EDE187A
:100DA000D8A411D02350100DF3506A0FD96EDA6A0F
:100DB0000001DFBC08D02350100DF350660FD96E30
:100DC000DA6A090EDF6E2350100DF350660FD96EEC
:100DD000DA6A090EDE18D8A42FD02350100DF35074
:100DE000690FD96EDA6ADF50D8B416D02350100DCF
:100DF000F350690FD96EDA6ADF501F6E1F50B00FC3
:100E0000D96EDA6A000EDF6E2350100DF3506B0FAF
:100E1000D96EDA6A0001DF902350100DF350660F8F
:100E2000D96EDA6A000EDF6E2350100DF3506B0F8F
:100E3000D96EDA6A0001DF92232A040E2364EBD410
:100E40001200000E0001F66F800EF76F3F0EF86F74
:100E500033C0F9F014D0F6C013F0F7C014F0F8C0A6
:100E600015F0000E166E200E176E410E186EE0EC97
:100E70000AF013C0F6F014C0F7F015C0F8F0000146
:100E8000F907F929D8A4E7D734C016F035C017F010
:100E900036C018F0F6C019F0F7C01AF0F8C01BF011
:100EA000E6EC0EF0D8A014D0F6C016F0F7C017F09C
:100EB000F8C018F0000E196E800E1A6EBF0E1B6E71
:100EC0002FEC08F016C034F017C035F018C036F01B
:100ED00031C00BF032C00CF033C00DF072EC11F0E9
:100EE000000E0001F66F800EF76F3F0EF86F000ED8
:100EF000F96F74D034C016F035C017F036C018F052
:100F0000F6C019F0F7C01AF0F8C01BF0E6EC0EF0CE
:100F1000D8B04ED00001F951800A376E3350800AA4
:100F2000375CD8B036D0000E166E200E176E410E0C
:100F3000186E34C013F035C014F036C015F0E0EC74
:100F40000AF013C022F014C023F015C024F05AECAC
:100F50000BF022C0F3F023C0F4F00001F951D8A443
:100F60000DD0010EF66E080EF76E20EE01F0315036
:100F7000D9263250DA220800F5CFDFFF20EE01F04B
:100F80003150D9263250DA22000EDB8EF9C0F5F04E
:100F90002DD034C022F035C023F036C024F05AECF6
:100FA0000BF022C0F3F023C0F4F00001F905F56F57
:100FB000F6C013F0F7C014F0F8C015F0000E166E6E
:100FC000200E176E410E186EE0EC0AF013C0F6F01A
:100FD00014C0F7F015C0F8F00001F92B3350800A67
:100FE000376EF951800A375CD8B084D7E90E1A6E93
:100FF000F3C01BF0F4C01CF0000E1E6E0A0E1D6E36
:1010000091EC11F0000E0001F96F21D0F951E90FB8
:10101000D96EDA6ADF50376ED00E37263750010F9F
:10102000386E38C0F6FF080EF76E0800F5CF39F0BD
:10103000F5C03AF03B6A3ABE3B063A503124D96ECD
:101040003B503220DA6E3950DF12F507F92BF95197
:10105000E90FD96EDA6ADF50D8B41200D7D718C0BA
:101060001CF01D6A1E6A17341C3601E31D801C50DB
:10107000216E1BC01CF01D6A1E6A1A341C3601E367
:101080001D801C50206E2150D8B40AD02050215C05
:10109000D8B00DD02150205C1C6E180E1C6407D0F7
:1010A00019C016F01AC017F01BC018F0120020501B
:1010B000D8B40AD02150205CD8B00DD02050215C8B
:1010C0001C6E180E1C6407D016C016F017C017F05F
:1010D00018C018F01200060E1F6E18BE1F8E1BBE21
:1010E0001F8C178EFF0E1616FF0E1716000E181601
:1010F0001A8EFF0E1916FF0E1A16000E1B16205020
:10110000215CD8B01BD0D89019361A361B36200671
:1011100021502018D8B40DD01F061FC01CF0070E98
:101120001C16D8B406D0EFD7D89018321732163222
:10113000212A20502118D8B41FD0F6D72150205C86
:10114000D8B01AD0D8901636173618362106215046
:101150002018D8B40DD01F061FC01CF0070E1C1697
:10116000D8B406D0EFD7D8901B321A321932202AC1
:1011700020502118D8A4F7D71FAE0CD0FF0E161A96
:10118000FF0E171AFF0E181A010E1626000E172250
:10119000000E18221FAC0CD0FF0E191AFF0E1A1ADF
:1011A000FF0E1B1A010E1926000E1A22000E1B221A
:1011B000000E1F6E1650192617501A2218501B22A7
:1011C0001BAE0ED0FF0E191AFF0E1A1AFF0E1B1AB5
:1011D000010E1926000E1A22000E1B22010E1F6E90
:1011E00019C00BF01AC00CF01BC00DF021C00EF09E
:1011F0001FC00FF01EEC0CF00BC016F00CC017F067
:101200000DC018F01200040E0C6E0C50100DF350AF
:10121000640FD96EDA6ADF50D8A416D00C50100DC6
:10122000F350600FD96EDA6A01D80AD00500FA6E61
:10123000DE50FD6EDE50FE6EF850FF6EFA5012006A
:101240000009D8A4ACD041D00C50100DF350640F5D
:10125000D96EDA6ADE04D8A440D00C50100DF350D9
:10126000650FD96EDA6ADF2A040EDE18D8A497D08B
:101270000C50100DF350650FD96EDA6A000EDF6E58
:101280000C50100DF350600FD96EDA6A01D80AD0F5
:101290000500FA6EDE50FD6EDE50FE6EF850FF6EF9
:1012A000FA5012000009D8B408D00C50100DF350B9
:1012B000640FD96EDA6ADF0672D00C50100DF3504D
:1012C0006A0FD96EDA6A0001DF800C50100DF350FE
:1012D000640FD96EDA6ADF2A62D00C50100DF35019
:1012E000640FD96EDA6A020EDE18D8A416D00C503C
:1012F000100DF350600FD96EDA6A01D80AD00500DC
:10130000FA6EDE50FD6EDE50FE6EF850FF6EFA5043
:101310001200E806D8B4D9D742D00C50100DF350C3
:10132000640FD96EDA6A030EDE18D8A438D00C50D8
:10133000100DF350650FD96EDA6ADF2A040EDE183D
:10134000D8A42DD00C50100DF350650FD96EDA6A69
:10135000000EDF6E0C50100DF350600FD96EDA6A7C
:1013600001D80AD00500FA6EDE50FD6EDE50FE6E2A
:10137000F850FF6EFA501200E806D8A496D70C5029
:10138000100DF3506A0FD96EDA6A0001DF900C502D
:10139000100DF350640FD96EDA6A000EDF6E0C0682
:1013A0000CBE120032D7000E446E000E456E000EC9
:1013B000476E000E896E000E8B6E000E8C6E000E56
:1013C0008D6E000E8A6E0F0EC16ECF0EB46E000EC3
:1013D0006D6E080E6F6E870ED56ED768D10ED66E05
:1013E000F28A8D80969095909592959495968B9291
:1013F0009492968294809684C3EC0BF0B4EC0FF038
:1014000084EC0FF00001C881C883C895000EEFEC92
:1014100010F0000EC66F010EC76FF28ECAA102D087
:10142000CA91C981C9A129D0442A140E4418D8A44C
:101430001BD0000E446EC8A117D095EC12F0475097
:10144000D8A40AD06DEC0EF00009D8B40DD0010E6E
:10145000476E010EC66F08D04704D8B405D0020EFF
:101460000001C76F010EC76F452A030E4518D8A4A7
:1014700004D0000E456EAAEC0EF00001C705D8A4FA
:1014800014D0C8B360EC0DF00001C8A50ED075EC07
:101490000CF0466E4604D8A408D0C895000E476EDE
:1014A000000EC66F010EEFEC10F052EC0FF0EEECF8
:1014B0000DF0C991B3D7000E366E010E356E22C005
:1014C00037F00ED035C00BF036C00CF0000E0E6EAB
:1014D0000A0E0D6ED9EC11F00BC035F00CC036F0D1
:1014E00037063728D8A4EED73550235C2450800A1D
:1014F000256E3650800A2558D8A006D0FF0E352418
:10150000236EFF0E3620246E2A0E1A6E23C01BF0A7
:1015100024C01CF0000E1E6E0A0E1D6E91EC11F020
:10152000000E376E13D00F0EF66E080EF76E37C032
:1015300025F0266A25BE260625502024D96E265081
:101540002120DA6E0800F5CFDFFF372A3750800AF6
:10155000256E2250800A255CD8A0E5D7000E376E94
:101560002A0E0B6EFEEC11F00B04346E21D03750B6
:101570002A0FD96EDA6ADF50256ED00E2526255047
:10158000010F266E26C0F6FF080EF76E0800F5CF95
:1015900027F034C028F0296A28BE290628502024C4
:1015A000D96E29502120DA6E2750DF123406372AEF
:1015B00037502A0FD96EDA6ADF50D8B41200D7D765
:1015C00015C019F01A6A1B6A1434193601E31A801F
:1015D00019501C6E1C50D8A407D0000E136E000EBC
:1015E000146E000E156E120018C019F01A6A1B6AEC
:1015F0001734193601E31A801950216E2150D8A4EE
:1016000007D0000E136E000E146E000E156E120041
:1016100021507B0F1C2615C021F01850211A800E76
:101620002116148E178EFF0E1616FF0E1716000EBB
:101630001816000E1D6E000E1E6E000E1F6E070E99
:10164000206E13A006D016501D2617501E221850CB
:101650001F22D890153214321332D890163617360E
:101660001836202EEED7090E206E13A006D0165085
:101670001D2617501E2218501F22D89015321432E2
:101680001332D8901F321E321D32202EEED71DC0CD
:101690000BF01EC00CF01FC00DF01CC00EF021C0DE
:1016A0000FF01EEC0CF00BC013F00CC014F00DC0CA
:1016B00015F0120024C026F0276A286A2334263643
:1016C00001E327802650306E3050D8A409D0000E98
:1016D000226E000E236E000E246E000E256E120088
:1016E000170E266E22C027F023C028F024C029F050
:1016F00026282A6E04D0D8902932283227322A2E62
:10170000FAD727502B6E238EFF0E2216FF0E2316BC
:10171000000E241622502C6E23502D6E24502E6E57
:101720002F6A8E0E305E30AE0DD03050800A8F0F93
:10173000D8A0CDD7D8902F322E322D322C32303E39
:10174000F9D70DD0170E306407D0C1D7D8902C36FA
:101750002D362E362F3630063050D8A4F7D72B50E2
:10176000D8B408D02F1E2E1E2D1E2C6C000E2D223C
:101770002E222F222CC022F02DC023F02EC024F0C8
:101780002FC025F012009488948A948C948E9588AA
:10179000840E0001606F250E616F3E0E706F250E86
:1017A000716F340E806F250E816F940E906F250E31
:1017B000916F8C0EA06F250EA16F000E0B6E0B505B
:1017C000100DF3506A0FD96EDA6ADF820B50100DDC
:1017D000F3506A0FD96EDA6ADF940B50100DF35094
:1017E0006A0FD96EDA6ADF960B50100DF3506A0F4C
:1017F000D96EDA6ADF9A0B50100DF350690FD96E6B
:10180000DA6A000EDF6E0B50100DF3506C0FD96EBC
:10181000DA6A640EDE6E000EDD6E0B50100DF350B2
:101820006E0FD96EDA6A280EDE6E000EDD6E0B2AA0
:101830000B50800A7B0FD8B01200C1D70E50D8B41D
:1018400005D00B500C100D10D8A40CD0000E0B6E50
:10185000000E0C6E000E0D6E12000E2AD8900D3286
:101860000C320B32000E0B14106E000E0C14116EA5
:10187000FE0E0D14126E105011101210D8B40CD0B0
:10188000ECD70E2A010E0B26000E0C22000E0D22A4
:10189000D8900D320C320B32000E0B14106E000E6D
:1018A0000C14116EFF0E0D14126E10501110121048
:1018B000D8B406D0E6D70E06D8900B360C360D36C7
:1018C0000CBE03D0020E0E60F6D70EA00C9ED89070
:1018D0000E320E500D120F50D8A40D8E0BC00BF00F
:1018E0000CC00CF00DC00DF01200000E436E000E87
:1018F0002DEC12F00009D8B410D0000E55EC12F007
:10190000B92BB951800A770FD8A005D0000EB96F56
:10191000010E436E02D0010EB86F010E2DEC12F0D5
:101920000009D8B40DD0010E55EC12F0B907B9AFCB
:1019300005D0080EB96F010E436E02D0010EB86FCC
:10194000020E2DEC12F00009D8B403D0020E55ECB3
:1019500012F0030E2DEC12F00009D8B403D0030EE0
:1019600055EC12F0040E2DEC12F00009D8B403D09F
:10197000040E55EC12F0B805D8A406D0B9512FECDE
:101980000EF0000E0001B86F43501200116E000EF1
:10199000126E11C00BF0010E0C6E000E0D6E0B2AB4
:1019A00003D0D8900C360D360B2EFBD712C00EF09C
:1019B000010E0F6E000E106E0E2A03D0D8900F3657
:1019C00010360E2EFBD70C500F160D5010160F5060
:1019D0001010D8B412D01250040DF350CD0FD96EA0
:1019E000DA6A01D81CD00500FA6EDE50FD6EDE50BA
:1019F000FE6EF850FF6EFA5012001250040DF350B4
:101A0000CB0FD96EDA6A01D80AD00500FA6EDE5023
:101A1000FD6EDE50FE6EF850FF6EFA501200122A74
:101A20001250800A7B0FD8B01200B3D713C017F042
:101A300014C018F017C00BF018C00CF015C00DF052
:101A400016C00EF00FEC10F00BC017F00CC018F021
:101A5000122A17501810D8A4EDD71250D96EDA6A8E
:101A6000000EDF6E120613C00BF014C00CF015C090
:101A70000DF016C00EF010EC11F00B50196E13C0E3
:101A80000BF014C00CF015C00DF016C00EF00FECEA
:101A900010F00BC013F00CC014F0090E196402D042
:101AA000070E1926300E19261250D96EDA6A19C09F
:101AB000DFFF120613501410D8A4D5D7122A120033
:101AC0005150D8A404D05FEC12F0512A3ED05104FA
:101AD000D8A406D088EC12F00009D8A4F6D735D0E7
:101AE000020E5118D8A416D050501F6E206A1FBE87
:101AF000200683EC10F00009D8B404D05050C2EC9A
:101B000011F0512A502A080E5018D8A41ED0000EE9
:101B1000506E1BD0030E5118D8A40CD088EC12F0D4
:101B20000009D8B412D0000E0C6E010E0B6EA4EC9E
:101B300012F0CBD7040E5118D8A407D079EC12F0CC
:101B40000009D8B402D0020E516E000E1200000E31
:101B5000346E000E336E000E366E000E356E35C0DC
:101B60000BF036C00CF0000E0E6E060E0D6ED9ECAA
:101B700011F0060E0B24D96E010E0C20DA6EDECFAA
:101B800019F0DECF1AF0DDCF1BF033C013F034C0F4
:101B900014F0ECEC11F013C016F014C017F015C0DF
:101BA00018F02FEC08F016C022F017C023F018C070
:101BB00024F05AEC0BF022C033F023C034F0354A45
:101BC000362A36BECCD7365004E1080E355CD8A094
:101BD000C6D733C031F034C032F012005350D8A40D
:101BE00010D0030E4F18D8B404D0020E4F18D8A44A
:101BF00002D0532A12004F04D8A41200020E536ED2
:101C000012005304D8A413D04C504D10D8A4120085
:101C1000020E4F18D8A405D001013AA103D03A9181
:101C200001D04F50532A000E0001BD6F1200020E6A
:101C30005318D8A40AD0C9A11200BD2B0A0EBD1991
:101C4000D8A41200010E4F6ED4D7030E5318D8A497
:101C500012004F50D8A41200000E536E1200426EB4
:101C60000001C605D8A41200010E4224386EE86AAD
:101C7000D8B0E82A42BEE806396E48EC12F042506D
:101C8000800A780FD8B01FD04250060D060EF324FC
:101C9000D96E010EF420DA6EDECF3FF0DECF40F0D9
:101CA000DDCF41F03F5040104110D8A403D071EC7B
:101CB00012F012003FC03CF040C03DF041C03EF089
:101CC0001EEC12F012008FEC12F03651386E396AA9
:101CD00038BE39063BEC12F01200000E0C6E000EFE
:101CE0002DEC12F00009D8B409D0000E55EC12F01A
:101CF000000E81EC12F0C885010E0C6E010E2DEC69
:101D000012F00009D8B409D0010E55EC12F0080EFB
:101D100081EC12F0C885010E0C6E020E2DEC12F053
:101D20000009D8B403D0020E55EC12F0030E2DECCE
:101D300012F00009D8B403D0030E55EC12F0040ED3
:101D40002DEC12F00009D8B403D0040E55EC12F0BB
:101D50000C5012005204156E15AE02D0040E156E12
:101D60001550040DF350CB0FD96EDA6A01D80AD0A2
:101D70000500FA6EDE50FD6EDE50FE6EF850FF6E0E
:101D8000FA5012005250800A7D0FD8B007D03B0E97
:101D90005224D96EDA6A010EDA220BD052C013F047
:101DA000146A13BE14063B0E1324D96E010E1420C0
:101DB000DA6EDF508A6E5250C6EC0CF0522A050ED5
:101DC0005218D8A41200000E526E120018AE0FD096
:101DD000000E1C6E000E1D6E800E1E6E16501C5CDA
:101DE000166E17501D58176E18501E58186E1BAEE1
:101DF0000FD0000E1C6E000E1D6E800E1E6E195050
:101E00001C5C196E1A501D581A6E1B501E581B6E02
:101E1000000E161A000E171A800E181A000E191A44
:101E2000000E1A1A800E1B1A1950165C1A501758F9
:101E30001B501858D8B002D0D8901200D880120089
:101E40001E0EF66E240EF76E000EF86E00EECBF04E
:101E500010EE1EF00900F5CFEEFFE550E150FAE17B
:101E6000C20EF66E250EF76E000EF86E0900F5CF65
:101E700054F001EE00F0400EEE6AE806FDE100EEDF
:101E800060F06B0EEE6AE806FDE100EE48F00C0E25
:101E9000EE6AE806FDE155905592000EF86E0001DD
:101EA000D3EF09F0B551B611D8B41200B751D8A488
:101EB00005D08D90000EBC6FB72B1200B705D8A4CB
:101EC0000CD0C9A11200BC2B320EBC19D8A4120030
:101ED000000EBC6FB72B8D801200020EB719D8A46C
:101EE0001200C9A11200BC2B320EBC19D8A41200DA
:101EF000000EBC6F000EB76FB507D8A0B607B5517E
:101F0000B611D8B412001200000E0101036F3C0E8E
:101F1000026F000E0B6E0B50060D060EF324D96EE9
:101F2000010EF420DA6E000EDE6E400EDE6E410E03
:101F3000DE6E0B2A0B50800A780FD8A0ECD70B0E60
:101F4000F66E080EF76E0800F5CF36F1000E0101AF
:101F5000186F000E196F000E1A6F000E246F000E1E
:101F6000256F000E266F1200000E0C6E0F0EF66E1F
:101F7000080EF76E3E0E0C24D96EDA6A010EDA22D4
:101F80000800F5CFDFFF0C2A0C50800A7E0FD8A086
:101F9000EDD7000E0C6E0F0EF66E080EF76E3B0EB0
:101FA0000C24D96EDA6A010EDA220800F5CFDFFFC1
:101FB0000C2A0C50800A7D0FD8A0EDD7000E936E2E
:101FC00052EC11F01200000E036E4C504D10D8B4BC
:101FD00024D04E5031EC11F04E504A26000E4EBE29
:101FE000FF0E4B2284CF02F0D890023202B006D00E
:101FF000000E4D6E000E4C6E010E036E4C504A18D2
:102000000CE14D504B18D8A408D0000E4D6E000EB8
:102010004C6E010E036E01013A8103501200000E56
:10202000116E000E106E0D500E10D8B41CD0010EA3
:102030000F6E04D0D8900D360E360F2A0EAEFAD79A
:10204000D890103611360D500B5C0E500C58D8A09D
:1020500005D00D500B5E0E500C5A1080D8900E32E9
:102060000D320F2EEDD710C00BF011C00CF0120086
:102070000D6E0D50100DF350690FD96EDA6ADF50F6
:10208000D8B41AD00D50100DF350690FD96EDA6A1A
:10209000DF500B6E0B50B00FD96EDA6ADE04D8A495
:1020A0000BD00D50100DF3506B0FD96EDA6A000192
:1020B000DFB002D0000E1200010E12000600FACFAF
:1020C00005F0FBCF06F0D9CF07F0DACF08F0F3CF59
:1020D00009F0F4CF0AF0F2A408D00001CA81A7ECFD
:1020E00010F0F294D768D10ED66E0AC0F4FF09C082
:1020F000F3FF08C0DAFF07C0D9FF06C0FBFF05C029
:10210000FAFF55921100000E166E000E176E000EAB
:10211000186E1FC00BF020C00CF0000E0E6E060EE5
:102120000D6ED9EC11F0060E0B24D96E010E0C20A9
:10213000DA6EDECF19F0DECF1AF0DDCF1BF0E6EC61
:102140000EF0D8B002D0010E1200000E1200020EE6
:102150004F18D8A403D0E3EC0FF01200030E4F1871
:10216000D8A403D0CBEC10F012004F04D8A4120076
:10217000000E4D6E000E4C6E01D80AD00500FA6EAE
:10218000E751FD6EE851FE6EF850FF6EFA501200F6
:10219000000E4F6E1200000E026E4C504D10D8B45F
:1021A0001CD04E5031EC11F04E504A26000E4EBE5F
:1021B000FF0E4B224E504826000E4EBEFF0E492207
:1021C0004C504A180AE14D504B18D8A406D0000EC6
:1021D0004D6E000E4C6E010E026E025012003F6EEC
:1021E0000001C651D8A416D068EC12F0A7EC0DF08F
:1021F00031C040F032C041F040C013F041C014F093
:10220000ECEC11F013C03CF014C03DF015C03EF0F2
:102210001EEC12F03F50D8A41200000E506E1200B7
:102220000D500E10D8B418D0010E0F6E04D0D890F7
:102230000D360E360F2A0EAEFAD70D500B5C0E502F
:102240000C58D8A004D00D500B5E0E500C5AD890EC
:102250000E320D320F2EF1D70BC00BF00CC00CF06C
:102260001200016E54500124546E5450800A7C0FA9
:10227000D8A002D0000E546E54AE02D0030E546E9D
:102280005450020DF350DF0FD96EDA6A01D81200F4
:102290000500FA6EDE50FD6EDE50FE6EF850FF6EE9
:1022A000FA501200000E0B6E0B50040DF350CB0FC2
:1022B000D96EDA6A01D80AD00500FA6EDE50FD6EDA
:1022C000DE50FE6EF850FF6EFA5012000B2A0B50D3
:1022D000800A7B0FD8A0E8D7929892969294929217
:1022E00092901200000E106E13D00F0EF66E080EB4
:1022F000F76E10C00EF00F6A0EBE0F060E500B24C4
:10230000D96E0F500C20DA6E0800F5CFDFFF102ACF
:102310001050800A0E6E0D50800A0E5CD8B012006C
:10232000E4D71CAE0AD01A50D96EDA6A2D0EDF6ED1
:102330001A2A1B6C1C1ED8B01C2A1AC012F01BC013
:1023400013F01CC014F01DC015F01EC016F016ECE2
:102350000DF0120011501210D8B4120012BE05D0A8
:10236000000E146E010E136E02D01368146813C0B1
:102370004EF0000E4B6E000E4A6E11C04CF012C0B3
:102380004DF01200156E15500B6E0C6A0BBE0C064C
:10239000000E0E6EC80E0D6ED9EC11F048500B5C9D
:1023A000116E49500C58126EAAEC11F0030E4F6ECC
:1023B00012000B500D02F3CF0FF0F4CF10F00B50C2
:1023C0000E02F35010260C500D02F35010260FC0D1
:1023D0000BF010C00CF0120013C00BF014C00CF086
:1023E0000D6A8E0E0E6E000E0F6E1EEC0CF00BC002
:1023F00013F00CC014F00DC015F012000BC00DF05E
:1024000001D00D2A0D50D96EDA6ADF50D8A4F9D761
:102410000B500D5C0B6E0C6A0BBE0C061200BA253D
:10242000B625B225AE25AA25A625A2259E259A2544
:10243000BE2566255C25522570257A253B0E316E1A
:10244000010E326E030E336E3CC034F03DC035F0E9
:102450003EC036F021EC07F012000B6E0B50100D51
:10246000F3506A0FD96EDA6A0001DFAC02D0010EB8
:102470001200000E12003B0E206E010E216E030EA4
:10248000226E38C023F039C024F05BEC0AF0120051
:102490003E0E206E010E216E020E226E38C023F019
:1024A00039C024F05BEC0AF012000B6E0B50100DDB
:1024B000F3506A0FD96EDA6A0001DF9C1200F90E40
:1024C000126EAC0E116EAAEC11F0020E4F6E1200DD
:1024D0003E0E0B6E010E0C6E020E0D6E72EC11F0C4
:1024E00012003F0E01013D6F710E3C6F710E3B6F8C
:1024F0001200B551B611D8A402D0010E1200000E80
:1025000012000B6E0BC0B9F0010E0001B86F120083
:102510004F50D8A402D0010E1200000E12005C0E23
:1025200001013F6F160E3E6F120003EC09F009EC3B
:1025300004F012008244E846030B010B12008238BB
:10254000E842070B010B12000BC0B5F00CC0B6F04F
:1025500012008C908C828C948C9612008C908C92B1
:102560008C848C9612008C908C928C948C861200A9
:102570008C808C928C948C9612008C908C928C9483
:102580008C96120082380F0B010B120083380F0B50
:10259000010B12008244010B120089801200899203
:1025A000120089821200899412008984120089968F
:1025B0001200898612008998120089881200899079
:0325C0001200FF07
:020000040020DA
:08000000FFFFFFFFFFFFFFFF00
:020000040030CA
:0E000000240E381EFF8181FF0FC00FE00F405D
:00000001FF
