:0400000007EF00F016
:0A00080053821DED12F0DAEF10F044
:10080000003F065B4F666D7C077F6716202E440015
:100810004000000E236E2350100DF350660FD96E6A
:10082000DA6ADF50D8A49BD02350F7EC11F000090E
:10083000D8B495D02350100DF3506A0FD96EDA6AF0
:100840000001DFA08CD02350100DF3506A0FD96E39
:10085000DA6ADFA21FD02350100DF3506A0FD96E51
:10086000DA6ADF8E2350100DF3506A0FD96EDA6A00
:10087000DFA408D02350100DF350660FD96EDA6A4A
:10088000080E47D02350100DF350660FD96EDA6A68
:10089000010E3FD02350100DF3506A0FD96EDA6A63
:1008A000DFA608D02350100DF350660FD96EDA6A18
:1008B000060E2FD02350100DF3506A0FD96EDA6A4E
:1008C000DFA808D02350100DF350660FD96EDA6AF6
:1008D000070E1FD02350100DF3506A0FD96EDA6A3D
:1008E000DFAA08D02350100DF350660FD96EDA6AD4
:1008F000040E0FD02350100DF3506A0FD96EDA6A30
:10090000DFAC08D02350100DF350660FD96EDA6AB1
:10091000050EDF6E2350100DF3506B0FD96EDA6A9F
:10092000DF842350100DF350690FD96EDA6ADF505F
:10093000D8B415D02350100DF350690FD96EDA6A70
:10094000DF501F6E1F50B80FD96EDA6A010EDF6ECE
:100950002350100DF3506B0FD96EDA6ADF822350EB
:10096000100DF350660FD96EDA6A070EDF6424D0DB
:100970002350100DF350660FD96EDA6A0B0EDF604C
:100980001BD02350100DF3506A0FD96EDA6A0001A4
:10099000DFB012D02350100DF350670FD96EDA6A12
:1009A000000EDE6E000EDD6E2350100DF350660F4C
:1009B000D96EDA6A030EDF6E2350100DF350660F06
:1009C000D96EDA6A080EDE18D8A427D02350100D8D
:1009D000F3506C0FD96EDA6A2350100DF350670F85
:1009E000E16EE26AE62A000EE522DE50E65CDE50A9
:1009F000E658D8A012D02350100DF350670FD96ECF
:100A0000DA6A000EDE6E000EDD6E2350100DF3501C
:100A1000660FD96EDA6A090EDF6E2350100DF3509F
:100A2000660FD96EDA6A090EDE18D8A418D02350E2
:100A3000100DF3506A0FD96EDA6A0001DFBE0FD0D5
:100A40002350100DF3506A0FD96EDA6ADF8E2350EF
:100A5000100DF350660FD96EDA6A0A0EDF6E23505E
:100A6000100DF350660FD96EDA6A0A0EDE18D8A49C
:100A700027D02350100DF3506E0FD96EDA6A235031
:100A8000100DF350670FE16EE26AE62A000EE522D0
:100A9000DE50E65CDE50E658D8A012D02350100D90
:100AA000F350670FD96EDA6A000EDE6E000EDD6E4F
:100AB0002350100DF350660FD96EDA6A090EDF6EFF
:100AC0002350100DF350660FD96EDA6A060EDE1849
:100AD000D8A418D02350100DF3506A0FD96EDA6ADB
:100AE0000001DFB00FD02350100DF3506A0FD96E04
:100AF000DA6ADF8E2350100DF350660FD96EDA6A72
:100B0000030EDF6E2350100DF350660FD96EDA6AB4
:100B1000070EDE18D8A410D02350100DF3506A0F22
:100B2000D96EDA6A0001DF8E2350100DF350660F84
:100B3000D96EDA6A020EDF6E2350100DF350660F85
:100B4000D96EDA6A040EDE18D8A49CD02350100D9A
:100B5000F350670FD96EDA6ADE2A000EDD222350C9
:100B6000100DF3506A0FD96EDA6A0001DFB03DD084
:100B7000000E166E700E176E410E186E2350100D7B
:100B8000F350670FD96EDA6ADECF13F0DDCF14F0C1
:100B9000F4EC13F013C019F014C01AF015C01BF0D8
:100BA000A0EC10F0D8A021D02350100DF350670F07
:100BB000D96EDA6A000EDE6E000EDD6E2350100D67
:100BC000F3506A0FD96EDA6A0001DF8E2350100DE0
:100BD000F3506B0FD96EDA6ADF902350100DF3508B
:100BE000660FD96EDA6A030EDF6E000E166E700E97
:100BF000176E410E186E2350100DF350670FD96E0B
:100C0000DA6ADECF13F0DDCF14F0F4EC13F013C08A
:100C100019F014C01AF015C01BF0A0EC10F0D8B0F9
:100C200031D02350100DF350670FD96EDA6A000EE1
:100C3000DE6E000EDD6E2350100DF3506A0FD96E7C
:100C4000DA6A0001DF8E2350100DF3506B0FD96E5E
:100C5000DA6ADF802350100DF3506A0FD96EDA6A1A
:100C6000DFB408D02350100DF350660FD96EDA6A46
:100C7000010E07D02350100DF350660FD96EDA6ABB
:100C80000A0EDF6E2350100DF350660FD96EDA6A2C
:100C9000050EDE18D8A48CD02350100DF350670F2A
:100CA000D96EDA6ADE2A000EDD222350100DF350D1
:100CB0006A0FD96EDA6A0001DFB03DD0000E166E01
:100CC000700E176E410E186E2350100DF350670F03
:100CD000D96EDA6ADECF13F0DDCF14F0F4EC13F046
:100CE00013C019F014C01AF015C01BF0A0EC10F0DE
:100CF000D8A021D02350100DF350670FD96EDA6AB7
:100D0000000EDE6E000EDD6E2350100DF3506A0FE4
:100D1000D96EDA6A0001DF8E2350100DF3506B0F8D
:100D2000D96EDA6ADF902350100DF350660FD96E3A
:100D3000DA6A030EDF6E2350100DF350670FD96E81
:100D4000DA6ADECF13F0DDCF14F0F4EC13F013C049
:100D500016F014C017F015C018F0000E196EC80E6A
:100D60001A6E420E1B6EA0EC10F0D8A021D02350BA
:100D7000100DF350670FD96EDA6A000EDE6E000EAA
:100D8000DD6E2350100DF3506A0FD96EDA6A000140
:100D9000DF8E2350100DF3506B0FD96EDA6ADF80AF
:100DA0002350100DF350660FD96EDA6A020EDF6E13
:100DB0002350100DF350660FD96EDA6ADE04D8A402
:100DC00011D02350100DF3506A0FD96EDA6A00016A
:100DD000DFB008D02350100DF350660FD96EDA6AD9
:100DE000030EDF6E2350100DF350660FD96EDA6AD2
:100DF000020EDE18D8A418D02350100DF3506A0F3D
:100E0000D96EDA6A0001DFB00FD02350100DF35015
:100E10006A0FD96EDA6ADF9E2350100DF350660F09
:100E2000D96EDA6A0B0EDF6E2350100DF350660F89
:100E3000D96EDA6A030EDE18D8A411D02350100D33
:100E4000F3506A0FD96EDA6A0001DFBE08D0235072
:100E5000100DF350660FD96EDA6A0B0EDF6E235059
:100E6000100DF350660FD96EDA6A0B0EDE18D8A497
:100E70002FD02350100DF350690FD96EDA6ADF506E
:100E8000D8B416D02350100DF350690FD96EDA6A1A
:100E9000DF501F6E1F50B80FD96EDA6A000EDF6E7A
:100EA0002350100DF3506B0FD96EDA6A0001DF92F8
:100EB0002350100DF350660FD96EDA6A000EDF6E04
:100EC0002350100DF3506B0FD96EDA6A0001DF94D6
:100ED000232A040E23649FD41200000E286E000EF5
:100EE00055EC14F00009D8B40DD0000E9FEC14F0AE
:100EF0004B2A4B50800A770FD8A002D0000E4B6EC1
:100F0000010E4A6E010E55EC14F00009D8B40AD057
:100F1000010E9FEC14F04B064BAE02D0080E4B6E48
:100F2000010E4A6E020E55EC14F00009D8B484D0BC
:100F30004B50800A780FD8B067D04B50060D060E84
:100F4000F324D96E010EF420DA6EDE50DE10DE10CE
:100F5000D8A40FD04B50060D060EF324D96E010E07
:100F6000F420DA6E9A0EDE6E990EDE6E3E0EDE6EA6
:100F700024D04B50060D060EF324D96E010EF4203A
:100F8000DA6EDECF13F0DECF14F0DDCF15F0CD0E2C
:100F9000166ECC0E176E3D0E186ECBEC09F04B5052
:100FA000060D060EF324D96E010EF420DA6E13C07E
:100FB000DEFF14C0DEFF15C0DEFF4B50060D060E2F
:100FC000F324D96E010EF420DA6EDECF16F0DECFF8
:100FD00017F0DDCF18F0000E196E400E1A6E410E9C
:100FE0001B6EA0EC10F0D8A022D04B50060D060EC0
:100FF000F324D96E010EF420DA6E000EDE6E400E80
:10100000DE6E410EDE6E13D00101362B3651800AA2
:101010007C0FD8A002D0000E366F36510B0F256E14
:1010200025C0F6FF080EF76E0800F5CF37F1010E68
:101030004A6E020E9FEC14F0030E55EC14F00009FA
:10104000D8B48ED04B50800A780FD8B074D04B50A3
:10105000060D060EF324D96E010EF420DA6EDECFF3
:101060001FF0DECF20F0DDCF21F0CD0E226ECC0EB2
:10107000236E3D0E246E11EC13F04B50060D060E40
:10108000F324D96E010EF420DA6E1FC0DEFF20C0FB
:10109000DEFF21C0DEFF4B50D8A426D04B50060DFA
:1010A000060EF324D96E010EF420DA6EDECF16F0B0
:1010B000DECF17F0DDCF18F09A0E196E990E1A6E6A
:1010C0003E0E1B6EA0EC10F0D8B045D04B50060D74
:1010D000060EF324D96E010EF420DA6E9A0EDE6E3F
:1010E000990EDE6E3E0E25D04B50060D060EF324F3
:1010F000D96E010EF420DA6EDECF16F0DECF17F0D7
:10110000DDCF18F09A0E196E990E1A6E3E0E1B6EF8
:10111000A0EC10F0D8B01FD04B50060D060EF324F3
:10112000D96E010EF420DA6E000EDE6E000EDE6E59
:10113000000EDE6E10D00101360736AF02D0030E6E
:10114000366F36510B0F256E25C0F6FF080EF76E71
:101150000800F5CF37F1010E4A6E030E9FEC14F034
:10116000040E55EC14F00009D8B405D0010E286E19
:10117000040E9FEC14F028501200000E0001FC6FCA
:10118000800EFD6F3F0EFE6F33C0FFF014D0FCC029
:1011900013F0FDC014F0FEC015F0000E166E200E08
:1011A000176E410E186E9AEC0CF013C0FCF014C0D0
:1011B000FDF015C0FEF00001FF07FF29D8A4E7D716
:1011C00034C016F035C017F036C018F0FCC019F066
:1011D000FDC01AF0FEC01BF0A0EC10F0D8A014D097
:1011E000FCC013F0FDC014F0FEC015F0000E166E2A
:1011F000800E176EBF0E186ECBEC09F013C034F0E2
:1012000014C035F015C036F031C00BF032C00CF010
:1012100033C00DF031EC13F0000E0001FC6F800EB6
:10122000FD6F3F0EFE6F000EFF6F74D034C016F0DE
:1012300035C017F036C018F0FCC019F0FDC01AF028
:10124000FEC01BF0A0EC10F0D8B04ED00001FF5152
:10125000800A376E3350800A375CD8B036D0000E23
:10126000166E200E176E410E186E34C013F035C086
:1012700014F036C015F09AEC0CF013C022F014C034
:1012800023F015C024F07FEC0DF022C0F9F023C04C
:10129000FAF00001FF51D8A40DD0010EF66E080E31
:1012A000F76E20EE01F03150D9263250DA220800D4
:1012B000F5CFDFFF20EE01F03150D9263250DA228F
:1012C000000EDB8EFFC0FBF02DD034C022F035C005
:1012D00023F036C024F07FEC0DF022C0F9F023C0DB
:1012E000FAF00001FF05FB6FFCC013F0FDC014F025
:1012F000FEC015F0000E166E200E176E410E186E11
:101300009AEC0CF013C0FCF014C0FDF015C0FEF018
:101310000001FF2B3350800A376EFF51800A375C83
:10132000D8B084D7EF0E1A6EF9C01BF0FAC01CF0CB
:10133000000E1E6E0A0E1D6E50EC13F0000E000122
:10134000FF6F21D0FF51EF0FD96EDA6ADF50376E91
:10135000D00E37263750010F386E38C0F6FF080E12
:10136000F76E0800F5CF39F0FBC03AF03B6A3ABEA1
:101370003B063A503124D96E3B503220DA6E395058
:10138000DF12FB07FF2BFF51EF0FD96EDA6ADF5038
:10139000D8B41200D7D715C019F01A6A1B6A1434D2
:1013A000193601E31A8019501E6E18C019F01A6A16
:1013B0001B6A1734193601E31A8019501D6E1E502E
:1013C000D8B40AD01D501E5CD8B00DD01E501D5C84
:1013D000196E180E196407D016C013F017C014F058
:1013E00018C015F012001D50D8B40AD01E501D5C54
:1013F000D8B00DD01D501E5C196E180E196407D0A0
:1014000013C013F014C014F015C015F01200060E2E
:101410001C6E15BE1C8E18BE1C8C148EFF0E13166F
:10142000FF0E1416000E1516178EFF0E1616FF0E61
:101430001716000E18161D501E5CD8B01BD0D89081
:101440001636173618361D061E501D18D8B40DD086
:101450001C061CC019F0070E1916D8B406D0EFD719
:10146000D8901532143213321E2A1D501E18D8B4CB
:101470001FD0F6D71E501D5CD8B01AD0D8901336A6
:10148000143615361E061E501D18D8B40DD01C0675
:101490001CC019F0070E1916D8B406D0EFD7D89093
:1014A0001832173216321D2A1D501E18D8A4F7D72D
:1014B0001CAE0CD0FF0E131AFF0E141AFF0E151AD5
:1014C000010E1326000E1422000E15221CAC0CD0A7
:1014D000FF0E161AFF0E171AFF0E181A010E162607
:1014E000000E1722000E1822000E1C6E1350162636
:1014F000145017221550182218AE0ED0FF0E161ACF
:10150000FF0E171AFF0E181A010E1626000E1722CC
:10151000000E1822010E1C6E16C00BF017C00CF046
:1015200018C00DF01EC00EF01CC00FF0E8EC0DF05E
:101530000BC013F00CC014F00DC015F01200040E17
:101540000C6E140EE82EFED70C50100DF350640FE5
:10155000D96EDA6ADF50D8A416D00C50100DF350B3
:10156000600FD96EDA6A01D80AD00500FA6EDE5033
:10157000FD6EDE50FE6EF850FF6EFA50120000094C
:10158000D8A4AAD040D00C50100DF350640FD96EDF
:10159000DA6ADE04D8A43FD00C50100DF350650F6A
:1015A000D96EDA6ADF2ADE04D8A496D00C50100D6A
:1015B000F350650FD96EDA6A000EDF6E0C50100D15
:1015C000F350600FD96EDA6A01D80AD00500FA6EBE
:1015D000DE50FD6EDE50FE6EF850FF6EFA501200C7
:1015E0000009D8B408D00C50100DF350640FD96E18
:1015F000DA6ADF0671D00C50100DF3506A0FD96E05
:10160000DA6A0001DF800C50100DF350640FD96EC0
:10161000DA6ADF2A61D00C50100DF350640FD96ED6
:10162000DA6A020EDE18D8A416D00C50100DF35052
:10163000600FD96EDA6A01D80AD00500FA6EDE5062
:10164000FD6EDE50FE6EF850FF6EFA501200E80696
:10165000D8B4D9D741D00C50100DF350640FD96EC7
:10166000DA6A030EDE18D8A437D00C50100DF350F0
:10167000650FD96EDA6ADF2ADE04D8A42DD00C50AB
:10168000100DF350650FD96EDA6A000EDF6E0C5044
:10169000100DF350600FD96EDA6A01D80AD0050038
:1016A000FA6EDE50FD6EDE50FE6EF850FF6EFA50A0
:1016B0001200E806D8A497D70C50100DF3506A0F0B
:1016C000D96EDA6A0001DF900C50100DF350640FF0
:1016D000D96EDA6A000EDF6E0C060CBE120031D72E
:1016E000000E416E000E426E000E896E000E8B6E73
:1016F000000E8C6E000E8D6E000E8A6E0F0EC16E87
:10170000CF0EB46E000E6D6E080E6F6E870ED56E26
:10171000D768D10ED66EF28A8D809690959095926C
:10172000959495968B92949296829480968414ECDC
:101730000DF09FEC11F06FEC11F00001CB81CB9517
:10174000CB83000E9BEC13F0010E486E000E516E21
:10175000010E0001CA6FF28E0001CCA102D0CC9123
:10176000478047A013D0412A140E4118D8A405D0B1
:10177000000E416ECBB1DDEC14F0422A030E42188C
:10178000D8A404D0000E426EF0EC0FF00001CA05A0
:10179000D8A439D0CBA31ED08BEC14F0436E4304F5
:1017A000D8A406D0020E486E010E516ECB8512D021
:1017B000020E4318D8A40ED0010EB76F020ECA6FE6
:1017C000030E486E020E516ECB95CB93000ED7ECF4
:1017D00014F0898A0001CBA522D0B3EC13F0436E3C
:1017E0004304D8A409D0010E486E000E516ECB956B
:1017F000010E9BEC13F013D0020E4318D8A40FD0A7
:10180000020ECA6F0CD0020ECA19D8A408D0CAECB6
:1018100013F00009D8B403D028EC14F0899A0CEC2A
:1018200011F06AEC0FF0479097D7000E366E010E5C
:10183000356E22C037F00ED035C00BF036C00CF03C
:10184000000E0E6E0A0E0D6EE1EC13F00BC035F0BB
:101850000CC036F037063728D8A4EED73550235CB5
:101860002450800A256E3650800A2558D8A006D00C
:10187000FF0E3524236EFF0E3620246E2A0E1A6EBC
:1018800023C01BF024C01CF0000E1E6E0A0E1D6E3D
:1018900050EC13F0000E376E13D00F0EF66E080EDC
:1018A000F76E37C025F0266A25BE2606255020246F
:1018B000D96E26502120DA6E0800F5CFDFFF372AD7
:1018C0003750800A256E2250800A255CD8A0E5D7C3
:1018D000000E376E2A0E0B6E17EC14F00B04346EEC
:1018E00021D037502A0FD96EDA6ADF50256ED00E1C
:1018F00025262550010F266E26C0F6FF080EF76E2E
:101900000800F5CF27F034C028F0296A28BE290640
:1019100028502024D96E29502120DA6E2750DF125A
:101920003406372A37502A0FD96EDA6ADF50D8B416
:101930001200D7D715C019F01A6A1B6A1434193669
:1019400001E31A8019501C6E1C50D8A407D0000E59
:10195000136E000E146E000E156E120018C019F0F2
:101960001A6A1B6A1734193601E31A801950216E5E
:101970002150D8A407D0000E136E000E146E000E76
:10198000156E120021507B0F1C2615C021F0185037
:10199000211A800E2116148E178EFF0E1616FF0EBA
:1019A0001716000E1816000E1D6E000E1E6E000E8D
:1019B0001F6E070E206E13A006D016501D2617505E
:1019C0001E2218501F22D890153214321332D8908C
:1019D000163617361836202EEED7090E206E13A0B5
:1019E00006D016501D2617501E2218501F22D890C0
:1019F000153214321332D8901F321E321D32202E6F
:101A0000EED71DC00BF01EC00CF01FC00DF01CC0A7
:101A10000EF021C00FF0E8EC0DF00BC013F00CC07D
:101A200014F00DC015F012009488948A948C948E52
:101A30009588140E0001606F2A0E616FCE0E706FD4
:101A4000290E716FC40E806F290E816F2A0E906F60
:101A50002A0E916F1C0EA06F2A0EA16F6A836A97DF
:101A60006A9B6A9D6A99010E696F6A85000E6D6FA7
:101A7000190E6C6F000E6F6F0F0E6E6F7A837A9770
:101A80007A9B7A9D7A99010E796F7A85000E7D6F27
:101A9000190E7C6F000E7F6F0F0E7E6F8A938A97F0
:101AA0008A9B8A8D8A99000E896F8A95000E8D6FA8
:101AB0000F0E8C6F000E8F6F280E8E6F9A939A9771
:101AC0009A9B9A8D9A99000E996F9A95000E9D6F28
:101AD0000F0E9C6F000E9F6F280E9E6FAA93AA9701
:101AE000AA9BAA9DAA89000EA96FAA95000EAD6FA8
:101AF0000F0EAC6F000EAF6F280EAE6F120024C039
:101B000026F0276A286A2334263601E327802650E8
:101B1000306E3050D8A409D0000E226E000E236E15
:101B2000000E246E000E256E1200170E266E22C0C7
:101B300027F023C028F024C029F026282A6E04D0DC
:101B4000D8902932283227322A2EFAD727502B6EE6
:101B5000238EFF0E2216FF0E2316000E241622508F
:101B60002C6E23502D6E24502E6E2F6A8E0E305EFA
:101B700030AE0DD03050800A8F0FD8A0CDD7D8907E
:101B80002F322E322D322C32303EF9D70DD0170E97
:101B9000306407D0C1D7D8902C362D362E362F364C
:101BA00030063050D8A4F7D72B50D8B408D02F1E09
:101BB0002E1E2D1E2C6C000E2D222E222F222CC00C
:101BC00022F02DC023F02EC024F02FC025F01200EB
:101BD0000E50D8B405D00B500C100D10D8A40CD05A
:101BE000000E0B6E000E0C6E000E0D6E12000E2A13
:101BF000D8900D320C320B32000E0B14106E000E0A
:101C00000C14116EFE0E0D14126E105011101210E5
:101C1000D8B40CD0ECD70E2A010E0B26000E0C22E5
:101C2000000E0D22D8900D320C320B32000E0B1428
:101C3000106E000E0C14116EFF0E0D14126E10506B
:101C400011101210D8B406D0E6D70E06D8900B3675
:101C50000C360D360CBE03D0020E0E60F6D70EA069
:101C60000C9ED8900E320E500D120F50D8A40D8E2F
:101C70000BC00BF00CC00CF00DC00DF01200116E7B
:101C8000000E126E11C00BF0010E0C6E000E0D6EE8
:101C90000B2A03D0D8900C360D360B2EFBD712C072
:101CA0000EF0010E0F6E000E106E0E2A03D0D890AB
:101CB0000F3610360E2EFBD70C500F160D50101687
:101CC0000F501010D8B412D01250040DF350CF0F93
:101CD000D96EDA6A01D81CD00500FA6EDE50FD6EAE
:101CE000DE50FE6EF850FF6EFA5012001250040DD6
:101CF000F350CD0FD96EDA6A01D80AD00500FA6E1A
:101D0000DE50FD6EDE50FE6EF850FF6EFA5012008F
:101D1000122A1250800A7B0FD8B01200B3D713C01A
:101D200017F014C018F017C00BF018C00CF015C055
:101D30000DF016C00EF0CEEC11F00BC017F00CC079
:101D400018F0122A17501810D8A4EDD71250D96ED7
:101D5000DA6A000EDF6E120613C00BF014C00CF02E
:101D600015C00DF016C00EF0AFEC12F00B50196E4E
:101D700013C00BF014C00CF015C00DF016C00EF01F
:101D8000CEEC11F00BC013F00CC014F0090E196466
:101D900002D0070E1926300E19261250D96EDA6AB3
:101DA00019C0DFFF120613501410D8A4D5D7122A79
:101DB0001200000E0C6E000E55EC14F00009D8B4A1
:101DC00008D0000E9FEC14F0000ECAEC14F0010EC7
:101DD0000C6E010E55EC14F00009D8B408D0010EB9
:101DE0009FEC14F0080ECAEC14F0010E0C6E020EFB
:101DF00063EC14F0E806D8A41AD0020E55EC14F0E7
:101E00000009D8B414D0030E63EC14F0E806D8A48B
:101E10000ED0030E55EC14F00009D8B408D0020E11
:101E20009FEC14F0030E9FEC14F0020E0C6E040EE7
:101E300055EC14F00009D8B403D0040E9FEC14F054
:101E40000C501200000E0C6E000E55EC14F0000940
:101E5000D8B410D0000E9FEC14F0BE2BBE51800AF7
:101E6000770FD8A005D0000EBE6F010E0C6E02D009
:101E7000010EBD6F010E55EC14F00009D8B40DD061
:101E8000010E9FEC14F0BE07BEAF05D0080EBE6F6A
:101E9000010E0C6E02D0010EBD6F020E55EC14F057
:101EA0000009D8B403D0020E9FEC14F0030E55ECD9
:101EB00014F00009D8B403D0030E9FEC14F0040E04
:101EC00055EC14F00009D8B403D0040E9FEC14F0C4
:101ED0000C5012005050D8A411D0030E0001B719B5
:101EE000D8B404D0020EB719D8A402D0502A1200D8
:101EF000B705D8A41200030E506E12005004D8A4E7
:101F000014D00001B451B511D8A41200020EB719B3
:101F1000D8A405D001013BA103D03B9101D0B7511A
:101F2000502A000E0001C16F1200020E5018D8A4F2
:101F30000DD047A012000001C12B0A0EC119D8A470
:101F40001200000EC16F010EB76FD0D7030E5018EC
:101F5000D8A412000001B751D8A41200000E506E90
:101F60001200000E226E000E236E000E246E000E74
:101F7000266E000E256E22C013F023C014F024C07C
:101F800015F025C00BF026C00CF0000E0E6E060EEC
:101F90000D6EE1EC13F0060E0B24D96E010E0C2031
:101FA000DA6EDECF16F0DECF17F0DDCF18F0CBEC17
:101FB00009F013C022F014C023F015C024F0254A04
:101FC000262A26BED8D7265004E1080E255CD8A0C4
:101FD000D2D722C01FF023C020F024C021F012006D
:101FE0004E04156E15AE02D0040E156E1550040D7C
:101FF000F350CD0FD96EDA6A01D80AD00500FA6E17
:10200000DE50FD6EDE50FE6EF850FF6EFA5012008C
:102010004E50800A7D0FD8B007D03C0E4E24D96EAA
:10202000DA6A010EDA220BD04EC013F0146A13BE26
:1020300014063C0E1324D96E010E1420DA6EDF5004
:102040008A6E4E503FEC0EF04E2A050E4E18D8A464
:102050001200000E4E6E12003F6E3F50800A780F45
:10206000D8B02AD0010E3F24386EE86AD8B0E82AEA
:102070003FBEE806396E7EEC14F03F50060D060EAA
:10208000F324D96E010EF420DA6EDECF3CF0DECF01
:102090003DF0DDCF3EF03C503D103E10D8A403D0C3
:1020A000B2EC14F012003CC041F13DC042F13EC020
:1020B00043F138EC14F01200D1EC14F03751386EC3
:1020C000396A38BE390671EC14F012003F6E3F5089
:1020D000800A780FD8B02AD0010E3F24386EE86A03
:1020E000D8B0E82A3FBEE806396E7EEC14F03F50C7
:1020F000060D060EF324D96E010EF420DA6EDECF43
:102100003CF0DECF3DF0DDCF3EF03C503D103E10C8
:10211000D8A403D0B2EC14F012003CC041F13DC091
:1021200042F13EC043F138EC14F01200D1EC14F04F
:102130003751386E396A38BE390671EC14F0120026
:1021400018AE0FD0000E1C6E000E1D6E800E1E6E9F
:1021500016501C5C166E17501D58176E18501E58DE
:10216000186E1BAE0FD0000E1C6E000E1D6E800E82
:102170001E6E19501C5C196E1A501D581A6E1B5099
:102180001E581B6E000E161A000E171A800E181A13
:10219000000E191A000E1A1A800E1B1A1950165C1E
:1021A0001A5017581B501858D8B002D0D8901200A7
:1021B000D88012000C0EF66E280EF76E000EF86E28
:1021C00000EECDF010EE22F00900F5CFEEFFE55065
:1021D000E150FAE1580EF66E2A0EF76E000EF86E18
:1021E0000900F5CF52F001EE00F0410EEE6AE8066C
:1021F000FDE100EE60F06D0EEE6AE806FDE100EE36
:1022000044F00E0EEE6AE806FDE153905392000E84
:10221000F86E000170EF0BF044504510D8B4120076
:102220004650D8A405D08D90000E4F6E462A12005D
:102230004604D8A40CD047A012004F2A320E4F18E3
:10224000D8A41200000E4F6E462A8D801200020E96
:102250004618D8A4120047A012004F2A320E4F1879
:10226000D8A41200000E4F6E000E466E4406D8A091
:10227000450644504510D8B412001200000E036EFB
:10228000B451B511D8B429D0B651D0EC12F0000138
:10229000B651B227000EB6BFFF0EB32384CF02F0B3
:1022A000D890023202B00AD0000EB56F000EB46FA3
:1022B000000EB16F000EB06F010E036EB451B21973
:1022C0000CE1B551B319D8A408D0000EB56F000EBB
:1022D000B46F010E036E01013B8103501200000E2A
:1022E0000101036F3C0E026F000E0B6E0B50060DCA
:1022F000060EF324D96E010EF420DA6E9A0EDE6E0D
:10230000190EDE6E400EDE6E0B2A0B50800A780F1F
:10231000D8A0ECD70B0EF66E080EF76E0800F5CFBE
:1023200037F1000E0101186F000E196F000E1A6FC1
:10233000000E246F000E256F000E266F1200000E97
:102340000C6E0F0EF66E080EF76E3F0E0C24D96E53
:10235000DA6A010EDA220800F5CFDFFF0C2A0C50F2
:10236000800A7E0FD8A0EDD7000E0C6E0F0EF66E11
:10237000080EF76E3C0E0C24D96EDA6A010EDA22D2
:102380000800F5CFDFFF0C2A0C50800A7D0FD8A083
:10239000EDD7000E936EF1EC12F01200000E116EEC
:1023A000000E106E0D500E10D8B41CD0010E0F6E22
:1023B00004D0D8900D360E360F2A0EAEFAD7D8902C
:1023C000103611360D500B5C0E500C58D8A005D0AD
:1023D0000D500B5E0E500C5A1080D8900E320D32FC
:1023E0000F2EEDD710C00BF011C00CF012000D6EC7
:1023F0000D50100DF350690FD96EDA6ADF50D8B462
:102400001AD00D50100DF350690FD96EDA6ADF50F3
:102410000B6E0B50B80FD96EDA6ADE04D8A40BD05D
:102420000D50100DF3506B0FD96EDA6A0001DFB258
:1024300002D0000E1200010E12000600FACF05F0C5
:10244000FBCF06F0D9CF07F0DACF08F0F3CF09F0D1
:10245000F4CF0AF0F2A408D00001CC818BEC12F08A
:10246000F294D768D10ED66E0AC0F4FF09C0F3FF0C
:1024700008C0DAFF07C0D9FF06C0FBFF05C0FAFF9E
:1024800053921100000E026EB451B511D8B41DD094
:10249000B651D0EC12F00001B651B227000EB6BF13
:1024A000FF0EB323B651B027000EB6BFFF0EB12307
:1024B000B451B2190AE1B551B319D8A406D0000E2F
:1024C000B56F000EB46F010E026E02501200000EC6
:1024D000166E000E176E000E186E1FC00BF020C097
:1024E0000CF0000E0E6E060E0D6EE1EC13F0060EF3
:1024F0000B24D96E010E0C20DA6EDECF19F0DECF80
:102500001AF0DDCF1BF0A0EC10F0D8B002D0010E15
:102510001200000E1200020EB719D8A403D03EEC30
:1025200011F01200030EB719D8A403D042EC12F038
:102530001200B705D8A41200000EB56F000EB46FDC
:1025400001D80AD00500FA6EEC51FD6EED51FE6E19
:10255000F850FF6EFA501200000EB76F12000D50C7
:102560000E10D8B418D0010E0F6E04D0D8900D36CE
:102570000E360F2A0EAEFAD70D500B5C0E500C58CB
:10258000D8A004D00D500B5E0E500C5AD8900E32CD
:102590000D320F2EF1D70BC00BF00CC00CF0120057
:1025A000016E52500124526E5250800A7C0FD8A006
:1025B00002D0000E526E52AE02D0030E526E525036
:1025C000020DF350E10FD96EDA6A01D8120005004E
:1025D000FA6EDE50FD6EDE50FE6EF850FF6EFA5061
:1025E0001200000E0B6E0B50040DF350CD0FD96E80
:1025F000DA6A01D80AD00500FA6EDE50FD6EDE50B0
:10260000FE6EF850FF6EFA5012000B2A0B50800A33
:102610007B0FD8A0E8D7929892969294929292903B
:102620001200225023102410D8B406D0000E221A13
:10263000000E231A800E241A1FC013F020C014F0BD
:1026400021C015F022C016F023C017F024C018F0E6
:10265000CBEC09F013C01FF014C020F015C021F01E
:102660001200000E106E13D00F0EF66E080EF76EED
:1026700010C00EF00F6A0EBE0F060E500B24D96E5E
:102680000F500C20DA6E0800F5CFDFFF102A105033
:10269000800A0E6E0D50800A0E5CD8B01200E4D78E
:1026A0001CAE0AD01A50D96EDA6A2D0EDF6E1A2AC5
:1026B0001B6C1C1ED8B01C2A1AC012F01BC013F0D1
:1026C0001CC014F01DC015F01EC016F08FEC0EF0EB
:1026D0001200156E15500B6E0C6A0BBE0C06000E28
:1026E0000E6EC80E0D6EE1EC13F00001B0510B5CE4
:1026F000116EB1510C58126E82EC13F0030E0001F2
:10270000B76F120011501210D8B4120012BE05D0CB
:10271000000E146E010E136E02D01368146813C0FD
:10272000B6F0000E0001B36F000EB26F11C0B4F02E
:1027300012C0B5F012003C6E5150D8A40CD0A9ECD8
:1027400014F0B1EC0FF01FC041F120C042F121C0E4
:1027500043F138EC14F03C50D8A41200000E4C6E3B
:10276000000E4D6E1200000E406E020E4818D8A4E6
:1027700003D022EC0FF0406EBD05D8A409D051045F
:10278000D8A403D0BE512CEC10F0000E0001BD6F98
:1027900040501200000E406E030E4818D8A403D01B
:1027A0006DEC07F0406E4A04D8A409D0020E51180F
:1027B000D8A403D04B5066EC10F0000E4A6E405087
:1027C00012000B500D02F3CF0FF0F4CF10F00B50AE
:1027D0000E02F35010260C500D02F35010260FC0BD
:1027E0000BF010C00CF0120013C00BF014C00CF072
:1027F0000D6A8E0E0E6E000E0F6EE8EC0DF00BC023
:1028000013F00CC014F00DC015F01200502A4C2A21
:10281000482A442A402A3C2A382A342A302A542A70
:10282000F629EC29E229002ACDCC3D0A2AFF0BC06B
:102830000DF001D00D2A0D50D96EDA6ADF50D8A400
:10284000F9D70B500D5C0B6E0C6A0BBE0C06120018
:102850000001CB83CB95000E9BEC13F0010E486E6C
:10286000000E516E010E0001CA6F12EC15F012003D
:102870003C0E316E010E326E030E336E41C134F0E8
:1028800042C135F043C136F0BDEC08F01200000E35
:102890000B6E0B50100DF3506A0FD96EDA6ADF9E83
:1028A0000B2A040E0B64F5D712000B6E0B50100DA3
:1028B000F3506A0FD96EDA6A0001DFAE02D0010E62
:1028C0001200000E12000B6E0B50100DF3506B0F28
:1028D000D96EDA6A0001DFA002D0010E1200000EEC
:1028E00012003C0E206E010E216E030E226E38C0C7
:1028F00023F039C024F015EC0CF012003F0E206ECE
:10290000010E216E020E226E38C023F039C024F071
:1029100015EC0CF01200000E216E4804D8A403D070
:10292000D9EC0EF0216E21501200F10E126EDC0E69
:10293000116E82EC13F0020E0001B76F12000B6EE5
:102940000B50100DF3506A0FD96EDA6A0001DF9E4A
:1029500012003F0E0B6E010E0C6E020E0D6E31EC6E
:1029600013F012003F0E01013E6F710E3D6F710EAC
:102970003C6F120044504510D8A402D0010E120042
:10298000000E12000001B751D8A402D0010E1200AF
:10299000000E12000B6E0BC0BEF0010E0001BD6FE9
:1029A00012005C0E0101406F160E3F6F12000B6E9D
:1029B0000BC04BF0010E4A6E12009FEC0AF009ECBE
:1029C00004F012008244E846030B010B1200823827
:1029D000E842070B010B12000BC044F00CC045F09D
:1029E00012008C908C828C948C9612008C908C921D
:1029F0008C848C9612008C908C928C948C86120015
:102A00008C808C928C948C9612008C908C928C94EE
:102A10008C96120082380F0B010B120083380F0BBB
:102A2000010B120047EC14F012008244010B12005B
:102A30008980120089921200898212008994120002
:102A400089841200899612008986120089981200E2
:092A50008988120089901200FF30
:020000040020DA
:08000000FFFFFFFFFFFFFFFF00
:020000040030CA
:0E000000240E381EFF8181FF0FC00FE00F405D
:00000001FF
