:0400000007EF00F016
:0A0008005182EBED0BF0D7EF0AF088
:10080000003F065B4F666D7C077F67004000000E6F
:10081000236E2350100DF350660FD96EDA6ADF5045
:10082000D8A48BD02350C5EC0BF00009D8B485D0E8
:100830002350100DF3506A0FD96EDA6A0001DFA061
:100840007CD02350100DF3506A0FD96EDA6ADFA204
:100850001FD02350100DF3506A0FD96EDA6ADF8C67
:100860002350100DF3506A0FD96EDA6ADFAA08D050
:100870002350100DF350660FD96EDA6A060E37D08A
:100880002350100DF350660FD96EDA6A010E2FD087
:100890002350100DF3506A0FD96EDA6ADFA408D026
:1008A0002350100DF350660FD96EDA6A050E1FD073
:1008B0002350100DF3506A0FD96EDA6ADFA608D004
:1008C0002350100DF350660FD96EDA6A030E0FD065
:1008D0002350100DF3506A0FD96EDA6ADFA808D0E2
:1008E0002350100DF350660FD96EDA6A040EDF6ED6
:1008F0002350100DF3506B0FD96EDA6ADF8223504C
:10090000100DF350690FD96EDA6ADF50D8B415D0E4
:100910002350100DF350690FD96EDA6ADF501F6E45
:100920001F50B00FD96EDA6A010EDF6E2350100D22
:10093000F3506B0FD96EDA6ADF802350100DF3503D
:10094000660FD96EDA6A050EDF6424D02350100DCD
:10095000F350660FD96EDA6A090EDF601BD02350A0
:10096000100DF3506A0FD96EDA6A0001DFB012D0B1
:100970002350100DF350670FD96EDA6A000EDE6E49
:10098000000EDD6E2350100DF350660FD96EDA6A3B
:10099000020EDF6E2350100DF350660FD96EDA6A27
:1009A000060EDE18D8A427D02350100DF3506C0F7C
:1009B000D96EDA6A2350100DF350670FE16EE26AC8
:1009C000E62A000EE522DE50E65CDE50E658D8A0AE
:1009D00012D02350100DF350670FD96EDA6A000E53
:1009E000DE6E000EDD6E2350100DF350660FD96ED3
:1009F000DA6A070EDF6E2350100DF350660FD96EC2
:100A0000DA6A070EDE18D8A418D02350100DF35060
:100A10006A0FD96EDA6A0001DFBC0FD02350100DC7
:100A2000F3506A0FD96EDA6ADF8C2350100DF35041
:100A3000660FD96EDA6A080EDF6E2350100DF35080
:100A4000660FD96EDA6A080EDE18D8A427D02350B4
:100A5000100DF3506E0FD96EDA6A2350100DF3505B
:100A6000670FE16EE26AE62A000EE522DE50E65CE0
:100A7000DE50E658D8A012D02350100DF350670F67
:100A8000D96EDA6A000EDE6E000EDD6E2350100D98
:100A9000F350660FD96EDA6A070EDF6E2350100D21
:100AA000F350660FD96EDA6A050EDE18D8A418D096
:100AB0002350100DF3506A0FD96EDA6A0001DFB0CF
:100AC0000FD02350100DF3506A0FD96EDA6ADF8C05
:100AD0002350100DF350660FD96EDA6A020EDF6EE6
:100AE0002350100DF350660FD96EDA6A030EDE182C
:100AF000D8A49CD02350100DF350670FD96EDA6A3A
:100B0000DE2A000EDD222350100DF3506A0FD96E3D
:100B1000DA6A0001DFB03DD0000E166E480E176E87
:100B2000430E186E2350100DF350670FD96EDA6A1A
:100B3000DECF13F0DDCF14F001EC0DF013C019F08F
:100B400014C01AF015C01BF09DEC0AF0D8A021D0FB
:100B50002350100DF350670FD96EDA6A000EDE6E67
:100B6000000EDD6E2350100DF3506A0FD96EDA6A55
:100B70000001DF8C2350100DF3506A0FD96EDA6A32
:100B8000DF9E2350100DF350660FD96EDA6A020E05
:100B9000DF6E000E166E480E176E430E186E235051
:100BA000100DF350670FD96EDA6ADECF13F0DDCF88
:100BB00014F001EC0DF013C019F014C01AF015C0B8
:100BC0001BF09DEC0AF0D8B031D02350100DF3503B
:100BD000670FD96EDA6A000EDE6E000EDD6E2350EE
:100BE000100DF3506A0FD96EDA6A0001DF8C2350C2
:100BF000100DF3506A0FD96EDA6ADF8E2350100D94
:100C0000F3506A0FD96EDA6ADFBA08D02350100D9C
:100C1000F350660FD96EDA6A010E07D02350100D1B
:100C2000F350660FD96EDA6A080EDF6E2350100D8E
:100C3000F350660FD96EDA6A040EDE18D8A48CD091
:100C40002350100DF350670FD96EDA6ADE2A000EBA
:100C5000DD222350100DF3506A0FD96EDA6A0001BD
:100C6000DFB03DD0000E166E480E176E430E186EA4
:100C70002350100DF350670FD96EDA6ADECF13F0F0
:100C8000DDCF14F001EC0DF013C019F014C01AF010
:100C900015C01BF09DEC0AF0D8A021D02350100DF8
:100CA000F350670FD96EDA6A000EDE6E000EDD6E4D
:100CB0002350100DF3506A0FD96EDA6A0001DF8CF1
:100CC0002350100DF3506A0FD96EDA6ADF9E23505D
:100CD000100DF350660FD96EDA6A020EDF6E2350E4
:100CE000100DF350670FD96EDA6ADECF13F0DDCF47
:100CF00014F001EC0DF013C016F014C017F015C07D
:100D000018F0000E196E160E1A6E440E1B6E9DEC36
:100D10000AF0D8A021D02350100DF350670FD96EE0
:100D2000DA6A000EDE6E000EDD6E2350100DF350F9
:100D30006A0FD96EDA6A0001DF8C2350100DF35070
:100D40006A0FD96EDA6ADF8E2350100DF350660FEA
:100D5000D96EDA6A010EDF6E2350100DF350660F64
:100D6000D96EDA6ADE04D8A411D02350100DF350E6
:100D70006A0FD96EDA6A0001DFB008D02350100D77
:100D8000F350660FD96EDA6A020EDF6E2350100D33
:100D9000F350660FD96EDA6A020EDE18D8A411D0AD
:100DA0002350100DF3506A0FD96EDA6A0001DFBCD0
:100DB00008D02350100DF350660FD96EDA6A090E71
:100DC000DF6E2350100DF350660FD96EDA6A090EEC
:100DD000DE18D8A42FD02350100DF350690FD96E10
:100DE000DA6ADF50D8B416D02350100DF350690FD3
:100DF000D96EDA6ADF501F6E1F50B00FD96EDA6AF3
:100E0000000EDF6E2350100DF3506B0FD96EDA6AAF
:100E10000001DF902350100DF350660FD96EDA6A8F
:100E2000000EDF6E2350100DF3506B0FD96EDA6A8F
:100E30000001DF92232A040E2364EBD41200040E77
:100E40000C6E0C50100DF350640FD96EDA6ADF503F
:100E5000D8A416D00C50100DF350600FD96EDA6A7A
:100E600001D80AD00500FA6EDE50FD6EDE50FE6E2F
:100E7000F850FF6EFA5012000009D8A4ACD041D04F
:100E80000C50100DF350640FD96EDA6ADE04D8A44A
:100E900040D00C50100DF350650FD96EDA6ADF2A7E
:100EA000040EDE18D8A497D00C50100DF350650F27
:100EB000D96EDA6A000EDF6E0C50100DF350600F21
:100EC000D96EDA6A01D80AD00500FA6EDE50FD6EDE
:100ED000DE50FE6EF850FF6EFA5012000009D8B4D2
:100EE00008D00C50100DF350640FD96EDA6ADF068B
:100EF00072D00C50100DF3506A0FD96EDA6A0001EF
:100F0000DF800C50100DF350640FD96EDA6ADF2ABF
:100F100062D00C50100DF350640FD96EDA6A020ED5
:100F2000DE18D8A416D00C50100DF350600FD96EF7
:100F3000DA6A01D80AD00500FA6EDE50FD6EDE5086
:100F4000FE6EF850FF6EFA501200E806D8B4D9D7FA
:100F500042D00C50100DF350640FD96EDA6A030EB4
:100F6000DE18D8A438D00C50100DF350650FD96E90
:100F7000DA6ADF2A040EDE18D8A42DD00C50100D2A
:100F8000F350650FD96EDA6A000EDF6E0C50100D4B
:100F9000F350600FD96EDA6A01D80AD00500FA6EF4
:100FA000DE50FD6EDE50FE6EF850FF6EFA501200FD
:100FB000E806D8A496D70C50100DF3506A0FD96EDE
:100FC000DA6A0001DF900C50100DF350640FD96EF7
:100FD000DA6A000EDF6E0C060CBE120032D7000E6D
:100FE0000001DD6F010EDC6F22C0DEF00ED0DCC030
:100FF0000BF0DDC00CF0000E0E6E0A0E0D6EEEEC66
:101000000CF00BC0DCF00CC0DDF00001DE07DE29C7
:10101000D8A4EDD7DC51235C2450800A256EDD5125
:10102000800A2558D8A006D0FF0EDC25236EFF0EBF
:10103000DD21246ED10E1A6E23C01BF024C01CF0DB
:10104000000E1E6E0A0E1D6ED5EC0CF0000E000197
:10105000DE6F13D00B0EF66E080EF76EDEC025F0B5
:10106000266A25BE260625502024D96E265021202A
:10107000DA6E0800F5CFDFFFDE2BDE51800A256E29
:101080002250800A255CD8A0E5D7000EDE6FD10E75
:101090000B6E13EC0DF00B04DB6F21D0DE51D10F82
:1010A000D96EDA6ADF50256ED00E25262550010F45
:1010B000266E26C0F6FF080EF76E0800F5CF27F063
:1010C000DBC028F0296A28BE290628502024D96EC2
:1010D00029502120DA6E2750DF12DB07DE2BDE518C
:1010E000D10FD96EDA6ADF50D8B41200D7D7000E0C
:1010F0002C6E000E2D6E000E896E000E8B6E000E93
:101100008C6E000E8D6E000E8A6E0F0EC16ECF0EAD
:10111000B46E000E6D6E080E6F6E870ED56ED768BA
:10112000D10ED66EF28A8D80969095909592959478
:1011300095968B929492968294809684D5EC08F042
:1011400041EC0BF0B9EC0CF0000E2B6E640E2A6E25
:101150004EEC0DF0030E2B6EE80E2A6E41EC0DF0F6
:10116000F28E4DA002D04D904C804CA016D02C2A6F
:10117000140E2C18D8A408D0000E2C6E4BB004D03E
:101180005BEC0DF0010E496E2D2A030E2D18D8A42C
:1011900004D0000E2D6E61EC0AF00FEC0BF021EC88
:1011A0000AF04C908EEC0DF0DCD79488948A948CE5
:1011B000948E9588060E0001606F1B0E616FCA0E3B
:1011C000706F1A0E716FC00E806F1A0E816F160E3F
:1011D000906F1B0E916F0E0EA06F1B0EA16F000E75
:1011E0000B6E0B50100DF3506A0FD96EDA6ADF8266
:1011F0000B50100DF3506A0FD96EDA6ADF940B5062
:10120000100DF3506A0FD96EDA6ADF960B50100D8D
:10121000F3506A0FD96EDA6ADF9A0B50100DF35053
:10122000690FD96EDA6A000EDF6E0B50100DF350A5
:101230006C0FD96EDA6A640EDE6E000EDD6E0B5036
:10124000100DF3506E0FD96EDA6A280EDE6E000EA6
:10125000DD6E0B2A0B50800A7B0FD8B01200C1D76D
:101260000E50D8B405D00B500C100D10D8A40CD0D3
:10127000000E0B6E000E0C6E000E0D6E12000E2A8C
:10128000D8900D320C320B32000E0B14106E000E83
:101290000C14116EFE0E0D14126E1050111012105F
:1012A000D8B40CD0ECD70E2A010E0B26000E0C225F
:1012B000000E0D22D8900D320C320B32000E0B14A2
:1012C000106E000E0C14116EFF0E0D14126E1050E5
:1012D00011101210D8B406D0E6D70E06D8900B36EF
:1012E0000C360D360CBE03D0020E0E60F6D70EA0E3
:1012F0000C9ED8900E320E500D120F50D8A40D8EA9
:101300000BC00BF00CC00CF00DC00DF01200116EF4
:10131000000E126E11C00BF0010E0C6E000E0D6E61
:101320000B2A03D0D8900C360D360B2EFBD712C0EB
:101330000EF0010E0F6E000E106E0E2A03D0D89024
:101340000F3610360E2EFBD70C500F160D50101600
:101350000F501010D8B412D01250040DF350B70F24
:10136000D96EDA6A01D81CD00500FA6EDE50FD6E27
:10137000DE50FE6EF850FF6EFA5012001250040D4F
:10138000F350B50FD96EDA6A01D80AD00500FA6EAB
:10139000DE50FD6EDE50FE6EF850FF6EFA50120009
:1013A000122A1250800A7B0FD8B01200B3D713C094
:1013B00017F014C018F017C00BF018C00CF015C0CF
:1013C0000DF016C00EF09CEC0BF00BC017F00CC02B
:1013D00018F0122A17501810D8A4EDD71250D96E51
:1013E000DA6A000EDF6E120613C00BF014C00CF0A8
:1013F00015C00DF016C00EF057EC0CF00B50196E26
:1014000013C00BF014C00CF015C00DF016C00EF098
:101410009CEC0BF00BC013F00CC014F0090E196417
:1014200002D0070E1926300E19261250D96EDA6A2C
:1014300019C0DFFF120613501410D8A4D5D7122AF2
:1014400012004050D8A410D0030E3518D8B404D0E0
:10145000020E3518D8A402D0402A12003504D8A4B0
:101460001200020E406E12004004D8A412D0325076
:101470003310D8A41200020E3518D8A405D00101EB
:101480003AA103D03A9101D03550402A000E3F6E68
:101490001200020E4018D8A40AD04CA012003F2A15
:1014A0000A0E3F18D8A41200010E356ED5D7030ED0
:1014B0004018D8A412003550D8A41200000E406E77
:1014C00012003D04156E15AE02D0040E156E1550B7
:1014D000040DF350B50FD96EDA6A01D80AD00500B1
:1014E000FA6EDE50FD6EDE50FE6EF850FF6EFA5062
:1014F00012003D50800A7D0FD8B007D03B0E3D242E
:10150000D96EDA6A010EDA220BD03DC013F0146AEC
:1015100013BE14063B0E1324D96E010E1420DA6E8E
:10152000DF508A6E3D5087EC09F03D2A050E3D18CC
:10153000D8A41200000E3D6E120018AE0FD0000E9F
:101540001C6E000E1D6E800E1E6E16501C5C166EFC
:1015500017501D58176E18501E58186E1BAE0FD01E
:10156000000E1C6E000E1D6E800E1E6E19501C5C4F
:10157000196E1A501D581A6E1B501E581B6E000E05
:10158000161A000E171A800E181A000E191A000EDD
:101590001A1A800E1B1A1950165C1A5017581B5035
:1015A0001858D8B002D0D8901200D8801200660E19
:1015B000F66E1A0EF76E000EF86E00EEB5F010EE35
:1015C0001CF00900F5CFEEFFE550E150FAE14A0EBC
:1015D000F66E1B0EF76E000EF86E0900F5CF4EF09A
:1015E0000900F5CF4FF00900F5CF50F001EE00F003
:1015F000400EEE6AE806FDE100EE60F0550EEE6A80
:10160000E806FDE100EE2EF0200EEE6AE806FDE1B0
:1016100051905192000EF86E000177EF08F03650AD
:101620003710D8B412003850D8A405D08D90000ED1
:101630003E6E382A12003804D8A40CD04CA01200F8
:101640003E2A320E3E18D8A41200000E3E6E382AF2
:101650008D801200020E3818D8A412004CA012007F
:101660003E2A320E3E18D8A41200000E3E6E000E26
:10167000386E3606D8A0370636503710D8B4120068
:101680001200000E0C6E0B0EF66E080EF76E3E0E7C
:101690000C24D96EDA6A010EDA220800F5CFDFFFDA
:1016A0000C2A0C50800A7E0FD8A0EDD7000E0C6ECD
:1016B0000B0EF66E080EF76E3B0E0C24D96EDA6A2E
:1016C000010EDA220800F5CFDFFF0C2A0C50800A49
:1016D0007D0FD8A0EDD7000E936E99EC0CF01200A0
:1016E000000E036E32503310D8B424D0345078EC4E
:1016F0000CF034503026000E34BEFF0E312284CF61
:1017000002F0D890023202B006D0000E336E000E06
:10171000326E010E036E325030180CE13350311826
:10172000D8A408D0000E336E000E326E010E036E88
:1017300001013A8103501200000E116E000E106E6E
:101740000D500E10D8B41CD0010E0F6E04D0D890DE
:101750000D360E360F2A0EAEFAD7D8901036113647
:101760000D500B5C0E500C58D8A005D00D500B5EE0
:101770000E500C5A1080D8900E320D320F2EEDD72D
:1017800010C00BF011C00CF012000D6E0D50100DBA
:10179000F350690FD96EDA6ADF50D8B41AD00D5001
:1017A000100DF350690FD96EDA6ADF500B6E0B50D3
:1017B000B00FD96EDA6ADE04D8A40BD00D50100D2C
:1017C000F3506B0FD96EDA6A0001DFB002D0000E61
:1017D0001200010E12000600FACF05F0FBCF06F052
:1017E000D9CF07F0DACF08F0F3CF09F0F4CF0AF041
:1017F000F2A407D04D800FEC0CF0F294D768D10E14
:10180000D66E0AC0F4FF09C0F3FF08C0DAFF07C0B4
:10181000D9FF06C0FBFF05C0FAFF51921100020E6E
:101820003518D8A403D070EC0BF01200030E351855
:10183000D8A403D033EC0CF012003504D8A4120065
:10184000000E336E000E326E01D80AD00500FA6E1B
:101850004E50FD6E4F50FE6EF850FF6EFA50120063
:10186000000E356E1200000E026E32503310D8B4E6
:101870001CD0345078EC0CF034503026000E34BEBE
:10188000FF0E312234502E26000E34BEFF0E2F22C2
:10189000325030180AE133503118D8A406D0000E67
:1018A000336E000E326E010E026E025012000D50A9
:1018B0000E10D8B418D0010E0F6E04D0D8900D368B
:1018C0000E360F2A0EAEFAD70D500B5C0E500C5888
:1018D000D8A004D00D500B5E0E500C5AD8900E328A
:1018E0000D320F2EF1D70BC00BF00CC00CF0120014
:1018F000016E50500124506E5050800A7C0FD8A0C9
:1019000002D0000E506E50AE02D0030E506E5050FA
:10191000020DF350C90FD96EDA6A01D81200050022
:10192000FA6EDE50FD6EDE50FE6EF850FF6EFA501D
:101930001200000E0B6E0B50040DF350B50FD96E54
:10194000DA6A01D80AD00500FA6EDE50FD6EDE506C
:10195000FE6EF850FF6EFA5012000B2A0B50800AF0
:101960007B0FD8A0E8D792989296929492929290F8
:101970001200000E0101036F3C0E026F000E0B6E91
:101980000B50060D060EF324D96E010EF420DA6E0C
:10199000000EDE6E400EDE6E410EDE6E0B2A0B5028
:1019A000800A780FD8B01200EBD71CAE0AD01A50BC
:1019B000D96EDA6A2D0EDF6E1A2A1B6C1C1ED8B087
:1019C0001C2A1AC012F01BC013F01CC014F01DC05A
:1019D00015F01EC016F0D7EC09F012000B500D02E6
:1019E000F3CF0FF0F4CF10F00B500E02F35010268F
:1019F0000C500D02F35010260FC00BF010C00CF06D
:101A0000120013C00BF014C00CF00D6A8E0E0E6E97
:101A1000000E0F6E30EC09F00BC013F00CC014F088
:101A20000DC015F012000BC00DF001D00D2A0D50A5
:101A3000D96EDA6ADF50D8A4F9D70B500D5C0B6E63
:101A40000C6A0BBE0C061200000E0B6E0B50100D34
:101A5000F3506A0FD96EDA6A0001DF9C0B2A040E7C
:101A60000B64F4D71200421B3E1B3A1B361B321B81
:101A70002E1B2A1B261B221B461BE81ADE1AD41A11
:101A8000F21A3B0E206E010E216E030E226E2AC04A
:101A900023F02BC024F0EFEC07F012003E0E206E76
:101AA000010E216E020E226E2AC023F02BC024F0FC
:101AB000EFEC07F012001FEC07F007EC04F0120047
:101AC0008244E846030B010B12008238E842070B00
:101AD000010B12008C908C828C948C9612008C904E
:101AE0008C928C848C9612008C908C928C948C8628
:101AF00012008C808C928C948C9612008C908C921C
:101B00008C948C96120082380F0B010B12008338D4
:101B10000F0B010B12008244010B120024EC0DF09C
:101B20001200898012008992120089821200899421
:101B30001200898412008996120089861200899801
:0D1B400012008988120089901200FC1AFF23
:020000040020DA
:08000000FFFFFFFFFFFFFFFF00
:020000040030CA
:0E000000240E381EFF8181FF0FC00FE00F405D
:00000001FF
