:0400000007EF00F016
:0A0008005382B6ED12F017EF11F06D
:10080000003F065B4F666D7C077F6716202E440015
:100810004000000E236E2350100DF350660FD96E6A
:10082000DA6ADF50D8A48BD0235090EC12F0000984
:10083000D8B485D02350100DF3506A0FD96EDA6A00
:100840000001DFA07CD02350100DF3506A0FD96E49
:10085000DA6ADFA21FD02350100DF3506A0FD96E51
:10086000DA6ADF8C2350100DF3506A0FD96EDA6A02
:10087000DFAA08D02350100DF350660FD96EDA6A44
:10088000060E37D02350100DF350660FD96EDA6A7A
:10089000010E2FD02350100DF3506A0FD96EDA6A73
:1008A000DFA408D02350100DF350660FD96EDA6A1A
:1008B000050E1FD02350100DF3506A0FD96EDA6A5F
:1008C000DFA608D02350100DF350660FD96EDA6AF8
:1008D000030E0FD02350100DF3506A0FD96EDA6A51
:1008E000DFA808D02350100DF350660FD96EDA6AD6
:1008F000040EDF6E2350100DF3506B0FD96EDA6AC1
:10090000DF822350100DF350690FD96EDA6ADF5081
:10091000D8B415D02350100DF350690FD96EDA6A90
:10092000DF501F6E1F50B80FD96EDA6A010EDF6EEE
:100930002350100DF3506B0FD96EDA6ADF8023500D
:10094000100DF350660FD96EDA6A050EDF6424D0FD
:100950002350100DF350660FD96EDA6A090EDF606E
:100960001BD02350100DF3506A0FD96EDA6A0001C4
:10097000DFB012D02350100DF350670FD96EDA6A32
:10098000000EDE6E000EDD6E2350100DF350660F6C
:10099000D96EDA6A020EDF6E2350100DF350660F27
:1009A000D96EDA6A060EDE18D8A427D02350100DAF
:1009B000F3506C0FD96EDA6A2350100DF350670FA5
:1009C000E16EE26AE62A000EE522DE50E65CDE50C9
:1009D000E658D8A012D02350100DF350670FD96EEF
:1009E000DA6A000EDE6E000EDD6E2350100DF3503D
:1009F000660FD96EDA6A070EDF6E2350100DF350C2
:100A0000660FD96EDA6A070EDE18D8A418D0235004
:100A1000100DF3506A0FD96EDA6A0001DFBC0FD0F7
:100A20002350100DF3506A0FD96EDA6ADF8C235011
:100A3000100DF350660FD96EDA6A080EDF6E235080
:100A4000100DF350660FD96EDA6A080EDE18D8A4BE
:100A500027D02350100DF3506E0FD96EDA6A235051
:100A6000100DF350670FE16EE26AE62A000EE522F0
:100A7000DE50E65CDE50E658D8A012D02350100DB0
:100A8000F350670FD96EDA6A000EDE6E000EDD6E6F
:100A90002350100DF350660FD96EDA6A070EDF6E21
:100AA0002350100DF350660FD96EDA6A050EDE186A
:100AB000D8A418D02350100DF3506A0FD96EDA6AFB
:100AC0000001DFB00FD02350100DF3506A0FD96E24
:100AD000DA6ADF8C2350100DF350660FD96EDA6A94
:100AE000020EDF6E2350100DF350660FD96EDA6AD6
:100AF000030EDE18D8A49CD02350100DF350670FBE
:100B0000D96EDA6ADE2A000EDD222350100DF35072
:100B10006A0FD96EDA6A0001DFB03DD0000E166EA2
:100B2000480E176E430E186E2350100DF350670FCA
:100B3000D96EDA6ADECF13F0DDCF14F0A7EC14F033
:100B400013C019F014C01AF015C01BF0DDEC10F042
:100B5000D8A021D02350100DF350670FD96EDA6A58
:100B6000000EDE6E000EDD6E2350100DF3506A0F86
:100B7000D96EDA6A0001DF8C2350100DF3506A0F32
:100B8000D96EDA6ADF9E2350100DF350660FD96ECE
:100B9000DA6A020EDF6E000E166E480E176E430EF6
:100BA000186E2350100DF350670FD96EDA6ADECF3E
:100BB00013F0DDCF14F0A7EC14F013C019F014C03B
:100BC0001AF015C01BF0DDEC10F0D8B031D0235076
:100BD000100DF350670FD96EDA6A000EDE6E000E4C
:100BE000DD6E2350100DF3506A0FD96EDA6A0001E2
:100BF000DF8C2350100DF3506A0FD96EDA6ADF8E46
:100C00002350100DF3506A0FD96EDA6ADFBA08D09C
:100C10002350100DF350660FD96EDA6A010E07D01B
:100C20002350100DF350660FD96EDA6A080EDF6E8E
:100C30002350100DF350660FD96EDA6A040EDE18D9
:100C4000D8A48CD02350100DF350670FD96EDA6AF8
:100C5000DE2A000EDD222350100DF3506A0FD96EEC
:100C6000DA6A0001DFB03DD0000E166E480E176E36
:100C7000430E186E2350100DF350670FD96EDA6AC9
:100C8000DECF13F0DDCF14F0A7EC14F013C019F091
:100C900014C01AF015C01BF0DDEC10F0D8A021D064
:100CA0002350100DF350670FD96EDA6A000EDE6E16
:100CB000000EDD6E2350100DF3506A0FD96EDA6A04
:100CC0000001DF8C2350100DF3506A0FD96EDA6AE1
:100CD000DF9E2350100DF350660FD96EDA6A020EB4
:100CE000DF6E2350100DF350670FD96EDA6ADECF36
:100CF00013F0DDCF14F0A7EC14F013C016F014C0FD
:100D000017F015C018F0000E196E160E1A6E440E6C
:100D10001B6EDDEC10F0D8A021D02350100DF35045
:100D2000670FD96EDA6A000EDE6E000EDD6E23509C
:100D3000100DF3506A0FD96EDA6A0001DF8C235070
:100D4000100DF3506A0FD96EDA6ADF8E2350100D42
:100D5000F350660FD96EDA6A010EDF6E2350100D64
:100D6000F350660FD96EDA6ADE04D8A411D023508E
:100D7000100DF3506A0FD96EDA6A0001DFB008D0A7
:100D80002350100DF350660FD96EDA6A020EDF6E33
:100D90002350100DF350660FD96EDA6A020EDE187A
:100DA000D8A411D02350100DF3506A0FD96EDA6A0F
:100DB0000001DFBC08D02350100DF350660FD96E30
:100DC000DA6A090EDF6E2350100DF350660FD96EEC
:100DD000DA6A090EDE18D8A42FD02350100DF35074
:100DE000690FD96EDA6ADF50D8B416D02350100DCF
:100DF000F350690FD96EDA6ADF501F6E1F50B80FBB
:100E0000D96EDA6A000EDF6E2350100DF3506B0FAF
:100E1000D96EDA6A0001DF902350100DF350660F8F
:100E2000D96EDA6A000EDF6E2350100DF3506B0F8F
:100E3000D96EDA6A0001DF92232A040E2364EBD410
:100E40001200000E286E000E1AEC15F00009D8B43E
:100E50000DD0000E4EEC15F04B2A4B50800A770F48
:100E6000D8A002D0000E4B6E010E4A6E010E1AEC95
:100E700015F00009D8B40AD0010E4EEC15F04B065F
:100E80004BAE02D0080E4B6E010E4A6E020E1AECEB
:100E900015F00009D8B484D04B50800A780FD8B030
:100EA00067D04B50060D060EF324D96E010EF420C8
:100EB000DA6EDE50DE10DE10D8A40FD04B50060DD7
:100EC000060EF324D96E010EF420DA6E9A0EDE6E51
:100ED000990EDE6E3E0EDE6E24D04B50060D060ED1
:100EE000F324D96E010EF420DA6EDECF13F0DECFDC
:100EF00014F0DDCF15F0CD0E166ECC0E176E3D0E34
:100F0000186E7FEC09F04B50060D060EF324D96ED7
:100F1000010EF420DA6E13C0DEFF14C0DEFF15C030
:100F2000DEFF4B50060D060EF324D96E010EF420A1
:100F3000DA6EDECF16F0DECF17F0DDCF18F0000E40
:100F4000196E400E1A6E410E1B6EDDEC10F0D8A02B
:100F500022D04B50060D060EF324D96E010EF4205C
:100F6000DA6E000EDE6E400EDE6E410EDE6E13D0C7
:100F70000101362B3651800A7C0FD8A002D0000E1A
:100F8000366F36510B0F256E25C0F6FF080EF76E33
:100F90000800F5CF37F1010E4A6E020E4EEC15F047
:100FA000030E1AEC15F00009D8B48ED04B50800A0D
:100FB000780FD8B074D04B50060D060EF324D96EBE
:100FC000010EF420DA6EDECF1FF0DECF20F0DDCF91
:100FD00021F0CD0E226ECC0E236E3D0E246EAAECB7
:100FE00013F04B50060D060EF324D96E010EF420BB
:100FF000DA6E1FC0DEFF20C0DEFF21C0DEFF4B50D7
:10100000D8A426D04B50060D060EF324D96E010E3F
:10101000F420DA6EDECF16F0DECF17F0DDCF18F059
:101020009A0E196E990E1A6E3E0E1B6EDDEC10F0C4
:10103000D8B045D04B50060D060EF324D96E010EE4
:10104000F420DA6E9A0EDE6E990EDE6E3E0E25D01C
:101050004B50060D060EF324D96E010EF420DA6E05
:10106000DECF16F0DECF17F0DDCF18F09A0E196E36
:10107000990E1A6E3E0E1B6EDDEC10F0D8B01FD02C
:101080004B50060D060EF324D96E010EF420DA6ED5
:10109000000EDE6E000EDE6E000EDE6E10D0010160
:1010A000360736AF02D0030E366F36510B0F256E62
:1010B00025C0F6FF080EF76E0800F5CF37F1010ED8
:1010C0004A6E030E4EEC15F0040E1AEC15F00009F2
:1010D000D8B405D0010E286E040E4EEC15F0285041
:1010E0001200000E0001FB6F800EFC6F3F0EFD6FC3
:1010F00033C0FEF014D0FBC013F0FCC014F0FDC0F0
:1011000015F0000E166E200E176E410E186E4EEC86
:101110000CF013C0FBF014C0FCF015C0FDF0000192
:10112000FE07FE29D8A4E7D734C016F035C017F063
:1011300036C018F0FBC019F0FCC01AF0FDC01BF05F
:10114000DDEC10F0D8A014D0FBC013F0FCC014F0FC
:10115000FDC015F0000E166E800E176EBF0E186ED5
:101160007FEC09F013C034F014C035F015C036F030
:1011700031C00BF032C00CF033C00DF0CAEC13F0EC
:10118000000E0001FB6F800EFC6F3F0EFD6F000E26
:10119000FE6F74D034C016F035C017F036C018F0AA
:1011A000FBC019F0FCC01AF0FDC01BF0DDEC10F024
:1011B000D8B04ED00001FE51800A376E3350800AFD
:1011C000375CD8B036D0000E166E200E176E410E6A
:1011D000186E34C013F035C014F036C015F04EEC64
:1011E0000CF013C022F014C023F015C024F0C8EC9A
:1011F0000CF022C0F8F023C0F9F00001FE51D8A491
:101200000DD0010EF66E080EF76E20EE01F0315093
:10121000D9263250DA220800F5CFDFFF20EE01F0A8
:101220003150D9263250DA22000EDB8EFEC0FAF0A1
:101230002DD034C022F035C023F036C024F0C8ECE5
:101240000CF022C0F8F023C0F9F00001FE05FA6F9F
:10125000FBC013F0FCC014F0FDC015F0000E166EBC
:10126000200E176E410E186E4EEC0CF013C0FBF002
:1012700014C0FCF015C0FDF00001FE2B3350800AB5
:10128000376EFE51800A375CD8B084D7EE0E1A6EE6
:10129000F8C01BF0F9C01CF0000E1E6E0A0E1D6E89
:1012A00005EC14F0000E0001FE6F21D0FE51EE0F90
:1012B000D96EDA6ADF50376ED00E37263750010FFD
:1012C000386E38C0F6FF080EF76E0800F5CF39F01B
:1012D000FAC03AF03B6A3ABE3B063A503124D96E26
:1012E0003B503220DA6E3950DF12FA07FE2BFE51E6
:1012F000EE0FD96EDA6ADF50D8B41200D7D715C016
:1013000019F01A6A1B6A1434193601E31A8019504D
:101310001E6E18C019F01A6A1B6A1734193601E3D9
:101320001A8019501D6E1E50D8B40AD01D501E5C74
:10133000D8B00DD01E501D5C196E180E196407D060
:1013400016C013F017C014F018C015F012001D508D
:10135000D8B40AD01E501D5CD8B00DD01D501E5CF4
:10136000196E180E196407D013C013F014C014F0CE
:1013700015C015F01200060E1C6E15BE1C8E18BE90
:101380001C8C148EFF0E1316FF0E1416000E15166D
:10139000178EFF0E1616FF0E1716000E18161D508C
:1013A0001E5CD8B01BD0D8901636173618361D06DE
:1013B0001E501D18D8B40DD01C061CC019F0070E05
:1013C0001916D8B406D0EFD7D8901532143213328C
:1013D0001E2A1D501E18D8B41FD0F6D71E501D5CF3
:1013E000D8B01AD0D8901336143615361E061E50B3
:1013F0001D18D8B40DD01C061CC019F0070E191604
:10140000D8B406D0EFD7D8901832173216321D2A2A
:101410001D501E18D8A4F7D71CAE0CD0FF0E131AFF
:10142000FF0E141AFF0E151A010E1326000E1422B9
:10143000000E15221CAC0CD0FF0E161AFF0E171A48
:10144000FF0E181A010E1626000E1722000E182283
:10145000000E1C6E13501626145017221550182219
:1014600018AE0ED0FF0E161AFF0E171AFF0E181A1E
:10147000010E1626000E1722000E1822010E1C6EF9
:1014800016C00BF017C00CF018C00DF01EC00EF007
:101490001CC00FF08CEC0DF00BC013F00CC014F05E
:1014A0000DC015F01200040E0C6E0C50100DF35010
:1014B000640FD96EDA6ADF50D8A416D00C50100D24
:1014C000F350600FD96EDA6A01D80AD00500FA6EBF
:1014D000DE50FD6EDE50FE6EF850FF6EFA501200C8
:1014E0000009D8A4ACD041D00C50100DF350640FBB
:1014F000D96EDA6ADE04D8A440D00C50100DF35037
:10150000650FD96EDA6ADF2A040EDE18D8A497D0E8
:101510000C50100DF350650FD96EDA6A000EDF6EB5
:101520000C50100DF350600FD96EDA6A01D80AD052
:101530000500FA6EDE50FD6EDE50FE6EF850FF6E56
:10154000FA5012000009D8B408D00C50100DF35016
:10155000640FD96EDA6ADF0672D00C50100DF350AA
:101560006A0FD96EDA6A0001DF800C50100DF3505B
:10157000640FD96EDA6ADF2A62D00C50100DF35076
:10158000640FD96EDA6A020EDE18D8A416D00C5099
:10159000100DF350600FD96EDA6A01D80AD0050039
:1015A000FA6EDE50FD6EDE50FE6EF850FF6EFA50A1
:1015B0001200E806D8B4D9D742D00C50100DF35021
:1015C000640FD96EDA6A030EDE18D8A438D00C5036
:1015D000100DF350650FD96EDA6ADF2A040EDE189B
:1015E000D8A42DD00C50100DF350650FD96EDA6AC7
:1015F000000EDF6E0C50100DF350600FD96EDA6ADA
:1016000001D80AD00500FA6EDE50FD6EDE50FE6E87
:10161000F850FF6EFA501200E806D8A496D70C5086
:10162000100DF3506A0FD96EDA6A0001DF900C508A
:10163000100DF350640FD96EDA6A000EDF6E0C06DF
:101640000CBE120032D7000E416E000E426E000E2C
:10165000896E000E8B6E000E8C6E000E8D6E000E6D
:101660008A6E0F0EC16ECF0EB46E000E6D6E080E38
:101670006F6E870ED56ED768D10ED66EF28A8D80CA
:10168000969095909592959495968B929492968239
:101690009480968431EC0DF0E2EC11F0B2EC11F094
:1016A0000001CB81CB95CB93010ECA6FF28ECCA1FA
:1016B00002D0CC91478047A013D0412A140E411884
:1016C000D8A405D0000E416ECBB194EC15F0422A9F
:1016D000030E4218D8A404D0000E426E2DEC10F078
:1016E00011EC12F03CEC12F0E3EC0DF00001CA0535
:1016F000D8A43BD0CBA320D089EC0EF0436E43049A
:10170000D8A407D0020E486E010E506E0001CB85A2
:1017100013D0020E4318D8A40FD0010E0001B76FEA
:10172000020ECA6F030E486E020E506ECB95CB931D
:10173000000E8EEC15F0898A0001CBA522D066EC54
:1017400014F0436E4304D8A409D0010E486E000E75
:10175000506ECB95010E1EEC14F013D0020E431800
:10176000D8A40FD0020ECA6F0CD0020ECA19D8A48A
:1017700008D07DEC14F00009D8B403D0ECEC14F0E0
:10178000899A4CEC11F06AEC0FF04790CCEC15F014
:101790008ED7000E366E010E356E22C037F00ED099
:1017A00035C00BF036C00CF0000E0E6E0A0E0D6E3A
:1017B00094EC14F00BC035F00CC036F03706372827
:1017C000D8A4EED73550235C2450800A256E3650BD
:1017D000800A2558D8A006D0FF0E3524236EFF0EB0
:1017E0003620246E2A0E1A6E23C01BF024C01CF073
:1017F000000E1E6E0A0E1D6E05EC14F0000E376E04
:1018000013D00F0EF66E080EF76E37C025F0266A5D
:1018100025BE260625502024D96E26502120DA6EBA
:101820000800F5CFDFFF372A3750800A256E225097
:10183000800A255CD8A0E5D7000E376E2A0E0B6E05
:10184000B9EC14F00B04346E21D037502A0FD96E46
:10185000DA6ADF50256ED00E25262550010F266E40
:1018600026C0F6FF080EF76E0800F5CF27F034C04B
:1018700028F0296A28BE290628502024D96E29502C
:101880002120DA6E2750DF123406372A37502A0F0C
:10189000D96EDA6ADF50D8B41200D7D715C019F064
:1018A0001A6A1B6A1434193601E31A8019501C6E27
:1018B0001C50D8A407D0000E136E000E146E000E3C
:1018C000156E120018C019F01A6A1B6A17341936FF
:1018D00001E31A801950216E2150D8A407D0000EC0
:1018E000136E000E146E000E156E120021507B0F49
:1018F0001C2615C021F01850211A800E2116148EB6
:10190000178EFF0E1616FF0E1716000E1816000E75
:101910001D6E000E1E6E000E1F6E070E206E13A0B1
:1019200006D016501D2617501E2218501F22D89080
:10193000153214321332D890163617361836202E38
:10194000EED7090E206E13A006D016501D26175094
:101950001E2218501F22D890153214321332D890FC
:101960001F321E321D32202EEED71DC00BF01EC0BE
:101970000CF01FC00DF01CC00EF021C00FF08CEC5D
:101980000DF00BC013F00CC014F00DC015F01200D8
:1019900024C026F0276A286A2334263601E32780EC
:1019A0002650306E3050D8A409D0000E226E000EA2
:1019B000236E000E246E000E256E1200170E266E8A
:1019C00022C027F023C028F024C029F026282A6E40
:1019D00004D0D8902932283227322A2EFAD727501D
:1019E0002B6E238EFF0E2216FF0E2316000E2416DA
:1019F00022502C6E23502D6E24502E6E2F6A8E0E88
:101A0000305E30AE0DD03050800A8F0FD8A0CDD7C9
:101A1000D8902F322E322D322C32303EF9D70DD0C5
:101A2000170E306407D0C1D7D8902C362D362E36FD
:101A30002F3630063050D8A4F7D72B50D8B408D062
:101A40002F1E2E1E2D1E2C6C000E2D222E222F221C
:101A50002CC022F02DC023F02EC024F02FC025F082
:101A600012009488948A948C948E9588820E00013A
:101A7000606F2B0E616F3C0E706F2B0E716F320E0C
:101A8000806F2B0E816F920E906F2B0E916F8A0ECE
:101A9000A06F2B0EA16F000E0B6E0B50100DF350AC
:101AA0006A0FD96EDA6ADF820B50100DF3506A0F9D
:101AB000D96EDA6ADF940B50100DF3506A0FD96EAD
:101AC000DA6ADF960B50100DF3506A0FD96EDA6A9E
:101AD000DF9A0B50100DF350690FD96EDA6A000EC1
:101AE000DF6E0B50100DF3506C0FD96EDA6A640E76
:101AF000DE6E000EDD6E0B50100DF3506E0FD96EC2
:101B0000DA6A280EDE6E000EDD6E0B2A0B50800A9C
:101B10007B0FD8B01200C1D70E50D8B405D00B50EF
:101B20000C100D10D8A40CD0000E0B6E000E0C6E15
:101B3000000E0D6E12000E2AD8900D320C320B32B0
:101B4000000E0B14106E000E0C14116EFE0E0D1410
:101B5000126E105011101210D8B40CD0ECD70E2AFF
:101B6000010E0B26000E0C22000E0D22D8900D3215
:101B70000C320B32000E0B14106E000E0C14116E92
:101B8000FF0E0D14126E105011101210D8B406D0A2
:101B9000E6D70E06D8900B360C360D360CBE03D0A9
:101BA000020E0E60F6D70EA00C9ED8900E320E508C
:101BB0000D120F50D8A40D8E0BC00BF00CC00CF002
:101BC0000DC00DF01200C351D8A420D0522A080E27
:101BD0005218D8A402D0000E526E52C00BF0010E63
:101BE0000C6E0B2A02D0D8900C360B2EFCD70C5062
:101BF0000001C915106E1050D8B4120010C0C8F002
:101C0000000EC06F000EBF6FC32B1200C305D8A417
:101C1000120052C00BF0010E0C6E000E0D6E0B2A5E
:101C200003D0D8900C360D360B2EFBD7C9C00EF062
:101C30000F6A0EBE0F060C500E160D500F160E50EA
:101C40000F10D8B412D047A012000001BF4BC02B18
:101C5000E80EBF5D030EC059D8A01200000EC06F81
:101C6000000EBF6F000EC36F1200000E0001C36FA5
:101C70001200116E000E126E11C00BF0010E0C6EF0
:101C8000000E0D6E0B2A03D0D8900C360D360B2E9D
:101C9000FBD712C00EF0010E0F6E000E106E0E2A52
:101CA00003D0D8900F3610360E2EFBD70C500F16DF
:101CB0000D5010160F501010D8B412D01250040D41
:101CC000F350CF0FD96EDA6A01D81CD00500FA6E36
:101CD000DE50FD6EDE50FE6EF850FF6EFA501200C0
:101CE0001250040DF350CD0FD96EDA6A01D80AD024
:101CF0000500FA6EDE50FD6EDE50FE6EF850FF6E8F
:101D0000FA501200122A1250800A7B0FD8B012002B
:101D1000B3D7000E216E4804D8A403D0F0EC0FF026
:101D2000216E4D50D8A404D061EC15F04D2A3ED060
:101D30004D04D8A406D07AEC15F00009D8A4F6D743
:101D400035D0020E4D18D8A416D04C501F6E206A04
:101D50001FBE200600EC13F00009D8B404D04C508C
:101D600036EC14F04D2A4C2A080E4C18D8A41ED07C
:101D7000000E4C6E1BD0030E4D18D8A40CD07AEC7C
:101D800015F00009D8B412D0000E0C6E010E0B6EC7
:101D9000A3EC15F0CBD7040E4D18D8A407D072ECE5
:101DA00015F00009D8B402D0020E4D6E2150120079
:101DB00013C017F014C018F017C00BF018C00CF0C7
:101DC00015C00DF016C00EF067EC12F00BC017F046
:101DD0000CC018F0122A17501810D8A4EDD71250C2
:101DE000D96EDA6A000EDF6E120613C00BF014C053
:101DF0000CF015C00DF016C00EF048EC13F00B50AF
:101E0000196E13C00BF014C00CF015C00DF016C005
:101E10000EF067EC12F00BC013F00CC014F0090EBA
:101E2000196402D0070E1926300E19261250D96EE9
:101E3000DA6A19C0DFFF120613501410D8A4D5D7E0
:101E4000122A1200000E0C6E000E1AEC15F000099A
:101E5000D8B410D0000E4EEC15F0BE2BBE51800A47
:101E6000770FD8A005D0000EBE6F010E0C6E02D009
:101E7000010EBD6F010E1AEC15F00009D8B40DD09B
:101E8000010E4EEC15F0BE07BEAF05D0080EBE6FBA
:101E9000010E0C6E02D0010EBD6F020E1AEC15F091
:101EA0000009D8B403D0020E4EEC15F0030E1AEC64
:101EB00015F00009D8B403D0030E4EEC15F0040E53
:101EC0001AEC15F00009D8B403D0040E4EEC15F04E
:101ED0000C5012004F50D8A411D0030E0001B719B6
:101EE000D8B404D0020EB719D8A402D04F2A1200D9
:101EF000B705D8A41200030E4F6E12004F04D8A4E9
:101F000014D00001B451B511D8A41200020EB719B3
:101F1000D8A405D001013BA103D03B9101D0B7511A
:101F20004F2A000E0001C26F1200020E4F18D8A4F3
:101F30000DD047A012000001C22B0A0EC219D8A46E
:101F40001200000EC26F010EB76FD0D7030E4F18EC
:101F5000D8A412000001B751D8A41200000E4F6E91
:101F60001200000E226E000E236E000E246E000E74
:101F7000266E000E256E22C013F023C014F024C07C
:101F800015F025C00BF026C00CF0000E0E6E060EEC
:101F90000D6E94EC14F0060E0B24D96E010E0C207D
:101FA000DA6EDECF16F0DECF17F0DDCF18F07FEC63
:101FB00009F013C022F014C023F015C024F0254A04
:101FC000262A26BED8D7265004E1080E255CD8A0C4
:101FD000D2D722C01FF023C020F024C021F012006D
:101FE000000E0C6E000E1AEC15F00009D8B408D0E3
:101FF000000E4EEC15F0000E81EC15F0010E0C6E8B
:10200000010E1AEC15F00009D8B408D0010E4EEC00
:1020100015F0080E81EC15F0010E0C6E020E1AEC94
:1020200015F00009D8B403D0020E4EEC15F0030EE3
:102030001AEC15F00009D8B403D0030E4EEC15F0DD
:10204000040E1AEC15F00009D8B405D0020E0C6E7F
:10205000040E4EEC15F00C5012004E04156E15AE29
:1020600002D0040E156E1550040DF350CD0FD96E2D
:10207000DA6A01D80AD00500FA6EDE50FD6EDE5035
:10208000FE6EF850FF6EFA5012004E50800A7D0F1F
:10209000D8B007D03C0E4E24D96EDA6A010EDA228F
:1020A0000BD04EC013F0146A13BE14063C0E13245A
:1020B000D96E010E1420DA6EDF508A6E4E5039EC64
:1020C0000EF04E2A050E4E18D8A41200000E4E6EC9
:1020D00012003F6E3F50800A780FD8B02AD0010E10
:1020E0003F24386EE86AD8B0E82A3FBEE806396E69
:1020F00035EC15F03F50060D060EF324D96E010E97
:10210000F420DA6EDECF3CF0DECF3DF0DDCF3EF0E6
:102110003C503D103E10D8A403D06AEC15F01200DC
:102120003CC041F13DC042F13EC043F10BEC15F023
:10213000120088EC15F03751386E396A38BE39060E
:1021400028EC15F012003F6E3F50800A780FD8B08F
:102150002AD0010E3F24386EE86AD8B0E82A3FBE84
:10216000E806396E35EC15F03F50060D060EF324E7
:10217000D96E010EF420DA6EDECF3CF0DECF3DF0FA
:10218000DDCF3EF03C503D103E10D8A403D06AECA9
:1021900015F012003CC041F13DC042F13EC043F198
:1021A0000BEC15F0120088EC15F03751386E396AD7
:1021B00038BE390628EC15F0120018AE0FD0000E0C
:1021C0001C6E000E1D6E800E1E6E16501C5C166E70
:1021D00017501D58176E18501E58186E1BAE0FD092
:1021E000000E1C6E000E1D6E800E1E6E19501C5CC3
:1021F000196E1A501D581A6E1B501E581B6E000E79
:10220000161A000E171A800E181A000E191A000E50
:102210001A1A800E1B1A1950165C1A5017581B50A8
:102220001858D8B002D0D8901200D8801200B60E3C
:10223000F66E290EF76E000EF86E00EECDF010EE81
:1022400021F00900F5CFEEFFE550E150FAE1CC0EA8
:10225000F66E2B0EF76E000EF86E0900F5CF51F0FA
:102260000900F5CF52F001EE00F0410EEE6AE806EB
:10227000FDE100EE60F06D0EEE6AE806FDE100EEB5
:1022800044F00D0EEE6AE806FDE153905392000E05
:10229000F86E000123EF0BF044504510D8B4120043
:1022A0004650D8A406D08D90000E0001C16F462A7A
:1022B00012004604D8A40DD047A012000001C12B83
:1022C000320EC119D8A41200000EC16F462A8D80AB
:1022D0001200020E4618D8A4120047A012000001F6
:1022E000C12B320EC119D8A41200000EC16F000E0E
:1022F000466E4406D8A0450644504510D8B4120096
:102300001200000E036EB451B511D8B429D0B651E5
:1023100069EC13F00001B651B227000EB6BFFF0EF4
:10232000B32384CF02F0D890023202B00AD0000E5C
:10233000B56F000EB46F000EB16F000EB06F010EDE
:10234000036EB451B2190CE1B551B319D8A408D039
:10235000000EB56F000EB46F010E036E01013B81DC
:1023600003501200000E0101036F3C0E026F000EBD
:102370000B6E0B50060D060EF324D96E010EF420E1
:10238000DA6E9A0EDE6E190EDE6E400EDE6E0B2ACF
:102390000B50800A780FD8A0ECD70B0EF66E080E03
:1023A000F76E0800F5CF37F1000E0101186F000E2F
:1023B000196F000E1A6F000E246F000E256F000EAD
:1023C000266F1200000E0C6E0F0EF66E080EF76EE2
:1023D0003F0E0C24D96EDA6A010EDA220800F5CF1E
:1023E000DFFF0C2A0C50800A7E0FD8A0EDD7000E1C
:1023F0000C6E0F0EF66E080EF76E3C0E0C24D96EA6
:10240000DA6A010EDA220800F5CFDFFF0C2A0C5041
:10241000800A7D0FD8A0EDD7000E936E8AEC13F0E2
:1024200012000001C751D8A40BD0CA05D8A41200CD
:1024300042EC15F00009D8A41200C981C72B120084
:10244000C705D8A4120042EC15F00009D8B407D093
:10245000C991000EC76F000EC66FECEC14F0C8A156
:1024600008D0C651D8A41200E9EC13F00001C62B25
:102470001200000EC66F1200C551D8A40BD0CFECCD
:1024800015F00009D8A41200C983000ECA6F898A0A
:10249000C52B1200C505D8A41200CFEC15F0000919
:1024A000D8B408D0C993000EC56F000EC46FECEC11
:1024B00014F0899AC8A308D0C451D8A41200CAEC59
:1024C00014F00001C42B1200000EC46F1200000EA5
:1024D000116E000E106E0D500E10D8B41CD0010EEF
:1024E0000F6E04D0D8900D360E360F2A0EAEFAD7E6
:1024F000D890103611360D500B5C0E500C58D8A0E9
:1025000005D00D500B5E0E500C5A1080D8900E3234
:102510000D320F2EEDD710C00BF011C00CF01200D1
:102520000D6E0D50100DF350690FD96EDA6ADF5041
:10253000D8B41AD00D50100DF350690FD96EDA6A65
:10254000DF500B6E0B50B80FD96EDA6ADE04D8A4D8
:102550000BD00D50100DF3506B0FD96EDA6A0001DD
:10256000DFB002D0000E1200010E12000600FACFFA
:1025700005F0FBCF06F0D9CF07F0DACF08F0F3CFA4
:1025800009F0F4CF0AF0F2A408D00001CC8124ECC9
:1025900013F0F294D768D10ED66E0AC0F4FF09C0CA
:1025A000F3FF08C0DAFF07C0D9FF06C0FBFF05C074
:1025B000FAFF53921100000E026EB451B511D8B457
:1025C0001DD0B65169EC13F00001B651B227000ED0
:1025D000B6BFFF0EB323B651B027000EB6BFFF0E35
:1025E000B123B451B2190AE1B551B319D8A406D038
:1025F000000EB56F000EB46F010E026E0250120095
:10260000000E166E000E176E000E186E1FC00BF037
:1026100020C00CF0000E0E6E060E0D6E94EC14F041
:10262000060E0B24D96E010E0C20DA6EDECF19F0E7
:10263000DECF1AF0DDCF1BF0DDEC10F0D8B002D009
:10264000010E1200000E1200020EB719D8A403D01A
:1026500081EC11F01200030EB719D8A403D0DBEC03
:1026600012F01200B705D8A41200000EB56F000ECC
:10267000B46F01D80AD00500FA6EEC51FD6EED5131
:10268000FE6EF850FF6EFA501200000EB76F120087
:102690000D500E10D8B418D0010E0F6E04D0D89083
:1026A0000D360E360F2A0EAEFAD70D500B5C0E50BB
:1026B0000C58D8A004D00D500B5E0E500C5AD89078
:1026C0000E320D320F2EF1D70BC00BF00CC00CF0F8
:1026D0001200016E51500124516E5150800A7C0F3E
:1026E000D8A002D0000E516E51AE02D0030E516E32
:1026F0005150020DF350E10FD96EDA6A01D8120081
:102700000500FA6EDE50FD6EDE50FE6EF850FF6E74
:10271000FA501200000E0B6E0B50040DF350CD0F4B
:10272000D96EDA6A01D80AD00500FA6EDE50FD6E65
:10273000DE50FE6EF850FF6EFA5012000B2A0B505E
:10274000800A7B0FD8A0E8D79298929692949292A2
:1027500092901200225023102410D8B406D0000EFC
:10276000221A000E231A800E241A1FC013F020C054
:1027700014F021C015F022C016F023C017F024C0B9
:1027800018F07FEC09F013C01FF014C020F015C042
:1027900021F01200000E106E13D00F0EF66E080E10
:1027A000F76E10C00EF00F6A0EBE0F060E500B240F
:1027B000D96E0F500C20DA6E0800F5CFDFFF102A1B
:1027C0001050800A0E6E0D50800A0E5CD8B01200B8
:1027D000E4D7000E396E140E386E35EC15F0100E7D
:1027E000F66E080EF76E0800F5CF3EF1100EF66E8D
:1027F000080EF76E0800F5CF3DF1100EF66E080ECC
:10280000F76E0800F5CF3CF112001CAE0AD01A504A
:10281000D96EDA6A2D0EDF6E1A2A1B6C1C1ED8B018
:102820001C2A1AC012F01BC013F01CC014F01DC0EB
:1028300015F01EC016F0D8EC0EF012003C6E505091
:10284000D8A40CD058EC15F0B1EC0FF01FC041F13A
:1028500020C042F121C043F10BEC15F03C50D8A44C
:102860001200000E4C6E000E4D6E1200156E1550CB
:102870000B6E0C6A0BBE0C06000E0E6EC80E0D6EB3
:1028800094EC14F00001B0510B5C116EB1510C5876
:10289000126E4EEC14F0030EB76F120011501210AE
:1028A000D8B4120012BE05D0000E146E010E136EC5
:1028B00002D01368146813C0B6F0000EB36F000E98
:1028C000B26F11C0B4F012C0B5F01200000E406E2D
:1028D000020E4818D8A403D022EC0FF0406EBD05BC
:1028E000D8A409D05004D8A403D0BE5169EC10F08C
:1028F000000E0001BD6F40501200000E406E030E2E
:102900004818D8A403D021EC07F0406E4A04D8A49C
:1029100009D0020E5018D8A403D04B50A3EC10F0ED
:10292000000E4A6E405012000B500D02F3CF0FF014
:10293000F4CF10F00B500E02F35010260C500D0285
:10294000F35010260FC00BF010C00CF0120013C093
:102950000BF014C00CF00D6A8E0E0E6E000E0F6E92
:102960008CEC0DF00BC013F00CC014F00DC015F082
:1029700012000BC00DF001D00D2A0D50D96EDA6A8D
:10298000DF50D8A4F9D70B500D5C0B6E0C6A0BBE50
:102990000C061200540E0101406F5C0E3F6F010ED9
:1029A000F66E080EF76E0800F5CF3EF1300E3D6F63
:1029B000380E3C6F1200C42BC02BBC2BB82BB42B91
:1029C000B02BAC2BA82BA42BC82B642B5A2B502B31
:0729D0006E2BCDCC3D782BEE
:1029D8000001CB83CB95000E1EEC14F0010E486E5F
:1029E800000E506E010E0001CA6FCCEC15F01200FB
:1029F800000E0B6E0B50100DF3506A0FD96EDA6A89
:102A08000001DF9C0B2A040E0B64F4D712003C0E65
:102A1800316E010E326E030E336E41C134F042C185
:102A280035F043C136F071EC08F012000B6E0B5014
:102A3800100DF3506A0FD96EDA6A0001DFAC02D0CC
:102A4800010E1200000E12003C0E206E010E216EC7
:102A5800030E226E38C023F039C024F0C9EC0BF005
:102A680012003F0E206E010E216E020E226E38C03B
:102A780023F039C024F0C9EC0BF0120084CF0BF01E
:102A8800D8900B32D8900B320BB002D0010E120046
:102A9800000E12000B6E0B50100DF3506A0FD96E1A
:102AA800DA6A0001DF9C12003F0E0B6E010E0C6EFD
:102AB800020E0D6ECAEC13F01200F10E126EDC0E4F
:102AC800116E4EEC14F0020EB76F12003F0E0101AA
:102AD8003E6F710E3D6F710E3C6F120044504510F1
:102AE800D8A402D0010E1200000E1200B751D8A4CB
:102AF80002D0010E1200000E12000B6E0BC0BEF0C9
:102B0800010E0001BD6F12005C0E0101406F160E30
:102B18003F6F12000B6E0BC04BF0010E4A6E120095
:102B280053EC0AF009EC04F012008244E846030B67
:102B3800010B12008238E842070B010B12000BC090
:102B480044F00CC045F012008C908C828C948C96CA
:102B580012008C908C928C848C9612008C908C92A3
:102B68008C948C8612008C808C928C948C9612009B
:102B78008C908C928C948C96120082380F0B010BDF
:102B8800120083380F0B010B12008244010B120054
:102B9800FCEC14F012008250010B12008980120024
:102BA8008992120089821200899412008984120085
:102BB8008996120089861200899812008988120065
:062BC80089901200FFFFDE
:020000040020DA
:08000000FFFFFFFFFFFFFFFF00
:020000040030CA
:0E000000240E381EFF8181FF0FC00FE00F405D
:00000001FF
