:0400000007EF00F016
:0A00080045821EED0EF015EF0DF01D
:10080000003F065B4F666D7C077F67004000000E6F
:10081000236E2350100DF350660FD96EDA6ADF5045
:10082000D8A48BD02350F8EC0DF00009D8B485D0B3
:100830002350100DF3506A0FD96EDA6A0001DFA061
:100840007CD02350100DF3506A0FD96EDA6ADFA204
:100850001FD02350100DF3506A0FD96EDA6ADF8C67
:100860002350100DF3506A0FD96EDA6ADFAA08D050
:100870002350100DF350660FD96EDA6A060E37D08A
:100880002350100DF350660FD96EDA6A010E2FD087
:100890002350100DF3506A0FD96EDA6ADFA408D026
:1008A0002350100DF350660FD96EDA6A050E1FD073
:1008B0002350100DF3506A0FD96EDA6ADFA608D004
:1008C0002350100DF350660FD96EDA6A030E0FD065
:1008D0002350100DF3506A0FD96EDA6ADFA808D0E2
:1008E0002350100DF350660FD96EDA6A040EDF6ED6
:1008F0002350100DF3506B0FD96EDA6ADF8223504C
:10090000100DF350690FD96EDA6ADF50D8B415D0E4
:100910002350100DF350690FD96EDA6ADF501F6E45
:100920001F50B00FD96EDA6A010EDF6E2350100D22
:10093000F3506B0FD96EDA6ADF802350100DF3503D
:10094000660FD96EDA6A050EDF6424D02350100DCD
:10095000F350660FD96EDA6A090EDF601BD02350A0
:10096000100DF3506A0FD96EDA6A0001DFB012D0B1
:100970002350100DF350670FD96EDA6A000EDE6E49
:10098000000EDD6E2350100DF350660FD96EDA6A3B
:10099000020EDF6E2350100DF350660FD96EDA6A27
:1009A000060EDE18D8A427D02350100DF3506C0F7C
:1009B000D96EDA6A2350100DF350670FE16EE26AC8
:1009C000E62A000EE522DE50E65CDE50E658D8A0AE
:1009D00012D02350100DF350670FD96EDA6A000E53
:1009E000DE6E000EDD6E2350100DF350660FD96ED3
:1009F000DA6A070EDF6E2350100DF350660FD96EC2
:100A0000DA6A070EDE18D8A418D02350100DF35060
:100A10006A0FD96EDA6A0001DFBC0FD02350100DC7
:100A2000F3506A0FD96EDA6ADF8C2350100DF35041
:100A3000660FD96EDA6A080EDF6E2350100DF35080
:100A4000660FD96EDA6A080EDE18D8A427D02350B4
:100A5000100DF3506E0FD96EDA6A2350100DF3505B
:100A6000670FE16EE26AE62A000EE522DE50E65CE0
:100A7000DE50E658D8A012D02350100DF350670F67
:100A8000D96EDA6A000EDE6E000EDD6E2350100D98
:100A9000F350660FD96EDA6A070EDF6E2350100D21
:100AA000F350660FD96EDA6A050EDE18D8A418D096
:100AB0002350100DF3506A0FD96EDA6A0001DFB0CF
:100AC0000FD02350100DF3506A0FD96EDA6ADF8C05
:100AD0002350100DF350660FD96EDA6A020EDF6EE6
:100AE0002350100DF350660FD96EDA6A030EDE182C
:100AF000D8A49CD02350100DF350670FD96EDA6A3A
:100B0000DE2A000EDD222350100DF3506A0FD96E3D
:100B1000DA6A0001DFB03DD0000E166E480E176E87
:100B2000430E186E2350100DF350670FD96EDA6A1A
:100B3000DECF13F0DDCF14F099EC0FF013C019F0F5
:100B400014C01AF015C01BF0A2EC0CF0D8A021D0F4
:100B50002350100DF350670FD96EDA6A000EDE6E67
:100B6000000EDD6E2350100DF3506A0FD96EDA6A55
:100B70000001DF8C2350100DF3506A0FD96EDA6A32
:100B8000DF9E2350100DF350660FD96EDA6A020E05
:100B9000DF6E000E166E480E176E430E186E235051
:100BA000100DF350670FD96EDA6ADECF13F0DDCF88
:100BB00014F099EC0FF013C019F014C01AF015C01E
:100BC0001BF0A2EC0CF0D8B031D02350100DF35034
:100BD000670FD96EDA6A000EDE6E000EDD6E2350EE
:100BE000100DF3506A0FD96EDA6A0001DF8C2350C2
:100BF000100DF3506A0FD96EDA6ADF8E2350100D94
:100C0000F3506A0FD96EDA6ADFBA08D02350100D9C
:100C1000F350660FD96EDA6A010E07D02350100D1B
:100C2000F350660FD96EDA6A080EDF6E2350100D8E
:100C3000F350660FD96EDA6A040EDE18D8A48CD091
:100C40002350100DF350670FD96EDA6ADE2A000EBA
:100C5000DD222350100DF3506A0FD96EDA6A0001BD
:100C6000DFB03DD0000E166E480E176E430E186EA4
:100C70002350100DF350670FD96EDA6ADECF13F0F0
:100C8000DDCF14F099EC0FF013C019F014C01AF076
:100C900015C01BF0A2EC0CF0D8A021D02350100DF1
:100CA000F350670FD96EDA6A000EDE6E000EDD6E4D
:100CB0002350100DF3506A0FD96EDA6A0001DF8CF1
:100CC0002350100DF3506A0FD96EDA6ADF9E23505D
:100CD000100DF350660FD96EDA6A020EDF6E2350E4
:100CE000100DF350670FD96EDA6ADECF13F0DDCF47
:100CF00014F099EC0FF013C016F014C017F015C0E3
:100D000018F0000E196E160E1A6E440E1B6EA2EC31
:100D10000CF0D8A021D02350100DF350670FD96EDE
:100D2000DA6A000EDE6E000EDD6E2350100DF350F9
:100D30006A0FD96EDA6A0001DF8C2350100DF35070
:100D40006A0FD96EDA6ADF8E2350100DF350660FEA
:100D5000D96EDA6A010EDF6E2350100DF350660F64
:100D6000D96EDA6ADE04D8A411D02350100DF350E6
:100D70006A0FD96EDA6A0001DFB008D02350100D77
:100D8000F350660FD96EDA6A020EDF6E2350100D33
:100D9000F350660FD96EDA6A020EDE18D8A411D0AD
:100DA0002350100DF3506A0FD96EDA6A0001DFBCD0
:100DB00008D02350100DF350660FD96EDA6A090E71
:100DC000DF6E2350100DF350660FD96EDA6A090EEC
:100DD000DE18D8A42FD02350100DF350690FD96E10
:100DE000DA6ADF50D8B416D02350100DF350690FD3
:100DF000D96EDA6ADF501F6E1F50B00FD96EDA6AF3
:100E0000000EDF6E2350100DF3506B0FD96EDA6AAF
:100E10000001DF902350100DF350660FD96EDA6A8F
:100E2000000EDF6E2350100DF3506B0FD96EDA6A8F
:100E30000001DF92232A040E2364EBD4120031C098
:100E400016F032C017F033C018F0000E196E7A0E8B
:100E50001A6E440E1B6EA2EC0CF0D8A006D0C00E89
:100E6000316E790E326E440E336E31C022F032C0D4
:100E700023F033C024F08DEC0AF022C0E3F023C04D
:100E8000E4F031C01FF032C020F033C021F0E3C0E5
:100E900013F0E4C014F00FEC0FF013C022F014C0F4
:100EA00023F015C024F0EFEC0EF01FC0DDF020C0E1
:100EB000DEF021C0DFF0000E166E000E176E000E81
:100EC000186EDDC019F0DEC01AF0DFC01BF0A2EC16
:100ED0000CF0D8B02AD031C016F032C017F033C0B1
:100EE00018F0000E196EC80E1A6E420E1B6EA2ECA0
:100EF0000CF0D8B01AD0000E166E200E176E410EF0
:100F0000186E31C013F032C014F033C015F013EC7A
:100F10000AF013C022F014C023F015C024F08DECA9
:100F20000AF022C0E3F023C0E4F0D30E1A6EE3C04F
:100F30001BF0E4C01CF0000E1E6E0A0E1D6E2BECA2
:100F40000FF00B0EF66E080EF76E0800F5CF78F175
:100F50000B0EF66E080EF76E0800F5CF77F10B0E4C
:100F6000F66E080EF76E0800F5CF76F1DDC016F0CC
:100F7000DEC017F0DFC018F0D70E196E230E1A6E00
:100F80003C0E1B6EA2EC0CF0D8B037D00001E4BFD1
:100F900008D0E45104E1640EE35DD8A002D0020E53
:100FA0000BD0E4BF08D0E45104E10A0EE35DD8A001
:100FB00002D0010E01D0000EE26F000EE16FE2C020
:100FC000E5F0E5BF1200E551D30FD96EDA6ADF50C4
:100FD000D00FE06FE051010F346E34C0F6FF080E01
:100FE000F76E760EE125D96EDA6A010EDA22080074
:100FF000F5CFDFFFE12BE507E4D731C016F032C0B3
:1010000017F033C018F0000E196EC80E1A6E420E9B
:101010001B6EA2EC0CF0D8B041D00001E4BF08D0A8
:10102000E45104E1640EE35DD8A002D0020E12D0B8
:10103000E4BF08D0E45104E10A0EE35DD8A002D079
:10104000010E08D0010EF66E080EF76E0800F5CFFF
:1010500077F1000EE26F000EE16FE2C0E5F0E5BF50
:101060001AD0E551D30FD96EDA6ADF50D00FE06F96
:10107000E051010F346E34C0F6FF080EF76E760EA5
:10108000E125D96EDA6A010EDA220800F5CFDFFF1A
:10109000E12BE507E4D70101778F1200000E000174
:1010A000E16F020EE56FE551D30FD96EDA6ADF50BA
:1010B000D00FE06FE051010F346E34C0F6FF080E20
:1010C000F76E760EE125D96EDA6A010EDA22080093
:1010D000F5CFDFFFE12BE507E5BF1200E4D715C030
:1010E00019F01A6A1B6A1434193601E31A80195070
:1010F0001E6E18C019F01A6A1B6A1734193601E3FC
:101100001A8019501D6E1E50D8B40AD01D501E5C96
:10111000D8B00DD01E501D5C196E180E196407D082
:1011200016C013F017C014F018C015F012001D50AF
:10113000D8B40AD01E501D5CD8B00DD01D501E5C16
:10114000196E180E196407D013C013F014C014F0F0
:1011500015C015F01200060E1C6E15BE1C8E18BEB2
:101160001C8C148EFF0E1316FF0E1416000E15168F
:10117000178EFF0E1616FF0E1716000E18161D50AE
:101180001E5CD8B01BD0D8901636173618361D0600
:101190001E501D18D8B40DD01C061CC019F0070E27
:1011A0001916D8B406D0EFD7D890153214321332AE
:1011B0001E2A1D501E18D8B41FD0F6D71E501D5C15
:1011C000D8B01AD0D8901336143615361E061E50D5
:1011D0001D18D8B40DD01C061CC019F0070E191626
:1011E000D8B406D0EFD7D8901832173216321D2A4D
:1011F0001D501E18D8A4F7D71CAE0CD0FF0E131A22
:10120000FF0E141AFF0E151A010E1326000E1422DB
:10121000000E15221CAC0CD0FF0E161AFF0E171A6A
:10122000FF0E181A010E1626000E1722000E1822A5
:10123000000E1C6E1350162614501722155018223B
:1012400018AE0ED0FF0E161AFF0E171AFF0E181A40
:10125000010E1626000E1722000E1822010E1C6E1B
:1012600016C00BF017C00CF018C00DF01EC00EF029
:101270001CC00FF0B1EC0BF00BC013F00CC014F05D
:101280000DC015F01200040E0C6E0C50100DF35032
:10129000640FD96EDA6ADF50D8A416D00C50100D46
:1012A000F350600FD96EDA6A01D80AD00500FA6EE1
:1012B000DE50FD6EDE50FE6EF850FF6EFA501200EA
:1012C0000009D8A4ACD041D00C50100DF350640FDD
:1012D000D96EDA6ADE04D8A440D00C50100DF35059
:1012E000650FD96EDA6ADF2A040EDE18D8A497D00B
:1012F0000C50100DF350650FD96EDA6A000EDF6ED8
:101300000C50100DF350600FD96EDA6A01D80AD074
:101310000500FA6EDE50FD6EDE50FE6EF850FF6E78
:10132000FA5012000009D8B408D00C50100DF35038
:10133000640FD96EDA6ADF0672D00C50100DF350CC
:101340006A0FD96EDA6A0001DF800C50100DF3507D
:10135000640FD96EDA6ADF2A62D00C50100DF35098
:10136000640FD96EDA6A020EDE18D8A416D00C50BB
:10137000100DF350600FD96EDA6A01D80AD005005B
:10138000FA6EDE50FD6EDE50FE6EF850FF6EFA50C3
:101390001200E806D8B4D9D742D00C50100DF35043
:1013A000640FD96EDA6A030EDE18D8A438D00C5058
:1013B000100DF350650FD96EDA6ADF2A040EDE18BD
:1013C000D8A42DD00C50100DF350650FD96EDA6AE9
:1013D000000EDF6E0C50100DF350600FD96EDA6AFC
:1013E00001D80AD00500FA6EDE50FD6EDE50FE6EAA
:1013F000F850FF6EFA501200E806D8A496D70C50A9
:10140000100DF3506A0FD96EDA6A0001DF900C50AC
:10141000100DF350640FD96EDA6A000EDF6E0C0601
:101420000CBE120032D715C019F01A6A1B6A1434A8
:10143000193601E31A8019501C6E1C50D8A407D02D
:10144000000E136E000E146E000E156E120018C002
:1014500019F01A6A1B6A1734193601E31A801950F9
:10146000216E2150D8A407D0000E136E000E146E0A
:10147000000E156E120021507B0F1C2615C021F0A6
:101480001850211A800E2116148E178EFF0E161674
:10149000FF0E1716000E1816000E1D6E000E1E6EA3
:1014A000000E1F6E070E206E13A006D016501D26CC
:1014B00017501E2218501F22D890153214321332A2
:1014C000D890163617361836202EEED7090E206E15
:1014D00013A006D016501D2617501E2218501F228A
:1014E000D890153214321332D8901F321E321D326A
:1014F000202EEED71DC00BF01EC00CF01FC00DF04B
:101500001CC00EF021C00FF0B1EC0BF00BC013F0BB
:101510000CC014F00DC015F0120024C026F0276A8C
:10152000286A2334263601E327802650306E305057
:10153000D8A409D0000E226E000E236E000E246E79
:10154000000E256E1200170E266E22C027F023C053
:1015500028F024C029F026282A6E04D0D8902932F9
:10156000283227322A2EFAD727502B6E238EFF0ED1
:101570002216FF0E2316000E241622502C6E235026
:101580002D6E24502E6E2F6A8E0E305E30AE0DD032
:101590003050800A8F0FD8A0CDD7D8902F322E325E
:1015A0002D322C32303EF9D70DD0170E306407D0D3
:1015B000C1D7D8902C362D362E362F3630063050E7
:1015C000D8A4F7D72B50D8B408D02F1E2E1E2D1E0E
:1015D0002C6C000E2D222E222F222CC022F02DC08A
:1015E00023F02EC024F02FC025F012003D50D8A4C7
:1015F00010D0030E3C18D8B404D0020E3C18D8A466
:1016000002D03D2A12003C04D8A41200020E3D6E06
:1016100012003D04D8A41DD039503A10D8A41200AD
:10162000020E3C18D8A405D0010175A103D0759114
:1016300001D03C50020E166E380E156EAD0EE82E1F
:10164000FED7152EFCD7162EFAD700F0010E3C6EF1
:10165000D8D7020E3D18D8A412003C50D8A41200CE
:10166000000E3D6E7A0E166EC10E156E820EE82EBD
:10167000FED7152EFCD7162EFAD74350010DF35086
:101680000008436E43500B6E0C6A0BBE0C06000E36
:101690000E6EC80E0D6E73EC0FF00BC011F00CC087
:1016A00012F044EC0FF0030E3C6E12009488948A02
:1016B000948C948E9588E80E0001606F1F0E616F08
:1016C000D40E706F1F0E716FCA0E806F1F0E816F68
:1016D000F80E906F1F0E916FF00EA06F1F0EA16F8E
:1016E000000E0B6E0B50100DF3506A0FD96EDA6AB4
:1016F000DF820B50100DF3506A0FD96EDA6ADF9457
:101700000B50100DF3506A0FD96EDA6ADF960B504A
:10171000100DF3506A0FD96EDA6ADF9A0B50100D74
:10172000F350690FD96EDA6A000EDF6E0B50100DA0
:10173000F3506C0FD96EDA6A640EDE6E000EDD6E49
:101740000B50100DF3506E0FD96EDA6A280EDE6E54
:10175000000EDD6E0B2A0B50800A7B0FD8B01200F2
:10176000C1D70E50D8B405D00B500C100D10D8A412
:101770000CD0000E0B6E000E0C6E000E0D6E1200E3
:101780000E2AD8900D320C320B32000E0B14106E54
:10179000000E0C14116EFE0E0D14126E105011106E
:1017A0001210D8B40CD0ECD70E2A010E0B26000E66
:1017B0000C22000E0D22D8900D320C320B32000E8E
:1017C0000B14106E000E0C14116EFF0E0D14126E21
:1017D000105011101210D8B406D0E6D70E06D890CB
:1017E0000B360C360D360CBE03D0020E0E60F6D74B
:1017F0000EA00C9ED8900E320E500D120F50D8A491
:101800000D8E0BC00BF00CC00CF00DC00DF01200D3
:10181000116E000E126E11C00BF0010E0C6E000E58
:101820000D6E0B2A03D0D8900C360D360B2EFBD73D
:1018300012C00EF0010E0F6E000E106E0E2A03D0B5
:10184000D8900F3610360E2EFBD70C500F160D50B9
:1018500010160F501010D8B412D01250040DF350BF
:10186000B70FD96EDA6A01D81CD00500FA6EDE50C7
:10187000FD6EDE50FE6EF850FF6EFA5012001250F0
:10188000040DF350B50FD96EDA6A01D80AD00500FD
:10189000FA6EDE50FD6EDE50FE6EF850FF6EFA50AE
:1018A0001200122A1250800A7B0FD8B01200B3D750
:1018B00013C017F014C018F017C00BF018C00CF0CC
:1018C00015C00DF016C00EF0A7EC0DF00BC017F010
:1018D0000CC018F0122A17501810D8A4EDD71250C7
:1018E000D96EDA6A000EDF6E120613C00BF014C058
:1018F0000CF015C00DF016C00EF08DEC0EF00B5074
:10190000196E13C00BF014C00CF015C00DF016C00A
:101910000EF0A7EC0DF00BC013F00CC014F0090E84
:10192000196402D0070E1926300E19261250D96EEE
:10193000DA6A19C0DFFF120613501410D8A4D5D7E5
:10194000122A120018AE0FD0000E1C6E000E1D6E73
:10195000800E1E6E16501C5C166E17501D58176EAA
:1019600018501E58186E1BAE0FD0000E1C6E000EC5
:101970001D6E800E1E6E19501C5C196E1A501D587B
:101980001A6E1B501E581B6E000E161A000E171AE8
:10199000800E181A000E191A000E1A1A800E1B1A41
:1019A0001950165C1A5017581B501858D8B002D04E
:1019B000D8901200D8801200000E896E000E8B6E37
:1019C000000E8C6E000E8D6E000E8A6E0F0EC16EB4
:1019D000CF0EB46E000E6D6E080E6F6E870ED56E54
:1019E000D768D10ED66EF28A8D809690959095929A
:1019F000959495968B9294929682D0EC0DF056EC3D
:101A00000BF0660E316E9B0E326E420E336E1FEC83
:101A100007F0030E126E200E116E44EC0FF0030E51
:101A20003C6EF28EF6EC0AF0FDD7560EF66E1F0EE7
:101A3000F76E000EF86E00EEB5F010EE1EF0090025
:101A4000F5CFEEFFE550E150FAE1440EF66E200EC0
:101A5000F76E000EF86E0900F5CF43F00900F5CFE0
:101A600044F001EE00F07B0EEE6AE806FDE100EEC8
:101A700060F0550EEE6AE806FDE100EE35F00E0E60
:101A8000EE6AE806FDE145904592000EF86E000111
:101A9000DCEF0CF04050D8A410D0030E3C18D8B4A2
:101AA00004D0020E3C18D8A402D0402A12003C04F4
:101AB000D8A41200020E406E12004004D8A411D027
:101AC00039503A10D8A41200020E3C18D8A405D000
:101AD000010175A103D0759101D03C50010E3C6EFF
:101AE000E4D7020E4018D8A412003C50D8A412002B
:101AF000000E406E1200000E036E39503A10D8B43A
:101B000024D03B50AEEC0EF03B503726000E3BBECF
:101B1000FF0E382284CF02F0D890023202B006D0F5
:101B2000000E3A6E000E396E010E036E39503718F2
:101B30000CE13A503818D8A408D0000E3A6E000EC6
:101B4000396E010E036E0101758103501200000E03
:101B5000116E000E106E0D500E10D8B41CD0010E78
:101B60000F6E04D0D8900D360E360F2A0EAEFAD76F
:101B7000D890103611360D500B5C0E500C58D8A072
:101B800005D00D500B5E0E500C5A1080D8900E32BE
:101B90000D320F2EEDD710C00BF011C00CF012005B
:101BA000030EF66E080EF76E0800F5CF77F1010E02
:101BB000F66E080EF76E0800F5CF76F10C0EF66E95
:101BC000080EF76E0800F5CF78F10C0EF66E080ED1
:101BD000F76E0800F5CF77F10C0EF66E080EF76E73
:101BE0000800F5CF76F1000E936ECFEC0EF01200E8
:101BF0000D6E0D50100DF350690FD96EDA6ADF507B
:101C0000D8B41AD00D50100DF350690FD96EDA6A9E
:101C1000DF500B6E0B50B00FD96EDA6ADE04D8A419
:101C20000BD00D50100DF3506B0FD96EDA6A000116
:101C3000DFB002D0000E1200010E12000600FACF33
:101C400005F0FBCF06F0D9CF07F0DACF08F0F3CFDD
:101C500009F0F4CF0AF0F2A409D04280000E3F6EE2
:101C600044EC0EF0F294D768D10ED66E0AC0F4FFA1
:101C700009C0F3FF08C0DAFF07C0D9FF06C0FBFFA9
:101C800005C0FAFF45921100020E3C18D8A403D0FB
:101C90007BEC0DF01200030E3C18D8A403D069ECC5
:101CA0000EF012003C04D8A41200000E3A6E000E92
:101CB000396E01D80BD005000001FA6ED151FD6ECE
:101CC000D251FE6EF850FF6EFA501200000E3C6EBC
:101CD0001200000E026E39503A10D8B41CD03B509E
:101CE000AEEC0EF03B503726000E3BBEFF0E382206
:101CF0003B503526000E3BBEFF0E362239503718BA
:101D00000AE13A503818D8A406D0000E3A6E000EF8
:101D1000396E010E026E025012000D500E10D8B432
:101D200018D0010E0F6E04D0D8900D360E360F2A43
:101D30000EAEFAD70D500B5C0E500C58D8A004D044
:101D40000D500B5E0E500C5AD8900E320D320F2EE5
:101D5000F1D70BC00BF00CC00CF01200016E445018
:101D60000124446E4450800A7C0FD8A002D0000E9B
:101D7000446E44AE02D0030E446E4450020DF35044
:101D8000C90FD96EDA6A01D812000500FA6EDE506A
:101D9000FD6EDE50FE6EF850FF6EFA501200000E1F
:101DA0000B6E0B50040DF350B50FD96EDA6A01D8E3
:101DB0000AD00500FA6EDE50FD6EDE50FE6EF85061
:101DC000FF6EFA5012000B2A0B50800A7B0FD8A02E
:101DD000E8D7929892969294929292901200225002
:101DE00023102410D8B406D0000E221A000E231A95
:101DF000800E241A1FC013F020C014F021C015F06B
:101E000022C016F023C017F024C018F06FEC08F0C1
:101E100013C01FF014C020F015C021F01200000EF6
:101E2000166E14AE06D0136C141ED8B0142A010E10
:101E3000166E13C00BF014C00CF00D6A8E0E0E6EF1
:101E400016C00FF0B1EC0BF00BC013F00CC014F087
:101E50000DC015F012001CAE0AD01A50D96EDA6A05
:101E60002D0EDF6E1A2A1B6C1C1ED8B01C2A1AC03D
:101E700012F01BC013F01CC014F01DC015F01EC0E2
:101E800016F058EC0CF0120011501210D8B41200D9
:101E900012BE05D0000E146E010E136E02D0136830
:101EA000146813C03BF0000E386E000E376E11C080
:101EB00039F012C03AF01200156E030E3C6E155048
:101EC0000B6E0C6A0BBE0C06000E0E6EC80E0D6E6D
:101ED00073EC0FF035500B5C116E36500C58126ECF
:101EE00044EC0FF012000B500D02F3CF0FF0F4CFC3
:101EF00010F00B500E02F35010260C500D02F35050
:101F000010260FC00BF010C00CF01200760E3E240D
:101F1000D96EDA6A010EDA22DF508A6E3E5008EC82
:101F20000CF03E2A050E3E18D8A41200000E3E6E9C
:101F3000120013C00BF014C00CF00D6A8E0E0E6E62
:101F4000000E0F6EB1EC0BF00BC013F00CC014F0D0
:101F50000DC015F012003C203820342030202C20F9
:101F60002820242020201C20402010200A2004208B
:101F70001620DE1F000E0B6E0B50100DF3506A0F73
:101F8000D96EDA6A0001DF9C0B2A040E0B64F4D7C9
:101F900012000B6E0B50100DF3506A0FD96EDA6AF7
:101FA0000001DFAC02D0010E1200000E1200020E82
:101FB0003C6EF10E126EDC0E116E44EC0FF012004E
:101FC00043EC09F007EC04F012008244E846030BEE
:101FD000010B12008238E842070B010B12008C90B3
:101FE0008C928C948C96120082380F0B010B12008D
:101FF00083380F0B010B12008244010B1200BAEC64
:102000000FF01200020E8C6E1200040E8C6E120085
:10201000080E8C6E1200010E8C6E12008980120068
:102020008992120089821200899412008984120018
:1020300089961200898612008998120089881200F8
:06204000899012000AFF66
:020000040020DA
:08000000FFFFFFFFFFFFFFFF00
:020000040030CA
:0E000000240E381EFF8181FF0FC00FE00F405D
:00000001FF
