:0400000007EF00F016
:0A0008005D824AED0FF0F3EF0CF0FB
:10080000003F065B4F666D7C077F67004000000E6F
:10081000196E1950100DF350660FD96EDA6ADF5059
:10082000D8A48BD01950A9EC0DF00009D8B485D00C
:100830001950100DF3506A0FD96EDA6A0001DFA06B
:100840007CD01950100DF3506A0FD96EDA6ADFA20E
:100850001FD01950100DF3506A0FD96EDA6ADF8C71
:100860001950100DF3506A0FD96EDA6ADFAA08D05A
:100870001950100DF350660FD96EDA6A060E37D094
:100880001950100DF350660FD96EDA6A010E2FD091
:100890001950100DF3506A0FD96EDA6ADFA408D030
:1008A0001950100DF350660FD96EDA6A050E1FD07D
:1008B0001950100DF3506A0FD96EDA6ADFA608D00E
:1008C0001950100DF350660FD96EDA6A030E0FD06F
:1008D0001950100DF3506A0FD96EDA6ADFA808D0EC
:1008E0001950100DF350660FD96EDA6A040EDF6EE0
:1008F0001950100DF3506B0FD96EDA6ADF82195060
:10090000100DF350690FD96EDA6ADF50D8B415D0E4
:100910001950100DF350690FD96EDA6ADF50156E59
:100920001550480FD96EDA6A010EDF6E1950100D9E
:10093000F3506B0FD96EDA6ADF801950100DF35047
:10094000660FD96EDA6A050EDF6424D01950100DD7
:10095000F350660FD96EDA6A090EDF601BD01950AA
:10096000100DF3506A0FD96EDA6A0001DFB012D0B1
:100970001950100DF350670FD96EDA6A000EDE6E53
:10098000000EDD6E1950100DF350660FD96EDA6A45
:10099000020EDF6E1950100DF350660FD96EDA6A31
:1009A000060EDE18D8A427D01950100DF3506C0F86
:1009B000D96EDA6A1950100DF350670FE16EE26AD2
:1009C000E62A000EE522DE50E65CDE50E658D8A0AE
:1009D00012D01950100DF350670FD96EDA6A000E5D
:1009E000DE6E000EDD6E1950100DF350660FD96EDD
:1009F000DA6A070EDF6E1950100DF350660FD96ECC
:100A0000DA6A070EDE18D8A418D01950100DF3506A
:100A10006A0FD96EDA6A0001DFBC0FD01950100DD1
:100A2000F3506A0FD96EDA6ADF8C1950100DF3504B
:100A3000660FD96EDA6A080EDF6E1950100DF3508A
:100A4000660FD96EDA6A080EDE18D8A427D01950BE
:100A5000100DF3506E0FD96EDA6A1950100DF35065
:100A6000670FE16EE26AE62A000EE522DE50E65CE0
:100A7000DE50E658D8A012D01950100DF350670F71
:100A8000D96EDA6A000EDE6E000EDD6E1950100DA2
:100A9000F350660FD96EDA6A070EDF6E1950100D2B
:100AA000F350660FD96EDA6A050EDE18D8A418D096
:100AB0001950100DF3506A0FD96EDA6A0001DFB0D9
:100AC0000FD01950100DF3506A0FD96EDA6ADF8C0F
:100AD0001950100DF350660FD96EDA6A020EDF6EF0
:100AE0001950100DF350660FD96EDA6A030EDE1836
:100AF000D8A49CD01950100DF350670FD96EDA6A44
:100B0000DE2A000EDD221950100DF3506A0FD96E47
:100B1000DA6A0001DFB03DD0000E0C6E480E0D6E9B
:100B2000430E0E6E1950100DF350670FD96EDA6A2E
:100B3000DECF09F0DDCF0AF011EC0FF009C00FF0A5
:100B40000AC010F00BC011F0B9EC0CF0D8A021D005
:100B50001950100DF350670FD96EDA6A000EDE6E71
:100B6000000EDD6E1950100DF3506A0FD96EDA6A5F
:100B70000001DF8C1950100DF3506A0FD96EDA6A3C
:100B8000DF9E1950100DF350660FD96EDA6A020E0F
:100B9000DF6E000E0C6E480E0D6E430E0E6E195079
:100BA000100DF350670FD96EDA6ADECF09F0DDCF92
:100BB0000AF011EC0FF009C00FF00AC010F00BC0E2
:100BC00011F0B9EC0CF0D8B031D01950100DF35031
:100BD000670FD96EDA6A000EDE6E000EDD6E1950F8
:100BE000100DF3506A0FD96EDA6A0001DF8C1950CC
:100BF000100DF3506A0FD96EDA6ADF8E1950100D9E
:100C0000F3506A0FD96EDA6ADFBA08D01950100DA6
:100C1000F350660FD96EDA6A010E07D01950100D25
:100C2000F350660FD96EDA6A080EDF6E1950100D98
:100C3000F350660FD96EDA6A040EDE18D8A48CD091
:100C40001950100DF350670FD96EDA6ADE2A000EC4
:100C5000DD221950100DF3506A0FD96EDA6A0001C7
:100C6000DFB03DD0000E0C6E480E0D6E430E0E6EC2
:100C70001950100DF350670FD96EDA6ADECF09F004
:100C8000DDCF0AF011EC0FF009C00FF00AC010F030
:100C90000BC011F0B9EC0CF0D8A021D01950100DF8
:100CA000F350670FD96EDA6A000EDE6E000EDD6E4D
:100CB0001950100DF3506A0FD96EDA6A0001DF8CFB
:100CC0001950100DF3506A0FD96EDA6ADF9E195071
:100CD000100DF350660FD96EDA6A020EDF6E1950EE
:100CE000100DF350670FD96EDA6ADECF09F0DDCF51
:100CF0000AF011EC0FF009C00CF00AC00DF00BC0A7
:100D00000EF0000E0F6E160E106E440E116EB9EC42
:100D10000CF0D8A021D01950100DF350670FD96EE8
:100D2000DA6A000EDE6E000EDD6E1950100DF35003
:100D30006A0FD96EDA6A0001DF8C1950100DF3507A
:100D40006A0FD96EDA6ADF8E1950100DF350660FF4
:100D5000D96EDA6A010EDF6E1950100DF350660F6E
:100D6000D96EDA6ADE04D8A411D01950100DF350F0
:100D70006A0FD96EDA6A0001DFB008D01950100D81
:100D8000F350660FD96EDA6A020EDF6E1950100D3D
:100D9000F350660FD96EDA6A020EDE18D8A411D0AD
:100DA0001950100DF3506A0FD96EDA6A0001DFBCDA
:100DB00008D01950100DF350660FD96EDA6A090E7B
:100DC000DF6E1950100DF350660FD96EDA6A090EF6
:100DD000DE18D8A42FD01950100DF350690FD96E1A
:100DE000DA6ADF50D8B416D01950100DF350690FDD
:100DF000D96EDA6ADF50156E1550480FD96EDA6A6F
:100E0000000EDF6E1950100DF3506B0FD96EDA6AB9
:100E10000001DF901950100DF350660FD96EDA6A99
:100E2000000EDF6E1950100DF3506B0FD96EDA6A99
:100E30000001DF92192A040E1964EBD4120027C0B6
:100E40000CF028C00DF029C00EF0000E0F6E7A0EC7
:100E5000106E440E116EB9EC0CF0D8A006D0C00E86
:100E6000276E790E286E440E296E27C018F028C010
:100E700019F029C01AF004EC0BF018C03BF019C0AF
:100E80003CF027C015F028C016F029C017F03BC071
:100E900009F03CC00AF075EC0EF009C018F00AC069
:100EA00019F00BC01AF055EC0EF015C035F016C055
:100EB00036F017C037F0000E0C6E000E0D6E000EEF
:100EC0000E6E35C00FF036C010F037C011F0B9EC1F
:100ED0000CF0D8B02AD027C00CF028C00DF029C0E3
:100EE0000EF0000E0F6EC80E106E420E116EB9ECB1
:100EF0000CF0D8B01AD0000E0C6E200E0D6E410E04
:100F00000E6E27C009F028C00AF029C00BF08AEC49
:100F10000AF009C018F00AC019F00BC01AF004EC6E
:100F20000BF018C03BF019C03CF02B0E106E3BC00C
:100F300011F03CC012F0000E146E0A0E136E91EC0C
:100F40000EF00B0EF66E080EF76E0800F5CF78F176
:100F50000B0EF66E080EF76E0800F5CF77F10B0E4C
:100F6000F66E080EF76E0800F5CF76F135C00CF07E
:100F700036C00DF037C00EF0D70E0F6E230E106E78
:100F80003C0E116EB9EC0CF0D8B036D03CBE08D097
:100F90003C5004E1640E3B5CD8A002D0020E0BD0A2
:100FA0003CBE08D03C5004E10A0E3B5CD8A002D005
:100FB000010E01D0000E3A6E000E396E3AC03DF0BF
:100FC0003DBE12003D502B0FD96EDA6ADF50D00FB4
:100FD000386E3850010F2A6E2AC0F6FF080EF76EE1
:100FE000760E3924D96EDA6A010EDA220800F5CFBE
:100FF000DFFF392A3D06E4D727C00CF028C00DF0EA
:1010000029C00EF0000E0F6EC80E106E420E116E4B
:10101000B9EC0CF0D8B040D03CBE08D03C5004E154
:10102000640E3B5CD8A002D0020E12D03CBE08D0A9
:101030003C5004E10A0E3B5CD8A002D0010E08D05F
:10104000010EF66E080EF76E0800F5CF77F1000E70
:101050003A6E000E396E3AC03DF03DBE1AD03D509A
:101060002B0FD96EDA6ADF50D00F386E3850010F6F
:101070002A6E2AC0F6FF080EF76E760E3924D96E56
:10108000DA6A010EDA220800F5CFDFFF392A3D06C1
:10109000E4D70101778F1200000E396E020E3D6E0B
:1010A0003D502B0FD96EDA6ADF50D00F386E3850B2
:1010B000010F2A6E2AC0F6FF080EF76E760E39244D
:1010C000D96EDA6A010EDA220800F5CFDFFF392A7D
:1010D0003D063DBE1200E4D70BC00FF0106A116A46
:1010E0000A340F3601E310800F50146E0EC00FF05B
:1010F000106A116A0D340F3601E310800F50136E21
:101100001450D8B40AD01350145CD8B00DD0145079
:10111000135C0F6E180E0F6407D00CC009F00DC0E1
:101120000AF00EC00BF012001350D8B40AD01450BD
:10113000135CD8B00DD01350145C0F6E180E0F64F2
:1011400007D009C009F00AC00AF00BC00BF012006A
:10115000060E126E0BBE128E0EBE128C0A8EFF0E83
:101160000916FF0E0A16000E0B160D8EFF0E0C163A
:10117000FF0E0D16000E0E161350145CD8B01BD0C7
:10118000D8900C360D360E36130614501318D8B4FA
:101190000DD0120612C00FF0070E0F16D8B406D0ED
:1011A000EFD7D8900B320A320932142A1350141890
:1011B000D8B41FD0F6D71450135CD8B01AD0D8903A
:1011C00009360A360B36140614501318D8B40DD04D
:1011D000120612C00FF0070E0F16D8B406D0EFD7C4
:1011E000D8900E320D320C32132A13501418D8A492
:1011F000F7D712AE0CD0FF0E091AFF0E0A1AFF0E17
:101200000B1A010E0926000E0A22000E0B2212AC48
:101210000CD0FF0E0C1AFF0E0D1AFF0E0E1A010E47
:101220000C26000E0D22000E0E22000E126E09502A
:101230000C260A500D220B500E220EAE0ED0FF0EC1
:101240000C1AFF0E0D1AFF0E0E1A010E0C26000EC0
:101250000D22000E0E22010E126E0CC001F00DC008
:1012600002F00EC003F014C004F012C005F0C8EC88
:101270000BF001C009F002C00AF003C00BF012002D
:10128000040E026E0250100DF350640FD96EDA6A2C
:10129000DF50D8A416D00250100DF350600FD96E55
:1012A000DA6A01D80AD00500FA6EDE50FD6EDE5013
:1012B000FE6EF850FF6EFA5012000009D8A4ACD0B0
:1012C00041D00250100DF350640FD96EDA6ADE047B
:1012D000D8A440D00250100DF350650FD96EDA6AD1
:1012E000DF2A040EDE18D8A497D00250100DF35058
:1012F000650FD96EDA6A000EDF6E0250100DF350E2
:10130000600FD96EDA6A01D80AD00500FA6EDE5095
:10131000FD6EDE50FE6EF850FF6EFA5012000009AE
:10132000D8B408D00250100DF350640FD96EDA6AA9
:10133000DF0672D00250100DF3506A0FD96EDA6AD0
:101340000001DF800250100DF350640FD96EDA6A8D
:10135000DF2A62D00250100DF350640FD96EDA6AA2
:10136000020EDE18D8A416D00250100DF350600FF4
:10137000D96EDA6A01D80AD00500FA6EDE50FD6E29
:10138000DE50FE6EF850FF6EFA501200E806D8B438
:10139000D9D742D00250100DF350640FD96EDA6ADB
:1013A000030EDE18D8A438D00250100DF350650F8C
:1013B000D96EDA6ADF2A040EDE18D8A42DD00250C6
:1013C000100DF350650FD96EDA6A000EDF6E025011
:1013D000100DF350600FD96EDA6A01D80AD00500FB
:1013E000FA6EDE50FD6EDE50FE6EF850FF6EFA5063
:1013F0001200E806D8A496D70250100DF3506A0FD9
:10140000D96EDA6A0001DF900250100DF350640FBC
:10141000D96EDA6A000EDF6E020602BE120032D703
:10142000000E896E000E8B6E000E8C6E000E8D6E9F
:10143000000E8A6E0F0EC16ECF0EB46E000E6D6E72
:10144000080E6F6E870ED56EFF0E5C6ED10E5B6E52
:10145000D768D10ED66EF28A8D809690959095922F
:10146000959495968B929492968281EC0DF06DEC0A
:101470000BF0000E276EC70E286E420E296E1FEC71
:1014800007F0F28E000E3E6E000E3F6E50A002D0AE
:1014900050904F804FA03AD03E2A140E3E18D8A448
:1014A0002CD0000E3E6E82EC0FF0000E32EC0FF0EE
:1014B0000009D8B402D0010E8A1A010E32EC0FF0E6
:1014C0000009D8B402D0020E8A1A020E32EC0FF0D4
:1014D0000009D8B402D0040E8A1A030E32EC0FF0C1
:1014E0000009D8B402D0080E8A1A040E32EC0FF0AC
:1014F0000009D8B402D0100E8A1A3F2A020E3F18F3
:10150000D8A404D0000E3F6EFEEC0EF04F909CEC81
:101510000FF0BCD70BC00FF0106A116A0A340F36F7
:1015200001E310800F50126E1250D8A407D0000EA5
:10153000096E000E0A6E000E0B6E12000EC00FF048
:10154000106A116A0D340F3601E310800F50176EC8
:101550001750D8A407D0000E096E000E0A6E000EB8
:101560000B6E120017507B0F12260BC017F00E5097
:10157000171A800E17160A8E0D8EFF0E0C16FF0E10
:101580000D16000E0E16000E136E000E146E000ED9
:10159000156E070E166E09A006D00C5013260D50BE
:1015A00014220E501522D8900B320A320932D890EC
:1015B0000C360D360E36162EEED7090E166E09A015
:1015C00006D00C5013260D5014220E501522D89020
:1015D0000B320A320932D890153214321332162ED9
:1015E000EED713C001F014C002F015C003F012C012
:1015F00004F017C005F0C8EC0BF001C009F002C000
:101600000AF003C00BF012001AC01CF01D6A1E6A1B
:1016100019341C3601E31D801C50266E2650D8A4B8
:1016200009D0000E186E000E196E000E1A6E000E14
:101630001B6E1200170E1C6E18C01DF019C01EF094
:101640001AC01FF01C28206E04D0D8901F321E3202
:101650001D32202EFAD71D50216E198EFF0E18163E
:10166000FF0E1916000E1A161850226E1950236E0E
:101670001A50246E256A8E0E265E26AE0DD0265098
:10168000800A8F0FD8A0CDD7D890253224322332AC
:101690002232263EF9D70DD0170E266407D0C1D7C7
:1016A000D890223623362436253626062650D8A44E
:1016B000F7D72150D8B408D0251E241E231E226C33
:1016C000000E23222422252222C018F023C019F064
:1016D00024C01AF025C01BF012009488948A948CC0
:1016E000948E9588220E0001606F1F0E616F180E98
:1016F000706F1F0E716F0E0E806F1F0E816F320E96
:10170000906F1F0E916F2A0EA06F1F0EA16F000E1B
:10171000016E0150100DF3506A0FD96EDA6ADF8244
:101720000150100DF3506A0FD96EDA6ADF94015040
:10173000100DF3506A0FD96EDA6ADF960150100D62
:10174000F3506A0FD96EDA6ADF9A0150100DF35028
:10175000690FD96EDA6A000EDF6E0150100DF3507A
:101760006C0FD96EDA6A640EDE6E000EDD6E01500B
:10177000100DF3506E0FD96EDA6A280EDE6E000E71
:10178000DD6E012A0150800A7B0FD8B01200C1D74C
:101790000450D8B405D0015002100310D8A40CD0C6
:1017A000000E016E000E026E000E036E1200042A7F
:1017B000D890033202320132000E0114066E000E80
:1017C0000214076EFE0E0314086E06500710081070
:1017D000D8B40CD0ECD7042A010E0126000E022248
:1017E000000E0322D890033202320132000E01149F
:1017F000066E000E0214076EFF0E0314086E0650EC
:1018000007100810D8B406D0E6D70406D8900136E1
:101810000236033602BE03D0020E0460F6D704A0DF
:10182000029ED8900432045003120550D8A4038EAF
:1018300001C001F002C002F003C003F01200076E05
:10184000000E086E07C001F0010E026E000E036E5E
:10185000012A03D0D89002360336012EFBD708C0E8
:1018600004F0010E056E000E066E042A03D0D89017
:1018700005360636042EFBD7025005160350061611
:1018800005500610D8B412D00850040DF350B20F12
:10189000D96EDA6A01D81CD00500FA6EDE50FD6EF2
:1018A000DE50FE6EF850FF6EFA5012000850040D24
:1018B000F350B00FD96EDA6A01D80AD00500FA6E7B
:1018C000DE50FD6EDE50FE6EF850FF6EFA501200D4
:1018D000082A0850800A7B0FD8B01200B3D709C07D
:1018E0000DF00AC00EF00DC001F00EC002F00BC0EA
:1018F00003F00CC004F058EC0DF001C00DF002C074
:101900000EF0082A0D500E10D8A4EDD70850D96E4D
:10191000DA6A000EDF6E080609C001F00AC002F0A4
:101920000BC003F00CC004F014EC0EF001500F6E6D
:1019300009C001F00AC002F00BC003F00CC004F0B3
:1019400058EC0DF001C009F002C00AF0090E0F6456
:1019500002D0070E0F26300E0F260850D96EDA6A15
:101960000FC0DFFF080609500A10D8A4D5D7082AEF
:1019700012000EAE0FD0000E126E000E136E800E0F
:10198000146E0C50125C0C6E0D5013580D6E0E50F0
:1019900014580E6E11AE0FD0000E126E000E136EA4
:1019A000800E146E0F50125C0F6E10501358106E94
:1019B00011501458116E000E0C1A000E0D1A800EE4
:1019C0000E1A000E0F1A000E101A800E111A0F5068
:1019D0000C5C10500D5811500E58D8B002D0D89051
:1019E0001200D8801200800EF66E1E0EF76E000EEA
:1019F000F86E00EEB0F010EE14F00900F5CFEEFF37
:101A0000E550E150FAE1C80EF66E1E0EF76E000EBC
:101A1000F86E00EE51F010EE0AF00900F5CFEEFF7F
:101A2000E550E150FAE101EE00F07B0EEE6AE806C7
:101A3000FDE100EE60F0500EEE6AE806FDE100EE1A
:101A400040F0110EEE6AE806FDE15D905D92000E39
:101A5000F86E000110EF0AF0000E036E44504510BE
:101A6000D8B424D04650F3EC0DF046504226000E78
:101A700046BEFF0E432284CF02F0D890023202B05D
:101A800006D0000E456E000E446E010E036E4450EB
:101A900042180CE145504318D8A408D0000E456EFA
:101AA000000E446E010E036E010175810350120099
:101AB000000E066E000E056E03500410D8B41CD044
:101AC000010E076E04D0D89003360436072A04AE00
:101AD000FAD7D890053606360350015C04500258F8
:101AE000D8A005D00350015E0450025A0580D8905A
:101AF00004320332072EEDD705C001F006C002F014
:101B00001200030EF66E080EF76E0800F5CF77F19F
:101B1000010EF66E080EF76E0800F5CF76F10C0E8A
:101B2000F66E080EF76E0800F5CF78F10C0EF66E23
:101B3000080EF76E0800F5CF77F10C0EF66E080E62
:101B4000F76E0800F5CF76F1000E936E35EC0EF0CF
:101B50001200036E0350100DF350690FD96EDA6A4C
:101B6000DF50D8B41AD00350100DF350690FD96E5E
:101B7000DA6ADF50016E0150480FD96EDA6ADE046E
:101B8000D8A40BD00350100DF3506B0FD96EDA6A46
:101B90000001DFB002D0000E1200010E1200000E94
:101BA000026E44504510D8B41CD04650F3EC0DF0F2
:101BB00046504226000E46BEFF0E432246504026A7
:101BC000000E46BEFF0E4122445042180AE1455025
:101BD0004318D8A406D0000E456E000E446E010EC8
:101BE000026E02501200016E4E50020DF350510F62
:101BF000D96EDA6A01D80AD00500FA6EDE50FD6EA1
:101C0000DE50FE6EF850FF6EFA50120001504E2664
:101C10004E50800A7C0FD8A002D0000E4E6E4EAE01
:101C20001200030E4E6E120003500410D8B418D0E8
:101C3000010E056E04D0D89003360436052A04AE92
:101C4000FAD70350015C04500258D8A004D00350C6
:101C5000015E0450025AD89004320332052EF1D7A7
:101C600001C001F002C002F01200000E016E01502E
:101C7000040DF350B00FD96EDA6A01D80AD005000E
:101C8000FA6EDE50FD6EDE50FE6EF850FF6EFA50BA
:101C90001200012A0150800A7B0FD8A0E8D7929841
:101CA00092969294929292901200185019101A10D3
:101CB000D8B406D0000E181A000E191A800E1A1A7F
:101CC00015C009F016C00AF017C00BF018C00CF0D0
:101CD00019C00DF01AC00EF06CEC08F009C015F038
:101CE0000AC016F00BC017F01200000E0C6E0AAE00
:101CF00006D0096C0A1ED8B00A2A010E0C6E09C063
:101D000001F00AC002F0036A8E0E046E0CC005F0EA
:101D1000C8EC0BF001C009F002C00AF003C00BF0E0
:101D2000120012AE0AD01050D96EDA6A2D0EDF6E94
:101D3000102A116C121ED8B0122A10C008F011C05F
:101D400009F012C00AF013C00BF014C00CF06FECD5
:101D50000CF0120007500810D8B4120007C044F06D
:101D600008C045F045BE05D0000E0A6E010E096E92
:101D700002D009680A6809C046F0000E436E000EE2
:101D8000426E12000B6E0B50016E026A01BE02061B
:101D9000000E046EC80E036EEBEC0EF04050015CBA
:101DA000076E41500258086EAAEC0EF01200020EA7
:101DB0004718D8A403D02CEC0DF01200030E4718DE
:101DC000D8A403D0CFEC0DF012004704D8A4120021
:101DD000000E476E120001500302F3CF05F0F4CF5E
:101DE00006F001500402F350062602500302F3509D
:101DF000062605C001F006C002F01200760E4D2442
:101E0000D96EDA6A010EDA22DF508A6E4D501FEC6D
:101E10000CF04D2A050E4D18D8A41200000E4D6E80
:101E2000120009C001F00AC002F0036A8E0E046EAF
:101E3000000E056EC8EC0BF001C009F002C00AF0FC
:101E400003C00BF01200000E016E0150100DF35094
:101E50006A0FD96EDA6A0001DF9C012A040E016460
:101E6000F4D71200016E0150100DF3506A0FD96EB5
:101E7000DA6A0001DFAC02D0010E1200000E12007F
:101E80005E1F5A1F561F521F4E1F4A1F461F421FDA
:101E90003E1F621F0600F2A405D05080F294D7685E
:101EA000D10ED66E5D921100F10E086EDC0E076E3B
:101EB000AAEC0EF0020E476E1200000E456E000EE8
:101EC000446E69EC0FF01200F01EE61EDC1EFA1ED6
:101ED000D21E8C908C928C948C9612008C908C825A
:101EE0008C948C9612008C908C928C848C96120020
:101EF0008C908C928C948C8612008C808C928C941A
:101F00008C96120040EC09F007EC04F012008244B9
:101F1000E846030B010B12008238E842070B010B65
:101F2000120082380F0B010B120083380F0B010BCC
:101F300012008244010B120023EC0FF01200898082
:101F400012008992120089821200899412008984F9
:101F500012008996120089861200899812008988D9
:061F60001200899012003E
:020000040020DA
:08000000FFFFFFFFFFFFFFFF00
:020000040030CA
:0E000000240E381EFF8181FF0FC00FE00F405D
:00000001FF
