:0400000007EF00F016
:0A000800508286ED0EF085EF0DF03A
:10080000003F065B8F666D7C077F67004000000E2F
:10081000236E2350100DF350660FD96EDA6ADF5045
:10082000D8A48BD023503BEC0EF00009D8B485D06F
:100830002350100DF3506A0FD96EDA6A0001DFA061
:100840007CD02350100DF3506A0FD96EDA6ADFA204
:100850001FD02350100DF3506A0FD96EDA6ADF8C67
:100860002350100DF3506A0FD96EDA6ADFAA08D050
:100870002350100DF350660FD96EDA6A060E37D08A
:100880002350100DF350660FD96EDA6A010E2FD087
:100890002350100DF3506A0FD96EDA6ADFA408D026
:1008A0002350100DF350660FD96EDA6A050E1FD073
:1008B0002350100DF3506A0FD96EDA6ADFA608D004
:1008C0002350100DF350660FD96EDA6A030E0FD065
:1008D0002350100DF3506A0FD96EDA6ADFA808D0E2
:1008E0002350100DF350660FD96EDA6A040EDF6ED6
:1008F0002350100DF3506B0FD96EDA6ADF8223504C
:10090000100DF350690FD96EDA6ADF50D8B415D0E4
:100910002350100DF350690FD96EDA6ADF501F6E45
:100920001F50B00FD96EDA6A010EDF6E2350100D22
:10093000F3506B0FD96EDA6ADF802350100DF3503D
:10094000660FD96EDA6A050EDF6424D02350100DCD
:10095000F350660FD96EDA6A090EDF601BD02350A0
:10096000100DF3506A0FD96EDA6A0001DFB012D0B1
:100970002350100DF350670FD96EDA6A000EDE6E49
:10098000000EDD6E2350100DF350660FD96EDA6A3B
:10099000020EDF6E2350100DF350660FD96EDA6A27
:1009A000060EDE18D8A427D02350100DF3506C0F7C
:1009B000D96EDA6A2350100DF350670FE16EE26AC8
:1009C000E62A000EE522DE50E65CDE50E658D8A0AE
:1009D00012D02350100DF350670FD96EDA6A000E53
:1009E000DE6E000EDD6E2350100DF350660FD96ED3
:1009F000DA6A070EDF6E2350100DF350660FD96EC2
:100A0000DA6A070EDE18D8A418D02350100DF35060
:100A10006A0FD96EDA6A0001DFBC0FD02350100DC7
:100A2000F3506A0FD96EDA6ADF8C2350100DF35041
:100A3000660FD96EDA6A080EDF6E2350100DF35080
:100A4000660FD96EDA6A080EDE18D8A427D02350B4
:100A5000100DF3506E0FD96EDA6A2350100DF3505B
:100A6000670FE16EE26AE62A000EE522DE50E65CE0
:100A7000DE50E658D8A012D02350100DF350670F67
:100A8000D96EDA6A000EDE6E000EDD6E2350100D98
:100A9000F350660FD96EDA6A070EDF6E2350100D21
:100AA000F350660FD96EDA6A050EDE18D8A418D096
:100AB0002350100DF3506A0FD96EDA6A0001DFB0CF
:100AC0000FD02350100DF3506A0FD96EDA6ADF8C05
:100AD0002350100DF350660FD96EDA6A020EDF6EE6
:100AE0002350100DF350660FD96EDA6A030EDE182C
:100AF000D8A49CD02350100DF350670FD96EDA6A3A
:100B0000DE2A000EDD222350100DF3506A0FD96E3D
:100B1000DA6A0001DFB03DD0000E166E480E176E87
:100B2000430E186E2350100DF350670FD96EDA6A1A
:100B3000DECF13F0DDCF14F065EC0FF013C019F029
:100B400014C01AF015C01BF018EC0DF0D8A021D07D
:100B50002350100DF350670FD96EDA6A000EDE6E67
:100B6000000EDD6E2350100DF3506A0FD96EDA6A55
:100B70000001DF8C2350100DF3506A0FD96EDA6A32
:100B8000DF9E2350100DF350660FD96EDA6A020E05
:100B9000DF6E000E166E480E176E430E186E235051
:100BA000100DF350670FD96EDA6ADECF13F0DDCF88
:100BB00014F065EC0FF013C019F014C01AF015C052
:100BC0001BF018EC0DF0D8B031D02350100DF350BD
:100BD000670FD96EDA6A000EDE6E000EDD6E2350EE
:100BE000100DF3506A0FD96EDA6A0001DF8C2350C2
:100BF000100DF3506A0FD96EDA6ADF8E2350100D94
:100C0000F3506A0FD96EDA6ADFBA08D02350100D9C
:100C1000F350660FD96EDA6A010E07D02350100D1B
:100C2000F350660FD96EDA6A080EDF6E2350100D8E
:100C3000F350660FD96EDA6A040EDE18D8A48CD091
:100C40002350100DF350670FD96EDA6ADE2A000EBA
:100C5000DD222350100DF3506A0FD96EDA6A0001BD
:100C6000DFB03DD0000E166E480E176E430E186EA4
:100C70002350100DF350670FD96EDA6ADECF13F0F0
:100C8000DDCF14F065EC0FF013C019F014C01AF0AA
:100C900015C01BF018EC0DF0D8A021D02350100D7A
:100CA000F350670FD96EDA6A000EDE6E000EDD6E4D
:100CB0002350100DF3506A0FD96EDA6A0001DF8CF1
:100CC0002350100DF3506A0FD96EDA6ADF9E23505D
:100CD000100DF350660FD96EDA6A020EDF6E2350E4
:100CE000100DF350670FD96EDA6ADECF13F0DDCF47
:100CF00014F065EC0FF013C016F014C017F015C017
:100D000018F0000E196E160E1A6E440E1B6E18ECBB
:100D10000DF0D8A021D02350100DF350670FD96EDD
:100D2000DA6A000EDE6E000EDD6E2350100DF350F9
:100D30006A0FD96EDA6A0001DF8C2350100DF35070
:100D40006A0FD96EDA6ADF8E2350100DF350660FEA
:100D5000D96EDA6A010EDF6E2350100DF350660F64
:100D6000D96EDA6ADE04D8A411D02350100DF350E6
:100D70006A0FD96EDA6A0001DFB008D02350100D77
:100D8000F350660FD96EDA6A020EDF6E2350100D33
:100D9000F350660FD96EDA6A020EDE18D8A411D0AD
:100DA0002350100DF3506A0FD96EDA6A0001DFBCD0
:100DB00008D02350100DF350660FD96EDA6A090E71
:100DC000DF6E2350100DF350660FD96EDA6A090EEC
:100DD000DE18D8A42FD02350100DF350690FD96E10
:100DE000DA6ADF50D8B416D02350100DF350690FD3
:100DF000D96EDA6ADF501F6E1F50B00FD96EDA6AF3
:100E0000000EDF6E2350100DF3506B0FD96EDA6AAF
:100E10000001DF902350100DF350660FD96EDA6A8F
:100E2000000EDF6E2350100DF3506B0FD96EDA6A8F
:100E30000001DF92232A040E2364EBD41200000E7B
:100E40000001F36F800EF46F3F0EF56F33C0F6F0C4
:100E500014D0F3C013F0F4C014F0F5C015F0000E78
:100E6000166E200E176E410E186E09EC0AF013C0B4
:100E7000F3F014C0F4F015C0F5F00001F607F62900
:100E8000D8A4E7D734C016F035C017F036C018F034
:100E9000F3C019F0F4C01AF0F5C01BF018EC0DF017
:100EA000D8A014D0F3C013F0F4C014F0F5C015F0BE
:100EB000000E166E800E176EBF0E186E65EC08F0F1
:100EC00013C034F014C035F015C036F0000E000128
:100ED000F66F13D00B0EF66E080EF76EF6C037F0F5
:100EE000386A37BE380637503124D96E3850322030
:100EF000DA6E0800F5CFDFFFF62BF651800A376E69
:100F00003350800A375CD8A0E5D7000EF36F800E0F
:100F1000F46F3F0EF56F000EF66F95D034C016F0EB
:100F200035C017F036C018F0F3C019F0F4C01AF04D
:100F3000F5C01BF018EC0DF0D8B06FD00001F651E1
:100F4000800A376E3350800A375CD8B055D0000E17
:100F5000166E200E176E410E186E34C013F035C099
:100F600014F036C015F009EC0AF013C022F014C0DA
:100F700023F015C024F083EC0AF022C0EFF023C068
:100F8000F0F00001F651D8A41AD0010EF66E080E4A
:100F9000F76E33C037F0386A37BE380631C039F0E3
:100FA00032C03AF03750392638503A22FE0E3924F2
:100FB000D96EFF0E3A20DA6E0800F5CFDFFF33C09E
:100FC00037F0386A37BE380631C039F032C03AF0EF
:100FD0003750392638503A22FE0E3924D96EFF0E8A
:100FE0003A20DA6E000EDB8EF629F16FF651335C93
:100FF000376E3704F26F2FD034C022F035C023F0A3
:1010000036C024F083EC0AF022C0EFF023C0F0F0E9
:10101000F6C0F1F0000E0001F26FF3C013F0F4C05F
:1010200014F0F5C015F0000E166E200E176E410E6E
:10103000186E09EC0AF013C0F3F014C0F4F015C0F8
:10104000F5F00001F62B3350800A376EF651800A16
:10105000375CD8B063D7E50E1A6EEFC01BF0F0C056
:101060001CF0000E1E6E0A0E1D6E4CEC0FF0000EF2
:101070000001F66F21D0F651E50FD96EDA6ADF5024
:10108000376ED00E37263750010F386E38C0F6FF56
:10109000080EF76E0800F5CF39F0F2C03AF03B6A5F
:1010A0003ABE3B063A503124D96E3B503220DA6EBC
:1010B0003950DF12F22BF62BF651800A376EF151C0
:1010C000800A375CD8B01200D6D715C019F01A6A5A
:1010D0001B6A1434193601E31A8019501E6E18C0A9
:1010E00019F01A6A1B6A1734193601E31A8019506D
:1010F0001D6E1E50D8B40AD01D501E5CD8B00DD045
:101100001E501D5C196E180E196407D016C013F01E
:1011100017C014F018C015F012001D50D8B40AD032
:101120001E501D5CD8B00DD01D501E5C196E180EDF
:10113000196407D013C013F014C014F015C015F0D3
:101140001200060E1C6E15BE1C8E18BE1C8C148E52
:10115000FF0E1316FF0E1416000E1516178EFF0E37
:101160001616FF0E1716000E18161D501E5CD8B06E
:101170001BD0D8901636173618361D061E501D186F
:10118000D8B40DD01C061CC019F0070E1916D8B41F
:1011900006D0EFD7D8901532143213321E2A1D50C4
:1011A0001E18D8B41FD0F6D71E501D5CD8B01AD068
:1011B000D8901336143615361E061E501D18D8B496
:1011C0000DD01C061CC019F0070E1916D8B406D095
:1011D000EFD7D8901832173216321D2A1D501E181C
:1011E000D8A4F7D71CAE0CD0FF0E131AFF0E141A9A
:1011F000FF0E151A010E1326000E1422000E1522E2
:101200001CAC0CD0FF0E161AFF0E171AFF0E181A80
:10121000010E1626000E1722000E1822000E1C6E5C
:1012200013501626145017221550182218AE0ED03F
:10123000FF0E161AFF0E171AFF0E181A010E1626A9
:10124000000E1722000E1822010E1C6E16C00BF0A5
:1012500017C00CF018C00DF01EC00EF01CC00FF02F
:10126000AAEC0BF00BC013F00CC014F00DC015F07D
:101270001200040E0C6E0C50100DF350640FD96E5A
:10128000DA6ADF50D8A416D00C50100DF350600F5E
:10129000D96EDA6A01D80AD00500FA6EDE50FD6E0A
:1012A000DE50FE6EF850FF6EFA5012000009D8A40E
:1012B000ACD041D00C50100DF350640FD96EDA6AE7
:1012C000DE04D8A440D00C50100DF350650FD96E39
:1012D000DA6ADF2A040EDE18D8A497D00C50100D5D
:1012E000F350650FD96EDA6A000EDF6E0C50100DE8
:1012F000F350600FD96EDA6A01D80AD00500FA6E91
:10130000DE50FD6EDE50FE6EF850FF6EFA50120099
:101310000009D8B408D00C50100DF350640FD96EEA
:10132000DA6ADF0672D00C50100DF3506A0FD96ED6
:10133000DA6A0001DF800C50100DF350640FD96E93
:10134000DA6ADF2A62D00C50100DF350640FD96EA8
:10135000DA6A020EDE18D8A416D00C50100DF35025
:10136000600FD96EDA6A01D80AD00500FA6EDE5035
:10137000FD6EDE50FE6EF850FF6EFA501200E80669
:10138000D8B4D9D742D00C50100DF350640FD96E99
:10139000DA6A030EDE18D8A438D00C50100DF350C2
:1013A000650FD96EDA6ADF2A040EDE18D8A42DD0B4
:1013B0000C50100DF350650FD96EDA6A000EDF6E17
:1013C0000C50100DF350600FD96EDA6A01D80AD0B4
:1013D0000500FA6EDE50FD6EDE50FE6EF850FF6EB8
:1013E000FA501200E806D8A496D70C50100DF3500E
:1013F0006A0FD96EDA6A0001DF900C50100DF350BD
:10140000640FD96EDA6A000EDF6E0C060CBE120095
:1014100032D715C019F01A6A1B6A1434193601E361
:101420001A8019501C6E1C50D8A407D0000E136EE1
:10143000000E146E000E156E120018C019F01A6A14
:101440001B6A1734193601E31A801950216E215096
:10145000D8A407D0000E136E000E146E000E156E89
:10146000120021507B0F1C2615C021F01850211AA4
:10147000800E2116148E178EFF0E1616FF0E1716ED
:10148000000E1816000E1D6E000E1E6E000E1F6E52
:10149000070E206E13A006D016501D2617501E22D0
:1014A00018501F22D890153214321332D8901636A5
:1014B00017361836202EEED7090E206E13A006D050
:1014C00016501D2617501E2218501F22D890153274
:1014D00014321332D8901F321E321D32202EEED716
:1014E0001DC00BF01EC00CF01FC00DF01CC00EF094
:1014F00021C00FF0AAEC0BF00BC013F00CC014F0DD
:101500000DC015F0120024C026F0276A286A233483
:10151000263601E327802650306E3050D8A409D0FB
:10152000000E226E000E236E000E246E000E256E3D
:101530001200170E266E22C027F023C028F024C008
:1015400029F026282A6E04D0D89029322832273252
:101550002A2EFAD727502B6E238EFF0E2216FF0E4F
:101560002316000E241622502C6E23502D6E24506C
:101570002E6E2F6A8E0E305E30AE0DD03050800A47
:101580008F0FD8A0CDD7D8902F322E322D322C32BB
:10159000303EF9D70DD0170E306407D0C1D7D890A0
:1015A0002C362D362E362F3630063050D8A4F7D7AD
:1015B0002B50D8B408D02F1E2E1E2D1E2C6C000EC2
:1015C0002D222E222F222CC022F02DC023F02EC03F
:1015D00024F02FC025F01200000E3F6E000E406E6A
:1015E000000E896E000E8B6E000E8C6E000E8D6EDE
:1015F000000E8A6E0F0EC16ECF0EB46E000E6D6EB1
:10160000080E6F6E870ED56ED768D10ED66EF28A31
:101610008D80969095909592959495968B929492B4
:101620009682948096844FEC0BF0B7EC0DF030EC82
:101630000FF0000E3C6EA00E3D6E410E3E6E95EC1E
:101640000FF0000E3C6E9C0E3D6E410E3E6E86EC21
:101650000FF0F28E4EA002D04E904D804DA017D0CC
:101660003F2A140E3F18D8A409D0000E3F6E4CB08C
:1016700005D0B2EC0FF0010E0001C56F402A030E39
:101680004018D8A404D0000E406EDCEC0CF052ECF4
:101690000DF09BEC0CF04D90E5EC0FF0DBD794884F
:1016A000948A948C948E9588B40E0001606F1F0EFE
:1016B000616F780E706F1F0E716F6E0E806F1F0E50
:1016C000816FC40E906F1F0E916FBC0EA06F1F0E26
:1016D000A16F000E0B6E0B50100DF3506A0FD96EF8
:1016E000DA6ADF820B50100DF3506A0FD96EDA6A96
:1016F000DF940B50100DF3506A0FD96EDA6ADF9643
:101700000B50100DF3506A0FD96EDA6ADF9A0B5046
:10171000100DF350690FD96EDA6A000EDF6E0B50B0
:10172000100DF3506C0FD96EDA6A640EDE6E000E87
:10173000DD6E0B50100DF3506E0FD96EDA6A280E65
:10174000DE6E000EDD6E0B2A0B50800A7B0FD8B0C8
:101750001200C1D70E50D8B405D00B500C100D108C
:10176000D8A40CD0000E0B6E000E0C6E000E0D6E89
:1017700012000E2AD8900D320C320B32000E0B14D0
:10178000106E000E0C14116EFE0E0D14126E105021
:1017900011101210D8B40CD0ECD70E2A010E0B2663
:1017A000000E0C22000E0D22D8900D320C320B329E
:1017B000000E0B14106E000E0C14116EFF0E0D14A3
:1017C000126E105011101210D8B406D0E6D70E06C3
:1017D000D8900B360C360D360CBE03D0020E0E60C0
:1017E000F6D70EA00C9ED8900E320E500D120F5050
:1017F000D8A40D8E0BC00BF00CC00CF00DC00DF07A
:101800001200116E000E126E11C00BF0010E0C6E64
:10181000000E0D6E0B2A03D0D8900C360D360B2E11
:10182000FBD712C00EF0010E0F6E000E106E0E2AC6
:1018300003D0D8900F3610360E2EFBD70C500F1653
:101840000D5010160F501010D8B412D01250040DB5
:10185000F350C90FD96EDA6A01D81CD00500FA6EB0
:10186000DE50FD6EDE50FE6EF850FF6EFA50120034
:101870001250040DF350C70FD96EDA6A01D80AD09E
:101880000500FA6EDE50FD6EDE50FE6EF850FF6E03
:10189000FA501200122A1250800A7B0FD8B01200A0
:1018A000B3D713C017F014C018F017C00BF018C04E
:1018B0000CF015C00DF016C00EF012EC0EF00BC0BF
:1018C00017F00CC018F0122A17501810D8A4EDD732
:1018D0001250D96EDA6A000EDF6E120613C00BF0DA
:1018E00014C00CF015C00DF016C00EF0CEEC0EF0CA
:1018F0000B50196E13C00BF014C00CF015C00DF096
:1019000016C00EF012EC0EF00BC013F00CC014F069
:10191000090E196402D0070E1926300E192612502E
:10192000D96EDA6A19C0DFFF120613501410D8A45A
:10193000D5D7122A12004B50D8A410D0030E481845
:10194000D8B404D0020E4818D8A402D04B2A1200F2
:101950004804D8A41200020E4B6E12004B04D8A407
:1019600013D045504610D8A41200020E4818D8A42F
:1019700005D001013AA103D03A9101D048504B2A39
:10198000000E0001BC6F1200020E4B18D8A40AD042
:101990004DA01200BC2B0A0EBC19D8A41200010ED7
:1019A000486ED4D7030E4B18D8A412004850D8A4C0
:1019B0001200000E4B6E12004904156E15AE02D0D7
:1019C000040E156E1550040DF350C70FD96EDA6A68
:1019D00001D80AD00500FA6EDE50FD6EDE50FE6EB4
:1019E000F850FF6EFA5012004950800A7E0FD8B0AE
:1019F00007D03E0E4924D96EDA6A010EDA220BD0E6
:101A000049C013F0146A13BE1406390E1324D96E9C
:101A1000010E1420DA6EDF508A6E495001EC0CF092
:101A2000492A050E4918D8A41200000E496E12006A
:101A300018AE0FD0000E1C6E000E1D6E800E1E6EB6
:101A400016501C5C166E17501D58176E18501E58F5
:101A5000186E1BAE0FD0000E1C6E000E1D6E800E99
:101A60001E6E19501C5C196E1A501D581A6E1B50B0
:101A70001E581B6E000E161A000E171A800E181A2A
:101A8000000E191A000E1A1A800E1B1A1950165C35
:101A90001A5017581B501858D8B002D0D8901200BE
:101AA000D88012000001B551B611D8B41200B75158
:101AB000D8A405D08D90000E4A6EB72B1200B70542
:101AC000D8A40CD04DA012004A2A320E4A18D8A42D
:101AD0001200000E4A6EB72B8D801200020EB7194D
:101AE000D8A412004DA012004A2A320E4A18D8A4D7
:101AF0001200000E4A6E000EB76FB507D8A0B607E9
:101B0000B551B611D8B412001200EE0EF66E1E0ECC
:101B1000F76E000EF86E00EEC7F010EE1EF0090032
:101B2000F5CFEEFFE550E150FAE1F80EF66E1F0E2C
:101B3000F76E000EF86E0900F5CF4FF001EE00F0E1
:101B4000400EEE6AE806FDE100EE60F0670EEE6A18
:101B5000E806FDE100EE41F00E0EEE6AE806FDE15A
:101B600050905092000EF86E0001ECEF0AF0000E5B
:101B70000C6E0B0EF66E080EF76E3E0E0C24D96E30
:101B8000DA6A010EDA220800F5CFDFFF0C2A0C50CA
:101B9000800A7E0FD8A0EDD7000E0C6E0B0EF66EED
:101BA000080EF76E3B0E0C24D96EDA6A010EDA22AB
:101BB0000800F5CFDFFF0C2A0C50800A7D0FD8A05B
:101BC000EDD7000E936E10EC0FF01200000E036EB6
:101BD00045504610D8B424D04750EFEC0EF0475093
:101BE0004326000E47BEFF0E442284CF02F0D89059
:101BF000023202B006D0000E466E000E456E010E97
:101C0000036E455043180CE146504418D8A408D040
:101C1000000E466E000E456E010E036E01013A8104
:101C200003501200000E116E000E106E0D500E10BB
:101C3000D8B41CD0010E0F6E04D0D8900D360E36DD
:101C40000F2A0EAEFAD7D890103611360D500B5C15
:101C50000E500C58D8A005D00D500B5E0E500C5AEB
:101C60001080D8900E320D320F2EEDD710C00BF031
:101C700011C00CF012000D6E0D50100DF350690FD5
:101C8000D96EDA6ADF50D8B41AD00D50100DF35067
:101C9000690FD96EDA6ADF500B6E0B50B00FD96E38
:101CA000DA6ADE04D8A40BD00D50100DF3506B0F80
:101CB000D96EDA6A0001DFB002D0000E1200010E08
:101CC0001200020E4818D8A403D0E6EC0DF0120062
:101CD000030E4818D8A403D0AAEC0EF01200480452
:101CE000D8A41200000E466E000E456E01D80BD02F
:101CF00005000001FA6EE351FD6EE451FE6EF850EE
:101D0000FF6EFA501200000E486E12000600FACF65
:101D100005F0FBCF06F0D9CF07F0DACF08F0F3CF0C
:101D200009F0F4CF0AF0F2A407D04E8061EC0EF077
:101D3000F294D768D10ED66E0AC0F4FF09C0F3FF43
:101D400008C0DAFF07C0D9FF06C0FBFF05C0FAFFD5
:101D500050921100000E026E45504610D8B41CD0AF
:101D60004750EFEC0EF047504326000E47BEFF0EE3
:101D7000442247504126000E47BEFF0E42224550E6
:101D800043180AE146504418D8A406D0000E466E07
:101D9000000E456E010E026E025012000D500E1024
:101DA000D8B418D0010E0F6E04D0D8900D360E3670
:101DB0000F2A0EAEFAD70D500B5C0E500C58D8A05F
:101DC00004D00D500B5E0E500C5AD8900E320D32CE
:101DD0000F2EF1D70BC00BF00CC00CF01200016EEF
:101DE0004F5001244F6E4F50800A7C0FD8A002D074
:101DF000000E4F6E4FAE02D0030E4F6E4F50020DCD
:101E0000F350DB0FD96EDA6A01D812000500FA6EC2
:101E1000DE50FD6EDE50FE6EF850FF6EFA5012007E
:101E2000000E0B6E0B50040DF350C70FD96EDA6A1B
:101E300001D80AD00500FA6EDE50FD6EDE50FE6E4F
:101E4000F850FF6EFA5012000B2A0B50800A7B0FDD
:101E5000D8A0E8D79290929292949296929812007B
:101E6000000E0101036F3C0E026F000E0B6E0B5053
:101E7000060D060EF324D96E010EF420DA6E000E64
:101E8000DE6E400EDE6E410EDE6E0B2A0B50800AB7
:101E9000780FD8B01200EBD71CAE0AD01A50D96E0A
:101EA000DA6A2D0EDF6E1A2A1B6C1C1ED8B01C2A93
:101EB0001AC012F01BC013F01CC014F01DC015F0A6
:101EC0001EC016F051EC0CF0120013C00BF014C041
:101ED0000CF00D6A8E0E0E6E000E0F6EAAEC0BF05B
:101EE0000BC013F00CC014F00DC015F01200F01F61
:101EF000EC1FE81FE41FE01FDC1FD81FD41FD01FFA
:101F0000F41F961F8C1F821FA01FAA1F3B0E316E4D
:101F1000010E326E030E336E3CC034F03DC035F01E
:101F20003EC036F01FEC07F012003E0E316E010E7F
:101F3000326E020E336E3CC034F03DC035F03EC010
:101F400036F01FEC07F01200000E0B6E0B50100D58
:101F5000F3506A0FD96EDA6ADF9C0B2A040E0B6409
:101F6000F5D7120039EC09F007EC04F012008244B6
:101F7000E846030B010B12008238E842070B010B05
:101F800012008C908C828C948C9612008C908C9287
:101F90008C848C9612008C908C928C948C8612007F
:101FA0008C808C928C948C9612008C908C928C9459
:101FB0008C96120082380F0B010B120083380F0B26
:101FC000010B12008244010B1200A4EC0FF012006E
:101FD000898812008996120089861200899412005D
:101FE000898412008992120089821200899012005D
:091FF0008980120089981200FF9B
:020000040020DA
:08000000FFFFFFFFFFFFFFFF00
:020000040030CA
:0E000000240E381EFF8181FF0FC00FE00F405D
:00000001FF
