:040000000AEF3FF0D4
:107D10008C808C928C948C9612008C908C928C948B
:107D20008C8612008C908C928C848C9612008C9095
:107D30008C828C948C9612008C908C928C948C9665
:107D400012001A7D247D2E7D107D387D000E136E6D
:107D5000000E126E9CEC3EF01200F10E086EDC0E6E
:107D6000076EF2EC3EF0020E156E12000150030297
:107D7000F3CF05F0F4CF06F001500402F3500626CD
:107D800002500302F350062605C001F006C002F0BF
:107D90001200020E1518D8A403D065EC3FF01200B3
:107DA000030E1518D8A403D025EC3FF012001504DB
:107DB000D8A41200000E156E12000B6E0B50016E4F
:107DC000026A01BE0206000E046EC80E036EB6EC17
:107DD0003EF00E50015C076E0F500258086EF2EC38
:107DE0003EF0120007500810D8B4120007C012F07D
:107DF00008C013F013BE05D0000E0A6E010E096E06
:107E000002D009680A6809C014F0000E116E000E55
:107E1000106E1200420EF66E7D0EF76E000EF86EBA
:107E200000EE18F010EE0AF00900F5CFEEFFE55075
:107E3000E150FAE100EE0EF00A0EEE6AE806FDE10E
:107E4000000EF86E000190EF3FF012501310D8B4FE
:107E50001200145044EC3FF014501026000E14BED3
:107E6000FF0E112214500E26000E14BEFF0E0F221C
:107E70001250101808E113501118D8A41200000E67
:107E8000136E000E126E1200016E1650020DF350AA
:107E9000180FD96EDA6A01D80AD00500FA6EDE50E2
:107EA000FD6EDE50FE6EF850FF6EFA50120001506B
:107EB00016261650800A7C0FD8A002D0000E166E2F
:107EC00016AE1200030E166E1200000E036E125054
:107ED0001310D8B423D0145044EC3FF014501026A3
:107EE000000E14BEFF0E112284CF02F0D890023291
:107EF00002B006D0000E136E000E126E010E036E5D
:107F0000125010180BE113501118D8A407D0000E0E
:107F1000136E000E126E010E036E178003501200D6
:107F2000000E936E100E8A6E0F0EC16E000E926ED2
:107F3000EF0E896E000E896E000E8A6E000E8B6E3B
:107F4000000E8C6E000E8D6E8D9096909590959291
:107F5000959495968B929492100E0C6E940EE82E3A
:107F6000FED70C2EFCD700D09682ADEC3EF0C9ECCB
:107F70003EF012501310D8B417B003D0030E156E94
:107F800008D0200E0C6E2A0EE82EFED70C2EFCD741
:107F9000EED73D0E0D6EE10E0C6E400EE82EFED7B4
:107FA0000C2EFCD70D2EFAD7010EDDEC3EF0C9ECFD
:107FB0003EF012501310D8B408D0200E0C6E2A0ECA
:107FC000E82EFED70C2EFCD7F2D7A6EC3EF08D8023
:107FD000040E0D6E0C0E0C6E340EE82EFED70C2E19
:107FE000FCD70D2EFAD78D90040E0D6E0C0E0C6E74
:107FF000340EE82EFED70C2EFCD70D2EFAD7E7D77D
:020000040020DA
:08000000FFFFFFFFFFFFFFFF00
:020000040030CA
:0E000000240E381EFF8181FF0FC00FE00F405D
:00000001FF
